:020000040800F2
:100000004822002065020008EF230008492100086B
:10001000ED23000807050008A128000800000000E3
:10002000000000000000000000000000CD010008FA
:10003000210500080000000011020008F923000853
:100040007F0200087F0200087F0200087F0200088C
:100050007F0200087F0200087F0200087F0200087C
:100060007F0200087F0200087F0200087F0200086C
:100070007F0200087F0200087F0200087F0200085C
:1000800009050008150500087F0200087F02000826
:100090007F0200087F0200087F0200087F0200083C
:1000A0007F0200087F0200087F0200087F0200082C
:1000B0007F0200087F0200087F0200087F0200081C
:1000C0007F0200087F0200087F0200087F0200080C
:1000D0007F0200087F020008952800087F020008C0
:1000E0007F0200087F0200087F0200087F020008EC
:1000F0007F0200087F0200087F0200087F020008DC
:100100007F0200087F0200087F0200087F020008CB
:100110007F0200087F020008912400087F02000887
:100120007F0200087F0200087F0200087F020008AB
:1001300000F002F800F03AF80AA090E8000C8244BF
:100140008344AAF10107DA4501D100F02FF8AFF29C
:10015000090EBAE80F0013F0010F18BFFB1A43F0A5
:1001600001031847683F0000883F0000103A24BF91
:1001700078C878C1FAD8520724BF30C830C144BF0C
:1001800004680C607047000000230024002500264E
:10019000103A28BF78C1FBD8520728BF30C148BFEA
:1001A0000B6070471FB51FBD10B510BD00F045F9BD
:1001B0001146FFF7F7FF02F084FB00F063F903B488
:1001C000FFF7F2FF03BC00F06BF90000224B196847
:1001D0000868B0E8F00F80F30988BFF36F8F4FF025
:1001E000000080F311884EF00D0E704700000000F3
:1001F00006480068006880F3088862B661B6BFF3FD
:100200004F8FBFF36F8F00DF00BF00BF08ED00E02E
:10021000EFF30980BFF36F8F0F4B1A6820E9F00FDF
:10022000106008B54FF0500080F31188BFF34F8F76
:10023000BFF36F8F03F014FA4FF0000080F31188C2
:10024000BDE8084019680868B0E8F00F80F3098835
:10025000BFF36F8F704700BF1C000020EFF30580D5
:10026000704700000948804709480047FEE7FEE75D
:10027000FEE7FEE7FEE7FEE7FEE7FEE7FEE7FEE756
:1002800004480549054A064B704700008D240008C4
:1002900031010008481C002048220020481E002090
:1002A000481E0020032A40F2308010F0030C00F0BA
:1002B000158011F8013BBCF1020F624498BF11F8A0
:1002C00001CB00F8013B38BF11F8013BA2F1040259
:1002D00098BF00F801CB38BF00F8013B11F00303D1
:1002E00000F05780083AC0F0088051F8043B083A03
:1002F00051F804CBA0E80810F5E7121D5CBF51F8D7
:10030000043B40F8043BAFF30080D20724BF11F850
:10031000013B11F801CB48BF11F8012B24BF00F8B5
:10032000013B00F801CB48BF00F8012B704702F0F9
:10033000FF0343EA032242EA024200F05EB84FF0B4
:10034000000200B5134694469646203922BFA0E825
:100350000C50A0E80C50B1F12001BFF4F7AF090731
:1003600028BFA0E80C5048BF0CC05DF804EB890022
:1003700028BF40F8042B08BF704748BF20F8022B65
:1003800011F0804F18BF00F8012B7047704770477D
:10039000704710B5203AC0F00B80B1E81850203AF1
:1003A000A0E81850B1E81850A0E81850BFF4F5AF15
:1003B0005FEA027C24BFB1E81850A0E8185044BF9F
:1003C00018C918C0BDE810405FEA827C24BF51F80C
:1003D000043B40F8043B08BF7047D20728BF31F800
:1003E000023B48BF11F8012B28BF20F8023B48BF51
:1003F00000F8012B70474FF000020429C0F0128072
:1004000010F0030C3FF49DAFCCF1040CBCF1020FD3
:1004100018BF00F8012BA8BF20F8022BA1EB0C019C
:10042000FFF78FBF5FEAC17C24BF00F8012B00F803
:10043000012B48BF00F8012B7047754600F02CF8DF
:10044000AE4605006946534620F00700854618B0C1
:1004500020B5FFF715FFBDE820404FF000064FF034
:1004600000074FF000084FF0000B21F00701AC46E9
:10047000ACE8C009ACE8C009ACE8C009ACE8C00908
:100480008D46704710B50446AFF300802046BDE8A6
:100490001040FFF794BE000000487047E41B0020A6
:1004A00001491820ABBEFEE726000200704700009D
:1004B00070B5044600688168C943C90717D18168CF
:1004C00021F00101816000F027FD05460AE000BF30
:1004D00000F022FD401B022804D920688068C04338
:1004E000C00706D020688068C043C007F0D0002055
:1004F00070BDA06A40F01000A062E06A40F0010008
:10050000E062012070BDFEE7014800F073BA000010
:1005100040020020014800F06DBA00008402002073
:10052000704772B6FEE7000030B5B3F5804F05D0D6
:100530006FF0704140F82210002030BD8C690B68CC
:100540008D6823434C688989240144EA05242343A8
:1005500043EA014150F82230014C23401943E9E7B6
:100560000000F0CF10B50A6850F8223023F00103E4
:1005700040F822308C68082C23D000234A6822439C
:10058000CC681C430B6922431A434B690E4C1A4337
:10059000CB691A430B6A1A434B6A1A438B6A1A4394
:1005A000CB6A1A430B6B1A438B6913434A6B096876
:1005B0001A4350F82130A343134340F82130002060
:1005C00010BD4023DAE700007FFF0F0030B5D1E90E
:1005D000003443EA04138C688D89240244EA0544FC
:1005E00023430C8A074D00EB820005EB04542343A0
:1005F0000C7D6D0105EB0464896923430B43436063
:10060000002030BD0000F0FFF8B50024009490F801
:1006100024202546012A12D0012280F824204A688D
:100620001F23072A0DD20668776B521E02EB820247
:1006300093409F430B6893401F43776319E0022068
:10064000F8BD06680D2A0AD2376BD21F02EB820270
:1006500093409F430B6893401F43376309E0F76A59
:100660000D3A02EB820293409F430B6893401F4375
:10067000F7620A68072306680A2A0AD3F7680A3A63
:1006800002EB420293409F438B6893401F43F76005
:1006900008E0376902EB420293409F438B68934026
:1006A0001F4337610A68102A01D0112A20D1124B4A
:1006B00002689A4217D193681B0219D4936843F4D5
:1006C000000393600968102912D10C490C4A09688B
:1006D000B1FBF2F101EB8101490000E0491E0091FC
:1006E0000029FBD104E0816A41F0200181620124EC
:1006F00080F824502046F8BD002401401800002056
:1007000040420F002DE9F04104004FF000057FD07A
:10071000A06A002628B9E66284F82460204600F02A
:1007200081F82046FFF7C4FEA16AC90600D420B1B3
:10073000A06A40F01000A0626AE0A16A21F488512A
:1007400041F00201A162334923688B42E16904D17F
:10075000B1F5402F01D14FF40021277B4FF4807C6D
:1007600041EA470261680A43A168614508D001294E
:1007700006D0002194F814E0BEF1010F02D00AE087
:100780006146F7E7C7B1A76A47F02007A762E76AA3
:1007900047F00107E7625F6827F469470F435F602E
:1007A000236899681C4F394011439960A1686145DD
:1007B0000BD0012909D00CE0DFF860E0A7690EEB4F
:1007C00047370F4347F40061E5E7218A0D05A5F59A
:1007D00080152168CB6A23F470032B43CB62216818
:1007E00089680F4B1940914208D1E662A16A21F055
:1007F000020141F00101A162BDE8F081A06A20F090
:10080000020040F01000A062E06A40F00100E062E7
:100810000120F1E7003C0140FDF7E1FF00E0FFFFB0
:10082000FE0E1FFF00B585B00021009101910291DD
:10083000039100680E49884218D10E48816941F43D
:1008400000718161816901F400710491816941F055
:10085000100181618069694600F010000490052054
:10086000009003200190044800F05AFA05B000BD42
:1008700000240140001002400010014010B590F823
:1008800021100022022905D00421816380F8202054
:10089000012010BD01680B6823F00E030B60016896
:1008A0000B6823F001030B6090F84030C46B01210A
:1008B00001FA03F3636080F8211080F820201046CD
:1008C00010BD00002DE9F05F90F8211000240229EE
:1008D00003D004218163012485E001680A6822F0C5
:1008E0000E020A6001680A6822F001020A603F4EA7
:1008F0003E4FB215DFF8F4C0DFF8F090DFF8ECA05F
:10090000DFF8E8B0DFF8E4E00168783F1301150292
:10091000ACF1640CA9F15009AAF13C0AABF1280B27
:10092000AEF1140E4FF48018B14227D9B9420ED05F
:10093000614512D049451DD0514518D0594518D0B0
:10094000714501D1424615E0294EB14201D1012243
:1009500010E0274E1436B14201D110220AE0244E95
:100960002836B14206D0224A3C32914201D11A4681
:1009700000E02A461E49091F0A602BE0B94213D045
:10098000614517D0494522D051451DD059451DD04C
:10099000714501D142461AE0B14202D14FF0807256
:1009A00015E0134EB14201D1012210E0104E143671
:1009B000B14201D110220AE00D4E2836B14206D0D4
:1009C0000B4A3C32914201D11A4600E02A460749BF
:1009D00080394A60012180F82110002180F8201020
:1009E000416B01B188472046BDE8F09F800002407E
:1009F000080402402DE9F05FC16B0A6801680B68CA
:100A0000046C4FF0040808FA04F8844D844E854FB6
:100A1000DFF814C2DFF81492DFF814A2DFF814B282
:100A2000DFF814E218EA020F65D05FEA437862D576
:100A30000A68920603D40A6822F004020A60DFF80A
:100A4000F0814FF48062016808F114081301140268
:100A5000414524D9A9420DD0B1420FD0B9421AD094
:100A6000614515D0494515D0514501D1120312E019
:100A7000594501D104220EE0714501D140220AE01E
:100A80006D4D1435A94206D06B4A2832914201D1EE
:100A90001A4600E022466749091F0A6029E0A94278
:100AA00013D0B14215D0B94220D061451BD0494581
:100AB0001BD0514502D14FF4800217E0414502D1CD
:100AC0004FF0806212E0594501D104220EE07145D9
:100AD00001D140220AE0584D1435A94206D0564AA9
:100AE0002832914201D11A4600E022464B4908398A
:100AF0004A60C16A71E04FF0020808FA04F818EA87
:100B0000020F70D05FEA83786DD50A68920606D42A
:100B10000A6822F00A020A60012180F82110DFF839
:100B200010814FF40072016808F1140813011402D7
:100B3000414524D9A9420DD0B1420FD0B9421AD0B3
:100B4000614515D0494515D0514501D1120312E038
:100B5000594501D102220EE0714501D120220AE05F
:100B6000354D1435A94206D0334A2832914201D17D
:100B70001A4600E022462F49091F0A6029E0A942CF
:100B800013D0B14215D0B94220D061451BD04945A0
:100B90001BD0514502D14FF4001217E0414502D15C
:100BA0004FF0007212E0594501D102220EE071456A
:100BB00001D120220AE0204D1435A94206D01E4A58
:100BC0002832914201D11A4600E0224613490839E1
:100BD0004A60002180F82010816A00291CD0BDE8FD
:100BE000F05F0847FFE70825A540154214D01A0713
:100BF00012D50A6822F00E020A6090F84020C36BFA
:100C0000012101FA02F25A60816380F8211000216B
:100C100080F82010016BE0E7BDE8F09F080002407B
:100C20001C000240300002404400024058000240D4
:100C30006C000240080402401C04024030B560B160
:100C40001A4B026814219A4209D2194B1344B3FB80
:100C5000F1F18900016417490AE0012030BD134B0E
:100C60005B421344B3FBF1F1890001640F49083979
:100C7000C163022180F82110136843F6F0718B43A1
:100C8000F0E901142143D0E902452C4321430469D2
:100C900021434469214384692143194311600021A0
:100CA0004163012242770177084630BD08040240C3
:100CB000F8FFFDBF0000024030B585B00020009075
:100CC0000190029003901248016800291ED1012171
:100CD00001601048416941F480714161406902241A
:100CE00000F4807004904FF68070CDE90004032575
:100CF00069460395084800F013F84CF6B370CDE947
:100D0000000469460395054800F00AF805B030BDB7
:100D100004000020001002400018014000140140AF
:100D20002DE9F84FDFF8C8910024A9F1040B234600
:100D30000F2709F1040AABF1040ED1E00125A5400B
:100D400006EA0502AA4276D1DFF8A8C14E68A6EBF2
:100D50000C0866452BD00DDC032E34D005DC36B3F1
:100D6000012E19D0022E2FD11BE0112E16D0122EDB
:100D70002AD119E0B8F5881F19D006DCB8F5803FF4
:100D800015D0B8F5801F1FD111E0B8F5001F0ED0A7
:100D9000B8F5041F18D10AE0CB6815E0CB681B1D1D
:100DA00012E0CB6808330FE0CB680C330CE08B68A3
:100DB0002BB1012B4FF0080303D0456104E004235D
:100DC00002E0056100E00023FF2A01D8064601E0A9
:100DD00000F104064FEA840501D9A5F12005D6F8F3
:100DE000008007FA05FC28EA0C0803FA05F548EA32
:100DF0000508C6F800804D68ED0070D53E4DAE691F
:100E000046F00106AE61AD6924F0030605F0010568
:100E100000953A4D06EB050CDCF80850A607360F96
:100E200007FA06F825EA0805DFF8D480404503D123
:100E30004FF0000825E052E0DFF8C880404502D1BD
:100E40004FF001081DE0DFF8C080404502D14FF0AF
:100E5000020816E0DFF8B480404502D14FF00308E5
:100E60000FE0DFF8AC80404502D14FF0040808E005
:100E7000DFF8A080404502D14FF0050801E04FF0B7
:100E8000060808FA06F848EA0508CCF808804D6814
:100E9000D9F80060ED024D4601D5164300E09643B7
:100EA0002E604D68DAF80060AD02554601D5164354
:100EB00000E096432E604D68DBF80060AD035D46B0
:100EC00001D5164300E096432E604D68DEF80060C1
:100ED000ED03754601D5164300E096432E60641C71
:100EE0000A681646E2407FF429AFBDE8F88F00009B
:100EF00008040140000011100010024000000140F1
:100F000000080140000C01400010014000140140A5
:100F100000180140001C0140014880687047000033
:100F20000C00002070B5040025D094F83D00002589
:100F300020B984F83C50204600F0B8F8242084F80A
:100F40003D002068016821F001010160206801680E
:100F500041F4004101602068016821F40041016012
:100F600000F0C8FA4D4A6168914201D84C4900E04E
:100F70004C49884201D2012070BD4B492368B0FB27
:100F8000F1F15E6826F03F060E435E6063689342AF
:100F900006D94FF4967359434FF47A73B1FBF3F1CA
:100FA0002368491C1E6A26F03F06314319626168B6
:100FB000914210D84900401EB0FBF1F2521CC2F31E
:100FC0000B02042A01D2042022E0B0FBF1F0401C05
:100FD000C0F30B001CE0A268F2B301EBC10303EB0A
:100FE0000116431EB3FBF6F35B1C43F480431B0561
:100FF00049D092B301EBC10202EB0111401EB0FBDC
:10100000F1F0401CC0F30B0040F4804040F400407D
:101010002168CA694CF6FF739A431043C861D4E94A
:10102000071001432068026822F0C00211430160EA
:10103000D4E9030101432068826848F2FF339A43F0
:1010400011438160D4E9050108432168CA6822F090
:10105000FF021043C86001E00EE016E0206801685E
:1010600041F0010101602564202084F83D002563E2
:1010700084F83E50002070BD01EB4106431EB3FBD7
:10108000F6F35B1CB3E70120C2E701EB4101401E10
:10109000B0FBF1F0401CC0F30B00B7E7A0860100E5
:1010A00080841E0000093D0040420F0010B586B04C
:1010B0000021009101910291039100680F4988423B
:1010C0001AD10F4CA06940F00800A061A0696946E0
:1010D00000F008000490C02000901220019003202E
:1010E00003900848FFF71CFEE06940F40010E0613F
:1010F000E06900F40010049006B010BD00540040F8
:1011000000100240000C014002488168027811443E
:10111000816070470C000020074810B5016841F05D
:1011200010010160032000F0A7F80F2000F006F87E
:1011300000F050F8002010BD0020024030B50546F8
:101140001F4887B0C16941F01001C161C06906A99B
:1011500000F01000009001A800F0ACF90498B0B1C4
:1011600000F0C8F940001749174AB0FBF1F11748E1
:10117000491E0260416040F2E7320021C0E90321CC
:101180008160816100F000FC040003D015E000F0F4
:10119000B1F9E8E70D4800F025FC04000DD1362038
:1011A00000F03CF8102D07D200222946362000F02E
:1011B00043F80748056000E0012407B0204630BD31
:1011C0000010024040420F0000100040C802002002
:1011D000100000200F4808B5816941F001018161CC
:1011E000816901F001010091C16941F08051C16143
:1011F000C069002200F0805000900F21901E00F086
:101200001BF80548416821F0E06141F00071416040
:1012100008BD00000010024000000140002809DB6A
:1012200000F01F02012191404009800000F1E02000
:10123000C0F8001170470000F0B40E4B1B680C465C
:10124000C3F30223C3F10705042D00D90425191D9A
:10125000072901D2002300E0DB1E012606FA05F172
:10126000491E214099409E40761E16403143F0BCF5
:1012700001F017BB0CED00E0064900F0070208681A
:101280004FF6FF03184040EA0220034A104308606B
:10129000704700000CED00E00000FA052DE9F8436E
:1012A00005460078354CC00754D0E0690026C000E0
:1012B00008D4E06940F08050E061E069012600F068
:1012C000805000902E480168C90512D401688046FC
:1012D00041F480710160FFF71FFE074605E000BF83
:1012E000FFF71AFEC01B642823D8D8F80000C005F9
:1012F000F6D5206A10F4407021D0A98801F440711D
:1013000081421CD0206A1F49012220F440700A60EB
:1013100000220A602062C00711D0FFF7FDFD0746DA
:1013200041F2883808E000BFFFF7F6FDC11B4145D8
:1013300002D90320BDE8F883206A8007F4D5206A2B
:10134000696820F44070084320621EB1E06920F013
:101350008050E0612878800705D56068A96820F48E
:101360004040084360602878C00605D56068696918
:1013700020F48000084360600020DBE7001002409A
:1013800000700040400442422DE9F0470F4605003E
:1013900061D0434E306800F00700B84209D230688F
:1013A00020F0070038433060306800F00700B84292
:1013B00051D128683B4C810712D5400703D560689E
:1013C00040F4E06060602878000703D5606840F46E
:1013D000605060606068A96820F0F00008436060B9
:1013E0002878C00728D06868012810D02168022812
:1013F00010D0890700292EDA616821F0030101432A
:101400006160FFF789FD804641F288390DE021686F
:101410008903EFE78901EDE7FFF77EFDA0EB080107
:10142000494502D90320BDE8F0876068696800F08B
:101430000C00B0EB810FEFD1306800F00700B8422C
:101440000BD9306820F0070038433060306800F076
:101450000700B84201D00120E5E72878400705D50C
:101460006068E96820F4E06008436060287800075D
:1014700006D56068296920F4605040EAC1006060C8
:1014800000F058F86168084AC1F30311515CC84084
:101490000649086006480068FFF750FE0020C2E7D2
:1014A0000020024000100240A64000081800002062
:1014B000100000200F2202600C4A536803F003035F
:1014C0004360536803F0F0038360536803F4E06300
:1014D000C36052684FF4E06303EAD2020261044839
:1014E000006800F00700086070470000001002402C
:1014F000002002400448054900684968044AC1F3D5
:101500000221515CC84070471800002000100240C2
:10151000B64000080448054900684968044AC1F318
:10152000C221515CC84070471800002000100240E2
:10153000B64000080E4A51680E4801F00C03042B17
:1015400011D0082B0FD10C48C1F38343C903C05CF1
:101550000AD55168084AC1F34041921E515C054AC0
:101560005043B0FBF1F07047044948437047000016
:101570000010024000127A009640000800093D0069
:101580002DE9F84F040070D02078C04DC00749D035
:101590006868C0F38100012807D06868C0F3810043
:1015A000022809D16868C00306D52868800339D5A8
:1015B00060680028E7D035E06068B0F5803F0BD068
:1015C00010B1B0F5A02F11D0286820F48030286029
:1015D000286820F4802002E0286840F480302860E9
:1015E000606890B1FFF798FC06460AE0286840F46E
:1015F00080202860F0E700BFFFF78EFC801B642886
:1016000073D828688003F7D50CE0FFF785FC064601
:1016100005E000BFFFF780FC801B6428F0D8286835
:101620008003F7D420789A4E80074FF001094FF0DD
:10163000000839D5686810F00C0F07D06868C0F34F
:101640008100022809D16868C00306D42868800791
:1016500014D52069012808D110E02069B0B1C6F87E
:101660000090FFF759FC074605E00AE1FFF754FC3C
:10167000C01B0228C4D828688007F7D5286861698C
:1016800020F0F80040EAC10028600DE0C6F80080B4
:10169000FFF742FC074604E0FFF73EFCC01B0228B0
:1016A00023D828688007F7D4207800072CD57948FC
:1016B000A169D9B1C0F80090FFF72EFC074604E0FD
:1016C000FFF72AFCC01B02280FD8686A8007F7D5ED
:1016D00071484FF4FA510068B0FBF1F0009000BF80
:1016E0000098411E0091FAD20EE080E0C0F8008020
:1016F000FFF712FC074604E0FFF70EFCC01B0228B0
:1017000075D8686A8007F7D42078400760D5E86903
:101710000027C00008D4E86940F08050E861E8691B
:10172000012700F0805000905C480168C90513D47F
:101730000168834641F480710160FFF7EDFB82464A
:1017400006E000BFFFF7E8FBA0EB0A0064284ED8D4
:10175000DBF80000C005F5D5E06801280AD008B123
:10176000052813D0286A20F001002862286A20F09A
:10177000040002E0286A40F001002862E06841F2BB
:10178000883B98B1FFF7C8FB82460BE0286A40F01F
:1017900004002862EEE700BFFFF7BEFBA0EB0A01E2
:1017A00059455AD8286A8007F6D50CE0FFF7B4FBF4
:1017B000824605E0FFF7B0FBA0EB0A0159454CD883
:1017C000286A8007F6D41FB1E86920F08050E861EC
:1017D000E06988B36968C1F38101022944D0022815
:1017E000C6F8608004D0FFF797FB044638E034E089
:1017F000FFF792FB074604E0FFF78EFBC01B0228B1
:101800002BD828688001F7D4206AB0F5803F05D135
:101810006868A16820F4003008436860D4E90801D2
:101820000843696821F4741108436860C6F8609041
:10183000FFF772FB044606E025E000BFFFF76CFBF4
:10184000001B022809D828688001F7D51BE000BFDB
:10185000FFF762FB001B022802D90320BDE8F88FC6
:1018600028688001F4D40EE00128F7D06868226A65
:1018700000F48031914204D1616A00F47010884212
:1018800001D00120EAE70020E8E700000010024054
:1018900000004242800442421800002000700040D4
:1018A00070B515460E46040007D0A069B0F5807FDC
:1018B00003D094F8410010B107E0012070BD002072
:1018C00084F84000204600F01DF804F1080120686B
:1018D000FEF748FE3146A2682068FEF777FED4E99D
:1018E00001022946236BFEF71FFEA168206850F80D
:1018F000212042F0010240F82120012084F841001B
:10190000002070BDFFF7D8B97047704770B590F8E8
:101910003C20012A2CD0012480F83C40022280F88F
:101920003D2003685A689D6822F070060A683243B9
:101930005A60104B02689A420ED00F4B9A420BD05D
:10194000B2F1804F08D00D4B9A4205D00C4B9A4211
:1019500002D00C4B9A4204D1496825F08003194308
:10196000916080F83D40002180F83C10084670BD31
:10197000022070BD002C01400034014000040040F2
:1019800000080040000C004010B5040003D094F89B
:101990003D0010B107E0012010BD002084F83C009C
:1019A000204600F01EF8022084F83D00211D20682A
:1019B00000F074FD012084F8460084F83E0084F8AD
:1019C0003F0084F8400084F8410084F8420084F825
:1019D000430084F8440084F8450084F83D0000206A
:1019E00010BD704790F83D10012901D001207047CB
:1019F000022180F83D100168CA6842F00102CA6005
:101A000000680E4988420ED00D4988420BD0B0F1D3
:101A1000804F08D00B49884205D00B49884202D03C
:101A20000A49884204D1816801F00701062903D0E0
:101A3000016841F00101016000207047002C014065
:101A4000003401400004004000080040000C004049
:101A500070472DE9F04104460068C66805694FF0FB
:101A60000007A90713D5B10711D5F91E016101209F
:101A70002077206880698007204602D0FFF7E8FFC2
:101A800004E000F0AFF8204600F052F9277768072D
:101A900016D5700714D521686FF004000861022084
:101AA00020772068806910F4407F204602D0FFF73D
:101AB000CFFF04E000F096F8204600F039F92777D0
:101AC000280715D5300713D521686FF00800086185
:101AD000042020772068C0698007204602D0FFF7E5
:101AE000B7FF04E000F07EF8204600F021F92777E8
:101AF000E80616D5F00614D521686FF010000861CD
:101B0000082020772068C06910F4407F204602D06A
:101B1000FFF79EFF04E000F065F8204600F008F9AA
:101B20002777E80708D0F00706D021686FF001009A
:101B30000861204600F0FEF8280608D5300606D5D4
:101B400021686FF0800008612046FFF7DDFE68061F
:101B500008D5700606D521686FF040000861204660
:101B600000F0F2F8A8060AD5B00608D521686FF093
:101B7000200008612046BDE8F041FFF7C6BEBDE881
:101B8000F081000000B585B0002100910191029123
:101B900003910068B0F1804F1BD10F48816941F07B
:101BA000080181618069694600F0080004904FF4E3
:101BB000806000900220019003900848FFF7B0F881
:101BC0000748416821F4407141F0E06141F400713F
:101BD000416005B000BD000000100240000C014053
:101BE00000000140704770B5044690F83C000026A4
:101BF0000D4601280FD0012084F83C006AB1042A68
:101C00001DD0082A2FD00C2A3FD00126002084F8AE
:101C10003C00304670BD022070BD206800F08CFC96
:101C20002068816941F0080181612068816921F0A3
:101C300004018161206881692A69114311E02068EB
:101C400000F0AAFC2068816941F40061816120688C
:101C5000816921F480618161206881692A6941EA92
:101C600002218161D2E7206800F0CCFC2068C169C4
:101C700041F00801C1612068C16921F00401C1611E
:101C80002068C1692A69114311E0206800F0EEFC68
:101C90002068C16941F40061C1612068C16921F413
:101CA0008061C1612068C1692A6941EA0221C1617C
:101CB000ACE710B5040003D094F83D0010B107E084
:101CC000012010BD002084F83C00204600F01EF8E2
:101CD000022084F83D00211D206800F0DFFB012078
:101CE00084F8460084F83E0084F83F0084F8400001
:101CF00084F8410084F8420084F8430084F84400EA
:101D000084F8450084F83D00002010BD08B5006847
:101D1000B0F1804F08D10548C16941F00101C161AE
:101D2000C06900F00100009008BD000000100240F2
:101D30007047000000680349884201D1FFF7E4B909
:101D40007047000000100040704770477047000067
:101D5000F8B5016804460868CA684B6910F00F0FAF
:101D60004FF0000559D003F0010602F49077374395
:101D700065D0C10705D0D10503D5616C41F00101E3
:101D80006164410705D5D90703D0616C41F00201B8
:101D90006164810705D5D90703D0616C41F0040166
:101DA0006164010707D502F02001314303D0616C63
:101DB00041F008016164616C00293AD0800604D5C5
:101DC000900602D5204600F0A8FC20684069616CAE
:101DD000C0F38010090700D460B3204600F076FC01
:101DE00020684069400621D52068143050E8001F63
:101DF00021F0400140E80012002AF5D1E06BA8B1C3
:101E00006D494163E06BFEF75DFD002811D0E06B8A
:101E1000416B01B0BDE8F040084783060FD593063B
:101E20000DD52046BDE8F84000F077BC2046FFF70E
:101E30008DFFF8BD2046FFF789FF6564F8BD266B6E
:101E40002023012E7CD1C6067AD5D60678D508681F
:101E50004868009048694FF00206400640D5E16BA3
:101E6000086840680004000CE8D0A28D8242E5D9E1
:101E7000E085886920282DD020680C3050E8001FAC
:101E800021F4807140E80012002AF5D12068143056
:101E900050E8001F21F0010140E80012002AF5D1AE
:101EA0002068143050E8001F21F0400140E8001283
:101EB000002AF5D184F84230256320680C3050E8C0
:101EC000001F21F0100140E80012002AF5D1E06B5C
:101ED000FEF7D4FC6663A08DE18D401A81B22AE042
:101EE000A08DE18D401A81B2E08D0028A6D0002996
:101EF000A4D022680C3252E8000F20F4907042E81F
:101F00000007002FF5D12068143050E8002F22F090
:101F1000010240E80027002FF5D184F84230256304
:101F200020680C3050E8002F22F0100240E8002317
:101F3000002BF5D166632046FFF707FFF8BDFFE7EA
:101F400005062BD5150629D594F841002128F5D191
:101F5000A068B0F5805F01D12069B0B1206A411C52
:101F60002162216800784860E08C401E0004000C6B
:101F7000E084E3D12068C16821F08001C16020685D
:101F8000C16841F04001C160D8E7206A0088C0F311
:101F900008004860206A801C2062E5E74006CDD535
:101FA0005006CBD5CA68204622F04002CA6084F8A9
:101FB000413000F0C8F8C1E7BD26000870B5040044
:101FC00004D094F84100002510B106E0012070BD56
:101FD00084F84050204600F023F8242084F8410083
:101FE0002068C16821F40051C160204600F0F6FB72
:101FF0002068016921F4904101612068416921F064
:102000002A0141612068C16841F40051C1606564E2
:10201000202084F8410084F842006563002070BDF0
:10202000F0B585B000240094019402940394064610
:102030003E4F03683E48022103223E4DBB4221D160
:10204000836943F480438361836903F48043049389
:10205000836943F0040383618069039200F0040004
:1020600004900802CDE9000169462846FEF758FEB3
:102070002815CDE90004694628460294FEF750FE73
:1020800005B0F0BD2C4FBB42FAD1C36943F4003315
:10209000C361C36903F400330493836943F0040309
:1020A00083618069039200F0040004900420CDE96C
:1020B000000169462846FEF733FE0820CDE90004FA
:1020C000694628460294FEF72BFE1D4D1B488027CB
:1020D000C5E90004C5E902472C616C61AC61284682
:1020E000EC61FEF7ABFD08B1FEF71BFAF5636E621B
:1020F000134D12484435143001C5102091C51048C5
:1021000045F8104944306C61AC61EC61FEF796FD16
:1021100008B1FEF706FAB5630022052126206E629B
:10212000FFF78AF82620FFF779F8A9E70038014081
:102130000010024000080140004400406C000240D2
:102140004002002070477047FEE700003EB50024C3
:1021500011480094019402940E4984600160047354
:102160000475012505614FF460214460C161FEF7EB
:10217000C9FA08B1FEF7D5F90A20CDE9000569468C
:1021800002940548FEF740FA002801D0FEF7C9F98D
:102190003EBD0000002401409C0000200D4808B511
:1021A000416941F0010141614069002200F00100F4
:1021B000009005211020FFF73FF81020FFF72EF8C0
:1021C000002205211120FFF737F8BDE80840112053
:1021D000FFF724B80010024010B5044A002104485B
:1021E00000F0C6FB0349086010BD00007040000805
:1021F000F12300080000002000B587B01C216846CC
:10220000FEF79DF817484FF0204110220160164953
:10221000416000218160C160C0E904128161C16137
:1022200013020162C0E90913C16201634163816362
:102230000F20FF230090CDE90103CDE90302112017
:10224000CDE90501002269460648FFF729FB08B1E0
:10225000FEF767F90548C16941F48061C16107B0C3
:1022600000BD0000CC000020040100A000000140DF
:10227000154808B5816941F010018161816901F05B
:1022800010010091816941F004018161816901F0CF
:1022900004010091816941F040018161816901F08F
:1022A00040010091816941F008018161816901F07B
:1022B00008010091816941F020018161806900F08D
:1022C0002000009008BD0000001002400D4810B52D
:1022D0000B4901600C49416000214FF4804281604C
:1022E000C0E9031241618161C1610162FEF71AFE1A
:1022F000002803D0BDE81040FEF713B910BD000060
:102300000054004014010020A086010010B58AB0DE
:10231000002407941C2168460894FEF710F816481C
:102320004FF0804101604721C0E9011440F2E731DC
:10233000C0E903148461FFF7BCFC08B1FEF7F1F8B3
:10234000079407A90C480894FFF7E0FA08B1FEF7D4
:10235000E8F86020CDE900040294082269460648A6
:102360000494FFF740FC08B1FEF7DBF80248FFF7E2
:1023700009FC0AB010BD0000680100200C4810B52F
:102380000A4901604FF4E1314160002181600C2273
:10239000C160C0E904128161C161FFF70FFE00282E
:1023A00003D0BDE81040FEF7BCB810BD00380140B6
:1023B000B00100200C4810B50A4901604FF4E1312A
:1023C0004160002181600C22C160C0E9041281617A
:1023D000C161FFF7F3FD002803D0BDE81040FEF710
:1023E000A0B810BD00440040F8010020FEE7FEE761
:1023F000012000F081FAFBE710B54FF0E020006902
:1024000001F080FC012803D0BDE8104001F0AEB916
:1024100010BD30B595B028216846FDF790FF142116
:102420000AA8FDF78CFF18210FA8FDF788FF0121EE
:102430000804CDE900100025029502240491CDE99D
:1024400007404FF4E01009906846FFF799F808B18B
:1024500072B6FEE70AA90F2081E831004FF48060D0
:10246000CDE90D0502210AA8FEF78EFF08B172B66C
:10247000FEE74FF4004011900F940FA8FEF70EFFF7
:10248000002801D072B6FEE715B030BD70470000DD
:102490000148FFF7DEBA0000C8020020F0B502686C
:1024A000204C214D214E224F224B4FF0804CA04218
:1024B00009D0984207D0604505D0A84203D0B04269
:1024C00001D0B84204D122F0700E4A6842EA0E02EE
:1024D000A04209D0984207D0604505D0A84203D059
:1024E000B04201D0B84203D122F44075CA682A43F1
:1024F0004D6922F080022A4302608A68C2620A683B
:102500008262A04201D0984201D109690163012190
:1025100041610169C90703D0016921F0010101612D
:10252000F0BD0000002C0140000400400008004005
:10253000000C004000340140F0B5036A026A22F04A
:102540000102026242688469124E24F073050C682D
:102550002C4323F002058B682B430D4DA84201D07C
:10256000B04205D123F00807CB683B4323F00403B6
:10257000A84201D0B04205D14D6922F44072154302
:102580008A692A4342608461496841630362F0BDFD
:10259000002C014000340140F0B5026A036A23F0C8
:1025A00010030362436884690D6824F4E64444EA36
:1025B00005248D6822F0200242EA05120F4D104ECC
:1025C000A84201D0B04206D1CF6822F0800242EA90
:1025D000071222F04002A84201D0B04207D14D6953
:1025E00023F4406343EA85038D6943EA850343602E
:1025F0008461496881630262F0BD0000002C0140E3
:1026000000340140F0B5026A036A23F48073036268
:102610004368C46922F4007224F073050C68124EFA
:102620002C438D6842EA05220E4DA84201D0B042EB
:1026300006D1CF6822F4006242EA072222F48062C7
:10264000A84201D0B04207D14D6923F4405343EA78
:1026500005138D6943EA05134360C4614968C1638A
:102660000262F0BD002C01400034014030B5046A24
:10267000026A22F4805202624268C3690D6823F440
:10268000E64343EA05238D6824F4005444EA053404
:10269000084DA84202D0084DA84204D14D6922F449
:1026A000804242EA85124260C36149680164046263
:1026B00030BD0000002C01400034014010B5406ADC
:1026C0000021C185C184FFF741FB10BD01680C31B9
:1026D00051E8002F22F4907241E80023002BF5D13D
:1026E0000168143151E8002F22F0010241E8002373
:1026F000002BF5D1016B012909D101680C3151E89A
:10270000002F22F0100241E80023002BF5D12021F8
:1027100080F8421000210163704708B590F842101C
:10272000222901D0022008BD82684FF480539A42CA
:1027300001D1016921B1816A9A421BD04AB10AE0F4
:102740000268816A5268C2F308020A80816A891CA1
:1027500008E0026972B10268526802F07F020A70F2
:10276000816A491C8162C18D491E0904090CC18519
:1027700003D01BE002685268F1E70168CA6822F0E2
:102780002002CA600168CA6822F48072CA600168C7
:102790004A6922F001024A61202180F8421000219A
:1027A0004163026B012A03D0FFF7CCFC002008BD77
:1027B000016301680C3151E8002F22F0100241E85A
:1027C0000023002BF5D101680A68D20602D50A68F9
:1027D00049680091818DFFF7B8FAE7E770B50446C4
:1027E00000680169E26821F44051114301612169E7
:1027F000A0680843616908432168CA6841F20C6314
:102800009A430243CA6020684169A26921F4407179
:10281000114341611E492068884202D1FEF77AFEC9
:1028200001E0FEF767FE00EBC00101EB00126068FB
:1028300064218000B2FBF0F3B3FBF1F36FF01806F4
:102840007343B2FBF0F5B2FBF0F605EB83053223E0
:1028500003EB0515B5FBF1F5B6FBF1F605F0F00558
:1028600005EB0615B2FBF0F6B2FBF0F0B0FBF1F0B1
:102870006FF01802504306EB800003EB0010B0FB32
:10288000F1F0216800F00F002844886070BD00005E
:10289000003801400148FFF75BBA0000F801002052
:1028A000FEE70907090E002804DB00F1E02080F8AC
:1028B0000014704700F00F0000F1E02080F8141DB4
:1028C0007047FEF729FCFFF7A4FDFFF7D1FCFFF7E7
:1028D00065FCFFF7FBFCFFF719FDFFF74FFDFFF766
:1028E00069FDFFF733FCFFF787FC00F013F8FFF7F3
:1028F00073FC00F021F8FEE710B5EFF3058111B18C
:102900006FF0050403E0002408B100F0F5FD204657
:1029100010BD0000EFF3058010B16FF005007047A7
:102920000448016811B14FF0FF3070470121016088
:10293000002070476C00002010B5EFF3058010B147
:102940006FF0050010BD08480168012902D04FF062
:10295000FF3010BD054A002182F8141D02210160DC
:1029600000F032FE002010BD6C0000200BE000E003
:102970002DE9FF414FEA01034FF00005EFF3058118
:10298000039549BB40B38027182100244AB3166839
:1029900006B1344696691EB13146761E382E02D2F3
:1029A0001679F60703D0002004B0BDE8F08156691F
:1029B00006B1B708D2F808C0BCF1000F0DD0D56839
:1029C0005C2D18D312693AB136B18DE806103A463B
:1029D000214601F06CF903900DE0D6685EB91269EA
:1029E0004AB903AACDE90012BAB2214601F032F980
:1029F000012800D003950398D6E700002DE9F041A7
:102A0000134C0F460546E6682068001D00F040FCA8
:102A1000681C07D137B12168BDE8F0410D48091D98
:102A200000F086BC20683544B5424560216805D277
:102A3000A06BBDE8F041091D00F062BC606B091D90
:102A400000F05EFCA06A854200D2A562BDE8F0817C
:102A50001C000020000800202DE9F041054600F090
:102A600073FC2D4CA068401CA06020682B4F10B157
:102A7000606930B32BE02560A068012827D10026CB
:102A800006EB860007EB800000F02CFC761C382E4D
:102A9000F6D3234800F026FC2148143000F022FC35
:102AA0001F48283000F01EFC1D483C3000F01AFC86
:102AB0001B48503000F016FC194860631430A063C6
:102AC00005E02068E96AC06A884200D82560606A2B
:102AD000401C60626864E86A2169884200D920610C
:102AE00000EB800007EB8000291D00F021FC00F0C6
:102AF0004BFC606900280CD02068E96AC06A8842F3
:102B000007D208494FF080500860BFF34F8FBFF3E2
:102B10006F8FBDE8F08100001C00002050030020F2
:102B2000B007002004ED00E038B500F00DFC104CBB
:102B30002068C8B90F4800F0D5FB0E48143000F0EB
:102B4000D1FB0C48E060143020610A4B0020F03BC0
:102B5000009003F1500210210A2000F01DFE2060B9
:102B600010B105A100F092FCBDE8384000F00CBCAB
:102B70005800002004090020546D7251000000002C
:102B800030B4026C0B46002A0BD0C1681144C160FE
:102B90008468A14201D30168C16030BC1846FDF7CA
:102BA00081BB30BC70472DE9F041856B1746044668
:102BB0000026026C82B1C7B1E068FDF773FBE168E3
:102BC000206C091AE1602268914202D2A168081AB9
:102BD000E060022F16D017E02068A8B9A06801F0C5
:102BE00009F906460020A0600EE06068FDF75AFB78
:102BF000216C606808446060A168884204D3206842
:102C0000606001E005B16D1E6D1CA5633046BDE836
:102C1000F08110B5044690F8590058B101280CD045
:102C200002280FD0502080F31188BFF34F8FBFF3DD
:102C30006F8FFEE7206B00F0BBFB2046BDE8104025
:102C400000F0B6BB10BD000010484FF440614207D1
:102C500006D0C01D0D4920F00700411AC1F54061A2
:102C60000B4A00230144C2E900030839183A21F055
:102C7000070111604B600B600B1AC0E900139360F1
:102C80004FF000405360506170470000E40F002097
:102C900088000020144E154CA6F29C474FF0805837
:102CA000DFF84C9012E000BF00F04EFBF068C56802
:102CB000281D00F0EDFAA068401EA0606068401E6C
:102CC000606000F061FB2846FFF7A3FF6068002802
:102CD000EAD138680128F9D9C9F80080BFF34F8FCD
:102CE000BFF36F8FF2E70000EC0700201C0000200C
:102CF00004ED00E070B51D46049C51B1C4F80020FD
:102D0000C4E90F010121204600F07AFD84F84C50FF
:102D100070BD2460F4E700002DE9F05F8846DDE92E
:102D20000B941546834691009A460A9EA522206B75
:102D3000FDF7FDFA6FF00301206B01EB85010844FC
:102D400020F00707780707D0502080F31188BFF3E1
:102D50004F8FBFF36F8FFEE70025B8F1000F0FD044
:102D60005FF00000221818F8001082F8341018F8EC
:102D7000001011B1401C1028F4D384F8435001E036
:102D800084F83450382E00D33726E662C4E9136540
:102D9000201D00F0B2FA04F1180000F0AEFA246130
:102DA000C6F138006462A061656584F858505246E7
:102DB0005946384600F05AFA2060B9F1000F01D0A8
:102DC000C9F80040BDE8F09F30B5114900E0114658
:102DD0000A688242FBD34B685C18844203D1406886
:102DE00018444860084643681C18944209D1084CAE
:102DF000183C2468A24209D052681A4442600A680A
:102E000012680260814200D0086030BD0460F9E7BA
:102E10008800002070B5002441600B4D0061914294
:102E200006D8D11A8269914206D2011D286907E0AD
:102E30009A4203D2994201D3012403E0011DE868BC
:102E400000F05EFA204670BD5800002010B5044620
:102E500000F07AFAA06B28B15FF0000400F094FA59
:102E6000204610BD0124F9E730B589B03C4D6EE035
:102E70000498002806DADDE90601059A90470498CF
:102E8000002864DB069C606910B1201D00F000FA88
:102E900003A800F0D7F8024604980A2857D2DFE8C2
:102EA00000F00505052D334A05052D3394F828005B
:102EB00040F0010084F828000599A069059B0144B1
:102EC0002046FFF7A7FF68B3216A2046884794F899
:102ED000280040073BD5002000900598A1690023F9
:102EE00042181946204601F08FF8D8B9502080F3D7
:102EF0001188BFF34F8FBFF36F8FFEE714F8280FD1
:102F000020F00100207022E094F8280040F0010039
:102F100084F828000598A06128B18118134620463E
:102F2000FFF778FF13E0502080F31188BFF34F8F35
:102F3000BFF36F8FFEE794F82800810703D4204683
:102F400000F036FA03E020F0010084F828000022A7
:102F500004A9286800F0A8FD002889D109B030BD77
:102F6000580000202DE9FC410F46054600F070FB9B
:102F700001A800F067F80446019818B100F0B2FF0C
:102F8000BDE8FC81254EAFB130690068D0B30027A1
:102F9000291B3A46306800F08DFA00F0A3FF0028A4
:102FA000EED11F494FF080500860BFF34F8FBFF341
:102FB0006F8FE5E7A542EBD800F094FFF068274655
:102FC000C068C468201D00F063F994F82800410728
:102FD00019D5A0692B4641193A462046FFF71AFF3A
:102FE000A8B100200346014600902A46204601F081
:102FF0000BF860B9502080F31188BFF34F8FBFF3F7
:103000006F8FFEE707E020F0010084F82800216AB6
:1030100020468847B4E70127BAE70000580000209F
:1030200004ED00E00648416B096829B1416BC968AD
:10303000C9684968816270474FF0FF31FAE70000C4
:103040001C00002070B5054600F06AFE064E0446DE
:10305000B068844203D200F009F8012000E00020AB
:1030600028602046B46070BD58000020F8B5194DA6
:1030700020E0C068C4680668201D00F009F9216AD4
:103080002046884794F82800400713D5A0693044AB
:10309000B04206D924616060211DE86800F030F973
:1030A00008E000200346014600903246204600F02A
:1030B000ABFF38B1E86801680029DAD12969C5E9B0
:1030C0000310F8BD502080F31188BFF34F8FBFF37A
:1030D0006F8FFEE75800002008484068401C4FF002
:1030E000500080F3118804D0BFF34F8FBFF36F8F70
:1030F000FEE7BFF34F8FBFF36F8FFEE79000002016
:10310000074CE068016841B1C0680021D0F80000B8
:10311000FFF728FFFFF7A8FEF3E701210020F7E7FC
:10312000580000202DE9F041044600F00DF994F913
:10313000455004F1240609E0606A48B1304600F0C9
:1031400099FE08B100F006FA6D1E6DB2002DF3DC99
:103150004FF0FF3684F8456000F016F900F0F4F8FF
:1031600094F9445004F1100709E0206948B1384649
:1031700000F080FE08B100F0EDF96D1E6DB2002D7B
:10318000F3DC84F84460BDE8F04100F0FDB80000D5
:103190002DE9F0410546002700F05AFA324E30681A
:1031A00008B9FFF751FD706905424ED1C5B3083526
:1031B00068070ED005F00700C0F108000544680755
:1031C00007D0502080F31188BFF34F8FBFF36F8F6C
:1031D000FEE72DB37068854237D823481830014682
:1031E0000C6801E020460C466168A94202D22168C1
:1031F0000029F7D131688C4227D007682168016027
:1032000060680837411B10290FD96019420708D0A0
:10321000502080F31188BFF34F8FBFF36F8FFEE70D
:1032200013E041606560FFF7CFFD61687068401A88
:103230007060B268904200D2B060706901430020B3
:10324000C4E90001F068401CF06000F04BFE780714
:1032500007D0502080F31188BFF34F8FBFF36F8FDB
:10326000FEE73846BDE8F0817000002010B5031F6E
:103270004FF080741C601B1F21F001011960191FA1
:10328000024B0B60143940380A6010BDD930000879
:10329000D0E9013201699A60D0E901235A604A6895
:1032A000824201D182684A60002202610868401EA1
:1032B0000860086870470000034B036003F15C007E
:1032C00008608020106070472C090020044B0360C8
:1032D00003F15C0008604FF48070106070470000DC
:1032E000880B002000F108014FF0FF32C0E9011205
:1032F000C1600161002101607047002101617047D8
:1033000030B50B685A1C02D000F1080202E00269D5
:1033100004E02246546825689D42FAD953684B6000
:1033200099608A60516008610168491C016030BD84
:1033300042684A6093688B60936859609160086145
:103340000168491C01607047502080F31188BFF369
:103350004F8FBFF36F8F0A494868401C48600128AF
:103360000CD10848006810F0FF0F07D0502080F300
:103370001188BFF34F8FBFF36F8FFEE770470000D8
:103380009000002004ED00E00849486828B1401E84
:10339000486001D180F311887047502080F3118874
:1033A000BFF34F8FBFF36F8FFEE700009000002048
:1033B00070B500282AD0164DA0F10804606869692C
:1033C000084207D1502080F31188BFF34F8FBFF31D
:1033D0006F8FFEE722683AB1502080F31188BFF367
:1033E0004F8FBFF36F8FFEE78843606000F030F9C6
:1033F00060686968084468602046FFF7E5FC286952
:10340000401C2861BDE8704000F06CBD70BD00003C
:10341000700000204FF0E02000210161816105492A
:103420004FF47A720968B1FBF2F1491E416107213C
:10343000016170471800002010B5FCF70FFF11491B
:1034400010280ED300F1E02090F8F0030A789042A3
:1034500007D2502080F31188BFF34F8FBFF36F8FD7
:10346000FEE709480068896800F4E060884207D9EF
:10347000502080F31188BFF34F8FBFF36F8FFEE7AB
:1034800010BD0000900000200CED00E010B5084BCE
:10349000002200BF53F832401CB1521C082AF9D355
:1034A00010BD43F8321003EBC201486010BD0000AC
:1034B0001003002070B515460E460446FFF744FF82
:1034C00094F944100020491C01D184F8440094F977
:1034D0004510491C01D184F84500FFF755FFA06B4A
:1034E00028B92A46314604F1240000F051F820465C
:1034F000BDE87040FFF716BE10B5020014D00F48AB
:10350000006B38B1502080F31188BFF34F8FBFF3A9
:103510006F8FFEE700F09CF800211046FFF76EFA6F
:1035200000F0E0FC002807D105494FF0805008600A
:10353000BFF34F8FBFF36F8F10BD00001C00002042
:1035400004ED00E002490A6A0260C9684160704700
:103550001C00002001490120C86170471C000020A8
:1035600010B50C4650B1094909681831FFF7C8FE7B
:103570002046BDE810400121FFF740BA502080F3FB
:103580001188BFF34F8FBFF36F8FFEE71C00002041
:1035900070B514460D4668B10A4909681831FFF73D
:1035A000C7FE0CB14FF0FF3521462846BDE87040FC
:1035B000FFF724BA502080F31188BFF34F8FBFF379
:1035C0006F8FFEE71C00002030B587B00024039405
:1035D00005AA04A903A80494FFF76EFEDDE9030120
:1035E0000094CDE90110002315A11748059A00F0B9
:1035F0005EFB164D0028E8621FD000F0D5FC0128C4
:1036000009D0401C19D1502080F31188BFF34F8F8F
:10361000BFF36F8FFEE7502080F31188BFF34F8F09
:10362000BFF36F8F4FF0FF30A86201206861EC603C
:1036300007B0BDE8304000F045B807B030BD00002D
:1036400049444C4500000000952C00081C00002057
:103650000248016B491C0163704700001C000020F8
:10366000164810B5016B11B10121C16110BD0021D7
:10367000C1610169124A01E0B9B1491E01EB810340
:1036800052F82330002BF7D001EB810302EB8302C9
:1036900002F1080453685B685360A34201D15B6880
:1036A0005360DA680260016110BD502080F3118818
:1036B000BFF34F8FBFF36F8FFEE700001C000020A9
:1036C000500300201CB5264908780190FF2008709F
:1036D00008788DF800009DF800009DF8002000F0AB
:1036E000F000904207D0502080F31188BFF34F8F35
:1036F000BFF36F8FFEE79DF800001A4C00F05000FA
:1037000020700720A06005E09DF8002052008DF891
:103710000020401E9DF800201206F5D4A06003286A
:1037200007D0502080F31188BFF34F8FBFF36F8F06
:10373000FEE74FF44070A060019808700A480168E5
:1037400041F470010160016841F070410160FFF7D0
:1037500061FE00206060FCF74BFD00201CBD0000F6
:1037600000E400E09000002020ED00E010B55020C3
:1037700080F31188BFF34F8FBFF36F8F00F0D6FA3D
:1037800018B104494FF080500860002080F3118880
:1037900010BD000004ED00E038B5049D18B153B130
:1037A000CAB181B120E0502080F31188BFF34F8F60
:1037B000BFF36F8FFEE7502080F31188BFF34F8F68
:1037C000BFF36F8FFEE7502080F31188BFF34F8F58
:1037D000BFF36F8FFEE739B1502080F31188BFF33C
:1037E0004F8FBFF36F8FFEE750241C46012384F8F0
:1037F00046302B460094FFF77DFA204638BD000086
:1038000070B50D46040025D0FFF79EFDD4E90F20CA
:10381000216802FB0011A1600021A16321686160A1
:103820000A46D4E90F01401E00FB0121E160214658
:103830004FF0FF3001F8440F487004F110008DB1D3
:10384000FFF750FD04F12400FFF74CFDFFF79CFD4E
:10385000012070BD502080F31188BFF34F8FBFF35C
:103860006F8FFEE721690029F0D000F003FB0028EC
:10387000ECD004494FF080500860BFF34F8FBFF386
:103880006F8FE3E704ED00E02DE9FF4782B01D46AE
:103890008A464FF00008040003D0BAF1000F08D0A8
:1038A00011E0502080F31188BFF34F8FBFF36F8F6B
:1038B000FEE7206C38B1502080F31188BFF34F8FA2
:1038C000BFF36F8FFEE7022D0AD1E06B012807D00E
:1038D000502080F31188BFF34F8FBFF36F8FFEE747
:1038E00000F010FA3F4F4FF000094FF0805648B9F2
:1038F000049838B1502080F31188BFF34F8FBFF385
:103900006F8FFEE7FFF720FDA06BE16B884207D3C6
:10391000022D05D00498D0B1B8F1000F1AD01EE0E6
:103920002A4651462046FFF73EF9616A19B104F173
:10393000240000F09FFA20B13E60BFF34F8FBFF329
:103940006F8FFFF721FD012006B0BDE8F087FFF77C
:103950001BFD22E06846FFF7F5FD4FF00108FFF779
:1039600013FDFFF775FEFFF7EFFC94F94400401CD0
:1039700001D184F8449094F94500401C01D184F8A9
:103980004590FFF701FD04A9684600F029F930B120
:103990002046FFF7C7FB00F0A5FA0020D4E7FFF7A9
:1039A000D3FCA06BE16B884213D1FFF7EDFC04F16F
:1039B00010000499FFF7D4FD2046FFF7B3FB00F099
:1039C00091FA00289ED13E60BFF34F8FBFF36F8FF7
:1039D00098E7FFF7D9FC2046FFF7A4FB00F082FA36
:1039E00090E7000004ED00E02DE9F0471F46904607
:1039F0008946040003D0B9F1000F08D011E050202F
:103A000080F31188BFF34F8FBFF36F8FFEE7206CF9
:103A100038B1502080F31188BFF34F8FBFF36F8F01
:103A2000FEE7022F0AD1E06B012807D0502080F377
:103A30001188BFF34F8FBFF36F8FFEE7FFF7FCFCDA
:103A40005020EFF3118680F31188BFF34F8FBFF33F
:103A50006F8FA06BE16B884206D3022F04D0002049
:103A600086F31188BDE8F08794F94550A06B3A467B
:103A700049462046FFF797F8681C04D06D1C84F86F
:103A800045500120ECE7606A0028FAD004F12400D8
:103A900000F0F0F90028F4D0B8F1000FF1D00121C6
:103AA000C8F80010EDE700002DE9F747002683B0C5
:103AB0008A46040003D0BAF1000F08D011E050206C
:103AC00080F31188BFF34F8FBFF36F8FFEE7206C39
:103AD00038B1502080F31188BFF34F8FBFF36F8F41
:103AE000FEE700F00FF9DFF8F4804FF000094FF027
:103AF000805748B9059838B1502080F31188BFF33A
:103B00004F8FBFF36F8FFEE7FFF71EFCA56BC5B1AC
:103B100051462046FFF734F86D1EA563206950B169
:103B200004F1100000F0A6F928B1C8F80070BFF346
:103B30004F8FBFF36F8FFFF727FC012006B0BDE862
:103B4000F087059808B11EB106E0FFF71DFC27E0DD
:103B50006846FFF7F7FC0126FFF716FCFFF778FD34
:103B6000FFF7F2FB94F94400401C01D184F8449023
:103B700094F94500401C01D184F84590FFF704FCFE
:103B800005A9684600F02CF8002820460AD0FFF767
:103B9000C9FA00F0A7F92046FFF758F90028B3D07A
:103BA0000020CBE7FFF752F990B104F1240005990A
:103BB000FFF7D6FC2046FFF7B5FA00F093F900288E
:103BC000A2D1C8F80070BFF34F8FBFF36F8F9BE790
:103BD0002046FFF7A7FA00F085F995E704ED00E02D
:103BE0002DE9F0410C46050011D0C4B1FFF7ACFB44
:103BF000174BDA686E682068911B471C17D02F6836
:103C00001B6A9F4219D0964217D8012410E0502019
:103C100080F31188BFF34F8FBFF36F8FFEE7502003
:103C200080F31188BFF34F8FBFF36F8FFEE700243F
:103C3000FFF7AAFB2046BDE8F081884205D9401A6B
:103C400020602846FFF77EFCF1E700202060DCE7DB
:103C50001C0000202DE9FF5F8346DDE90E879946B1
:103C600016468A469000FFF793FA05001CD05C20A8
:103C7000FFF78EFA040014D00020256384F8590061
:103C8000CDE90240CDE900874B46324651465846C1
:103C9000FFF742F82046FEF7DFFE012004B0BDE842
:103CA000F09F2846FFF784FB4FF0FF30F6E7F0B5B2
:103CB00085B0DDE90B640A9DA6B1DCB15C270097F5
:103CC0002663022684F85960002604AFCDE9024637
:103CD000CDE90057FFF720F82046FEF7BDFE049817
:103CE00005B0F0BD502080F31188BFF34F8FBFF3B4
:103CF0006F8FFEE7502080F31188BFF34F8FBFF323
:103D00006F8FFEE70548416919B1006B18B10020BB
:103D10007047012070470220704700001C000020FF
:103D20000148C068704700001C0000202DE9F041E8
:103D30002E4C0027206B28B1A069401CA06138469A
:103D4000BDE8F081E668761CE66013D1606B006820
:103D500038B1502080F31188BFF34F8FBFF36F8FBE
:103D6000FEE7606BA16B6163A063206A401C206268
:103D7000FFF758F9A06ADFF87880864209D3606BB4
:103D80000068A0B1606BC068C5686868864211D2DF
:103D9000A0622068C06A00EB800158F82100012869
:103DA00000D90127E0690028C9D00127C7E74FF0F3
:103DB000FF30EDE7281DFFF76BFAA86A18B105F18F
:103DC0001800FFF765FAE86A2169884200D9206186
:103DD00000EB800108EB8100291DFFF7A9FAE86AD2
:103DE0002168C96A8842CAD30127C8E71C0000209D
:103DF0005003002070B504004FF0000133D01B4D7C
:103E00002868844207D0502080F31188BFF34F8F79
:103E1000BFF36F8FFEE7206D38B1401E2065E36C65
:103E2000E26A9A421FD040B11DE0502080F3118811
:103E3000BFF34F8FBFF36F8FFEE7201DFFF728FA08
:103E4000E06CE062C0F13800A061E06A2969884254
:103E500000D92861064900EB800001EB8000211D9C
:103E6000FFF766FA0121084670BD00001C00002023
:103E70005003002070B5C068C46854B104F1180044
:103E80000646FFF705FA144D286B50B1314613482A
:103E900015E0502080F31188BFF34F8FBFF36F8F71
:103EA000FEE7201DFFF7F4F9E06A2969884200D98E
:103EB00028610B4900EB800001EB8000211DFFF71A
:103EC00037FAE06A2968C96A884202D90120E861A4
:103ED00070BD002070BD00001C000020D80700202D
:103EE000500300202DE9F0472C4D00242746286B75
:103EF00038B1FFF729FA286B401E2863286B40B1C0
:103F000046E0502080F31188BFF34F8FBFF36F8FCF
:103F1000FEE7A968224E0120D1B3A6F5916980463B
:103F20003068E0B1F068C46804F11800FFF7B0F938
:103F3000201DFFF7ADF9E06A2969884200D92861A0
:103F400000EB800109EB8100211DFFF7F1F9E06A28
:103F50002968C96A8842E3D3C5F81C80E0E70CB140
:103F6000FFF760F8AC694CB14FEA0806FFF7DEFED8
:103F700000B1EE61641EF9D10020A861E86938B192
:103F80000849012738070860BFF34F8FBFF36F8FD1
:103F9000FFF7FAF93846BDE8F08700001C00002062
:103FA000D807002004ED00E010B586B0FEF7BCFD98
:103FB000114C2068B8B100200390049005AA04A910
:103FC00003A8FFF783F9DDE9032102208DE807004C
:103FD00000230AA10B48059AFFF769FE606010B143
:103FE00006B0012010BD502080F31188BFF34F8F21
:103FF000BFF36F8FFEE7000058000020546D722061
:1040000053766300013100082DE9FF411E46134637
:1040100002000A9D4FF0000016D0144C2768002FB4
:104020000FD0CDE900130292062917DAFFF76AFED6
:1040300002284FF000030FD0002269462068FFF7E6
:1040400023FC04B0BDE8F081502080F31188BFF359
:104050004F8FBFF36F8FFEE72A46EEE7002332460D
:1040600069463846FFF7C0FCEBE700005800002027
:10407000C040000800000000000000000000000038
:104080000000000000020000180000000000000016
:1040900000000000010202030405060708090A0BDC
:1040A0000C0D0E0F101000000000000000000102B7
:1040B00003040607080900000000010203040000D1
:1040C00064656661756C745461736B00EC40000844
:1040D000000000209C0000006C01000888410008DE
:1040E0009C000020AC2100008801000800000000B6
:1040F00000000000000000000100000010000000AF
:104100000000000000127A00000000000000000023
:10411000000000000000000000000000000000009F
:10412000000000000000000000000000000000008F
:10413000000000000000000000000000000000007F
:10414000000000000000000000000000000000006F
:10415000000000000000000000000000000000005F
:10416000000000000000000000000000000000004F
:10417000000000000000000000000000000000003F
:08418000AAAAAAAA000000008F
:0400000508000131BD
:00000001FF
