:020000040800F2
:10000000105E00206D03000857600008A54D000831
:10001000295E0008BD2600082575000800000000C4
:10002000000000000000000000000000D5020008F1
:10003000F12A00080000000019030008816D000883
:100040008703000887030008870300088703000868
:100050008703000887030008870300088703000858
:100060008703000887030008870300088703000848
:100070008703000887030008870300088703000838
:10008000352A0008412A0008870300088703000872
:100090008703000887030008870300088703000818
:1000A0008703000887030008870300088703000808
:1000B00087030008870300088703000887030008F8
:1000C00087030008870300088703000887030008E8
:1000D00087030008870300081975000887030008D4
:1000E00087030008870300088703000887030008C8
:1000F00087030008870300088703000887030008B8
:1001000087030008870300088703000887030008A7
:100110008703000887030008870300088703000897
:100120008703000887030008870300088703000887
:100130008703000887030008870300088703000877
:100140008703000887030008870300088703000867
:100150008703000887030008870300088703000857
:100160008703000887030008870300088703000847
:1001700087030008870300088703000800000000C9
:10018000870300088703000800F002F800F092F8E7
:100190000AA090E8000C82448344AAF10107DA45E2
:1001A00001D100F087F8AFF2090EBAE80F0013F0A2
:1001B000010F18BFFB1A43F00103184784A9000080
:1001C000A4A90000103A24BF78C878C1FAD8520711
:1001D00024BF30C830C144BF04680C6070470000C1
:1001E0000023002400250026103A28BF78C1FBD840
:1001F000520728BF30C148BF0B6070476E2900F01E
:10020000EF84702901F05F80662909F079876529FC
:1002100009F07687672909F07387612909F07287E9
:1002200003681B0A28BF41F08001692900F0BA81E8
:10023000642900F0B781752900F0B4816F2900F0BE
:10024000EC87782901F02B80E92900F08787E429E1
:1002500000F08487F52900F08187EF2900F0E98715
:10026000F82901F02A800368DB0928BF41F08001EA
:10027000632900F00887732900F00D87E32901F056
:100280003F82F32901F04482002070471FB509F036
:1002900032FF01F023F804000020002109F09EFE47
:1002A000401C60600020002109F082FEE0601FBD5C
:1002B00010B510BD01F0C6FA1146FFF7E7FF07F0D1
:1002C00087FA01F0EDFA03B4FFF7F2FF03BC01F087
:1002D00031FB0000224B19680868B0E8F00F80F38A
:1002E0000988BFF36F8F4FF0000080F311884EF044
:1002F0000D0E70470000000006480068006880F39B
:10030000088862B661B6BFF34F8FBFF36F8F00DF0F
:1003100000BF00BF08ED00E0EFF30980BFF36F8F6F
:100320000F4B1A6820E9F00F106008B54FF050002D
:1003300080F31188BFF34F8FBFF36F8F08F05CFE1F
:100340004FF0000080F31188BDE808401968086884
:10035000B0E8F00F80F30988BFF36F8F704700BFDC
:100360009C000020EFF3058070470000094880479B
:1003700009480047FEE7FEE7FEE7FEE7FEE7FEE787
:10038000FEE7FEE7FEE7FEE704480549054A064B9F
:1003900070470000316E00088901000810580020E5
:1003A000105E0020105A0020105A002053EA020C60
:1003B00000F069802DE9F04B4FF00006002B1FBFC5
:1003C000B3FA83F503FA05F424FA05F65E4012BF8A
:1003D0001643B2FA82F502FA05F4C5F120051EBFF4
:1003E00022FA05FC44EA0C04203556EA044C4FEA94
:1003F000144418BF641C4FF000084FF000099042ED
:1004000071EB030C39D3002919BFB1FA81F701FA56
:1004100007F6B0FA80F700FA07F6C7F120071EBF0B
:1004200020FA07FC46EA0C062037B6FBF4FCA7EBE3
:100430000507103F07F01F0BCBF120060CFA0BFB52
:100440002CFA06F644BFB3460026202FA4BF5E4612
:100450004FF0000B5BEA060C08BF4FF0010B19EBE5
:100460000B09ABFB027C48EB0608C01B06FB02CC69
:100470000BFB03CC71EB0C01C1E70B460246414676
:100480004846BDE8F08B13B54FF000004FF0000177
:10049000AFF30080BDE81C40704710B54C1084EAF3
:1004A000530404D54042C1F1000138BF491E1B422C
:1004B00004D55242C3F1000338BF5B1EFFF776FF3D
:1004C00014F0804F04D04042C1F1000138BF491EF2
:1004D00014F0004F04D05242C3F1000338BF5B1E3A
:1004E00010BD00007CB51D4616460C00009001D0E2
:1004F0002044401E074B7B442A4669460190304603
:1005000000F097FD05461CB10020694600F0A4FDEF
:1005100028467CBD690B00000FB47CB50C0009AA0D
:10052000009001D02044401E084B7B446946019056
:10053000089800F07EFD05461CB10020694600F0D9
:100540008BFD28467CBC5DF814FB0000350B0000D9
:1005500070B50C460546012A05D02878800600D5DE
:10056000EA69002302E0012305E05B1C934202D20A
:10057000E05C0028F9D1A869E618C01AA861286AC9
:1005800018442862284600F099FA04E0D5E90121D0
:1005900014F8010B9047B442F8D3284600F0A4FAAF
:1005A00070BD00002DE9F041064600241068752951
:1005B000314616A510D000F0A8FA002802DA404211
:1005C00013A507E031688A0701D512A502E04907A3
:1005D00004D511A5012401E000F0A0FA00210A22AF
:1005E00006F1240709E0B0FBF2FCB0FBF2F302FBDA
:1005F0001C00303078541846491C0028F3D123469B
:100600002A463046BDE8F04100F091BA00000000F3
:100610002D0000002B000000200000002DE9F05FFD
:10062000894604464FF0000ADFF874B1FB44C0F875
:1006300020A02046E1688847002874D0252806D0ED
:10064000D4E901219047206A401C2062F1E700268E
:100650005F462046E16888472028054607DB312DA4
:1006600005D2781910F8200C08B10643F1E7B0075D
:1006700001D526F00406C4F81CA00027C4F818A071
:100680002A2D09D0284607F02FF838B304EB870845
:10069000303DC8F8185019E059F8041B204604EB07
:1006A00087029161E1688847012F054618D1E0690A
:1006B000002820DA26F020061DE0D8F8180000EB0C
:1006C000800005EB40003038C8F818002046E1688B
:1006D0008847054607F008F80028EED1012F0AD018
:1006E0002E2D08D12046E16888477F1C0546022F41
:1006F00046F02006C4DBA069002803DA404246F039
:100700000106A061F00701D026F010066C2D0BD079
:10071000682D09D04C2D39D06A2D35D0742D35D0A7
:100720007A2D33D016E038E0E1682F46204688471E
:10073000B842054609D16C2F26D04FF48060E1689D
:10074000064320468847054604E06C2F1AD04FF434
:10075000807006430DB3A5F14100192802D8203559
:1007600046F400664A462946204626604E46FFF774
:1007700045FD80B101280BD0F61D26F0070000F1E1
:10078000080956E74020E4E78020D8E70020D6E7B4
:1007900006F104094DE7284652E7206ABDE8F09FBC
:1007A000ACA3000040EA010310B59B070FD1042A57
:1007B0000DD310C808C9121F9C42F8D020BA19BA2C
:1007C000884201D9012010BD4FF0FF3010BD1AB191
:1007D000D30703D0521C07E0002010BD10F8013BE6
:1007E00011F8014B1B1B07D110F8013B11F8014B0D
:1007F0001B1B01D1921EF1D1184610BD10B5431C30
:1008000002E010F8011B71B18107FAD14FF00132FB
:1008100002C88C1A8C4314EAC211F9D0C01A0A0615
:1008200003D0C01E10BDC01A10BD0A0401D0801E26
:1008300010BD0902FCD0401E10BD40EA010370B596
:100840009B072ED14FF00136042A2AD308C810C9BD
:100850009D1B9D43121F15EAC61517D0D8B2E1B2F1
:10086000401A50EA056110D198B2A1B2401A50EA7C
:1008700005410AD123F07F4024F07F41401A50EA1D
:10088000052102D1180EA0EB146070BDA342DBD08D
:1008900018BA21BA884201D9012070BD4FF0FF304B
:1008A00070BD0AB9002070BD10F8013B11F8014B72
:1008B00063B1A3420AD1521E08D010F8013B11F8CF
:1008C000014B1BB1A34201D1521EEDD1181B70BDCB
:1008D000032A40F2308010F0030C00F0158011F86C
:1008E000013BBCF1020F624498BF11F801CB00F844
:1008F000013B38BF11F8013BA2F1040298BF00F898
:1009000001CB38BF00F8013B11F0030300F0258054
:10091000083AC0F0088051F8043B083A51F804CB7B
:10092000A0E80810F5E7121D5CBF51F8043B40F841
:10093000043BAFF30080D20724BF11F8013B11F84C
:1009400001CB48BF11F8012B24BF00F8013B00F890
:1009500001CB48BF00F8012B704710B5203AC0F01A
:100960000B80B1E81850203AA0E81850B1E81850B0
:10097000A0E81850BFF4F5AF5FEA027C24BFB1E8ED
:100980001850A0E8185044BF18C918C0BDE810405E
:100990005FEA827C24BF51F8043B40F8043B08BF67
:1009A0007047D20728BF31F8023B48BF11F8012B2E
:1009B00028BF20F8023B48BF00F8012B704702F027
:1009C000FF0343EA032242EA024200F002B84FF07A
:1009D00000020429C0F0128010F0030C00F01B800C
:1009E000CCF1040CBCF1020F18BF00F8012BA8BF1A
:1009F00020F8022BA1EB0C0100F00DB85FEAC17CDE
:100A000024BF00F8012B00F8012B48BF00F8012B90
:100A100070474FF0000200B51346944696462039C1
:100A200022BFA0E80C50A0E80C50B1F12001BFF4A7
:100A3000F7AF090728BFA0E80C5048BF0CC05DF80D
:100A400004EB890028BF40F8042B08BF704748BF5B
:100A500020F8022B11F0804F18BF00F8012B7047CF
:100A600010B5044610F0030F08BF11F0030F40F05B
:100A700015804FF0013E121FC0F20E8051F8043B6A
:100A8000A3EB0E0C2CEA030C1CEACE1C08BF40F8AA
:100A9000043BF0D0A1F1040102F10402521E08DB74
:100AA00011F8013B002B00F8013BF7D11146FFF78D
:100AB0008EFF204610BD70477047704770B50446E2
:100AC00085690068C10601D5302600E02026C007F0
:100AD00007D070BDD4E9012130469047206A401C00
:100AE00020626D1EF6D570BD70B50446856900782C
:100AF000C00707D170BDD4E9012120209047206AAA
:100B0000401C20626D1EF6D570BD09684A0501D5EE
:100B100040B27047C905FCD500B2704709684A0564
:100B200001D5C0B27047C905FCD580B270472DE928
:100B3000F0470D4699469246044600F124080168A4
:100B4000880604D5E06921F01001216000E0012051
:100B5000A84201DD471B00E00027A1697A1902EBDA
:100B60000900081AA0612078C00602D42046FFF7C9
:100B7000A5FF002608E0D4E901211AF806009047F5
:100B8000206A401C761C20624E45F4DB2078C006AB
:100B90000AD52046FFF792FF06E0D4E90121302074
:100BA0009047206A401C2062381EA7F10107F4DC40
:100BB00007E0D4E9012118F805009047206A401C9D
:100BC0002062281EA5F10105F3DC2046FFF78CFF0B
:100BD0002078000602D50220BDE8F0870120FBE75F
:100BE00011680268006A530501D508700AE0D30550
:100BF00001D5088006E0130603D5C217C1E900023B
:100C000000E008600120704770472DE9FF4F0C4657
:100C10001E464FF0FF378BB0D2E90001DDF860804F
:100C20000A908A46C1F30A5505B93D460021084697
:100C30004FF00000BAF1000F00F4400005DA00EBBD
:100C400080004FF4400101EA50004FEA9059B9F199
:100C5000010F00DDB9460A9850EA4A000ED044F66A
:100C60001050A5F2FF3545432F14B8F1000F1ED0E8
:100C70007542291E1EDDC9F100021CE0B8F1010F0A
:100C80004FF0000001D0302103E0F24305E0215491
:100C9000401CB042FBDB30460022002121540B995E
:100CA000C1F80880C1E900200FB0BDE8F08FBD1B7E
:100CB0006D1CDEE74A4600DA694206A800F02CFD0A
:100CC00006AB93E8070003AB83E8070050460A9998
:100CD00000F037FE8DE80700A0F500501F380090A7
:100CE0000398002D0ADD42F21F014A460844002302
:100CF00003A90390684601F0A0F809E0A0F50050B0
:100D00004A461F38002303A90390684601F0AAF859
:100D10008DE807000004000C03D04FF0FF304108BD
:100D200000E01046B8F1000F03D0002200921546F3
:100D30001EE0751E05D400F0D5FA303262556D1EE6
:100D4000F9D5B3460122084302D000227F1C04E0FB
:100D50002078302801D100227F1E002A099784D0F4
:100D60001DE0112D07DA00F0BDFA303262556D1C1E
:100D700050EA0102F5D1084302D00098C8B10EE054
:100D80000021681E05E0235C625C63542254401E0F
:100D9000491C8142F7DBAB46A81B401E099000208E
:100DA00004F80B000B98099AC0F80880C0E9002BE2
:100DB0007AE711264FF0000857E72DE9F04F8846F3
:100DC0000446D21D22F0070191B0D1E90001CDE91E
:100DD0000A0106F061FC02460B98C00F01D02D20DD
:100DE00007E02068810701D52B2002E0202101EADD
:100DF000C000032A099001D0072A05DB03464146BB
:100E0000204600F033FC0BE12078800601D5E06934
:100E100000E00620B8F1650F814606D0B8F1660FF4
:100E200018D0B8F1670F70D131E00020B9F1110F7F
:100E3000009001DB112301E009F101030AAA01A9D5
:100E40000CA8FFF7E2FEDDE90C70002609F10105B0
:100E5000834647E001204B4600904FF000470AAA26
:100E600001A90CA8FFF7D1FEDDE90DB00C995D4694
:100E7000002610B909F101000D18B9EB050003D4E3
:100E8000C0F1FF3609F10105A5EB09002BE0B9F12E
:100E9000010F01DA4FF001090020B9F1110F0090A4
:100EA000484601DD112300E003460AAA01A90CA867
:100EB000FFF7ABFEDDE90C704D4600268346207837
:100EC00000070AD4AB4500DA5D4601A8012D04DD18
:100ED000411911F8011C302907D04F4502DA17F1EA
:100EE000040F04DA012082460FE06D1EEEE7002FAA
:100EF00002DCED1B3E4403E0781CA84200DD7D1CB3
:100F0000B81B00F1010A4FF000472078000703D416
:100F1000AA4501DB4FF0FF3A0021B7F1004F0DF178
:100F200043088DF8431024D002202B23002F01DA30
:100F30007F422D230A21021EA0F1010000DC5FB1D7
:100F400097FBF1FC97FBF1F201FB1C7C17460CF1BF
:100F5000300C08F801CDEEE7A8F1010003702188FC
:100F6000090501D5452100E06521A0F1010800F83F
:100F7000011C09980FA9A1EB0807FF1D00B1012072
:100F8000411901EBEA70A1693844081A401EA061BA
:100F90002078C00602D42046FFF790FD099828B1BA
:100FA000D4E901219047206A401C20622078C006C5
:100FB00022D52046FFF782FD1EE0002E04DBB3455C
:100FC00002DD01A8805D00E03020D4E901219047D6
:100FD000206A401C2062761CAAF101005FEA000A28
:100FE0000AD100F07BF9C0680168405CD4E90121B6
:100FF0009047206A401C2062281EA5F10105DCDC18
:1010000007E0D4E9012118F8010B9047206A401C41
:101010002062381EA7F10107F3DC2046FFF764FDCC
:10102000032011B041E6000001694A1C0261087802
:10103000704700B58FB0CDE9013100210591054918
:101040007944CDE9031011466846FFF7E7FA0FB07F
:1010500000BD0000E5FFFFFF0A6802F8010B0A600F
:101060007047D1E900239A4202D2531C0B601070E2
:10107000704710B5436913B1AFF3008001E0FFF78B
:1010800067FA012010BD127800F124010A700022D5
:101090004A700122EDE711684FF0FF32E9E70000E6
:1010A0002DE9FF5F15468A460446DFF8AC80F84418
:1010B0000027D8E900103E46CDE9001010E03AF8CC
:1010C00016106A4602A800F099FB411C07D021784F
:1010D000890603D5E269391891420DD80744761C78
:1010E0002078800602D5E069B84205DDAE42E6DB35
:1010F0003AF816000028E2D1A069C01BA061204682
:10110000FFF7DCFCD8E90010CDE90010002017E063
:101110003AF818106A4602A800F070FBB0F1FF3FE1
:1011200081460BD000250DF1080B05E0D4E9012123
:101130001BF8050090476D1C4D45F7D308F10100E1
:10114000B0428046E4DB206A384420622046FFF744
:10115000CBFCBDE8FF9F00003E9900002DE9F04167
:101160008046D21D22F007020025D2E90002F529AF
:1011700015A614D0011E72F1000106DA0023D0EB8F
:10118000030063EB020211A608E0D8F800108B07F9
:1011900001D50FA602E0490701D50EA6012511468B
:1011A000002408F1240704E000F09CF830323A559E
:1011B000641C50EA0102F7D12B46324621464046D4
:1011C000BDE8F041FFF7B3BC000000002D000000B7
:1011D0002B0000002000000030B4002100F12404A6
:1011E00008E002F00705D208303542EA4372DB0816
:1011F0006554491C52EA0305F3D10468002310A288
:10120000250707D5A40600D421B1C46901230DA286
:10121000641EC46130BCFFF78ABC10B50446214689
:101220001068FFF77BFC02462046BDE81040002313
:10123000D2E7D21D22F00701D1E90023CCE700005C
:101240000000000030000000F0B40D4601880905E0
:1012500002D5214C7C4402E01F4C7C440E3400211A
:1012600000F1240608E002F00F071209E75D42EAE8
:1012700003721B097754491C52EA0307F3D1027821
:101280000023120704D5702D06D009B102231134B2
:101290002246F0BCFFF74BBC01231034F8E770B5D1
:1012A00004460D4621461068FFF738FC02462946E1
:1012B0002046BDE870400023C6E7D21D22F0070398
:1012C000D3E90023C0E70368126843F020030360FA
:1012D0000823C3610023B7E7A097000000487047C8
:1012E000CC57002030B5B0F10A024FEA900E71F1F0
:1012F00000034EEA817EB0EB0E0061EB91014FEAF4
:10130000101E4EEA017E10EB0E0041EB11114FEA68
:10131000102E4EEA016E10EB0E0041EB11214FEA48
:10132000104E4EEA014E10EB0E0041EB11414018F9
:1013300041F100014FEAD00040EA41704FEAD1018B
:1013400010EB80054FEA810444EA907444EB0104F9
:101350006D1944EB0404521BA3414FF0000348BF36
:101360000A3200D530BD401C41F1000130BD000003
:101370002DE9F04F04460D46D21D22F0070089B03A
:10138000D0E900974846394606F086F90246F80F3C
:1013900001D02D2307E02068810701D52B2302E02F
:1013A000202101EAC0038DF820300BB1012000E0BC
:1013B0000020032A824601D0072A04DB2946204662
:1013C00000F054F93FE12078800601D40D2500E0BB
:1013D000E569C7F30A560D2D49DA00214FEA175B7C
:1013E00008464FF00000002F00F4400007DA00EB41
:1013F00080004FF4400100EBD07001EA60008115DD
:10140000012901DD4FF0FF3100224FEA850CBCF1CC
:10141000180F06D31346ACF118004FF08052C240AB
:1014200003E04FF4801323FA0CF30CF10C0CBCF125
:10143000200F04D3ACF1200C09FA0CF001E007FAFC
:101440000CF000294FF0004801DD18B90FE00ED173
:1014500040450CD319EB02095F4121B9404502D147
:101460009F4329EA0209BBEB175F00D0761C208856
:10147000000502D57B48784402E07A487844193860
:1014800008AA302302F80A30037C0AF10101002E79
:101490000AF1020A53546A4602DC4FF0300101E0BF
:1014A0004FF031014FF001088DF8001002D0A6F284
:1014B000FF3603E059EA470100D06B4E002D02DCF5
:1014C0002178090704D54FF002082E218DF801106C
:1014D000C44600210BE0C7F303433F01C35C491C32
:1014E0006D1E02F80830052908F1010801DA002D07
:1014F000F1DC00210CE000EB1973491C1B786D1E18
:10150000082902F808304FEA091908F1010801DA40
:10151000002DF0DC21688B0602D516E0A8F1010849
:10152000E04505DD02EB080313F8013C302BF5D054
:10153000B8F1000F09DD02EB080313F8013C2E2B74
:1015400003D1090701D4A8F10108002D05DD3E21D2
:1015500002F808106D1E08F10108407C002E02F808
:10156000080008F1010804DA2D20764202F808008C
:1015700002E02B2002F808000A214FF47A7086421C
:1015800008F101080BDB96FBF0F3303302F808306A
:1015900096FBF0F308F1010800FB136601E0642EEE
:1015A0000CDB642096FBF0F3303302F8083096FB36
:1015B000F0F308F1010800FB136601E00A2E06DBD8
:1015C00096FBF1F0303002F8080008F1010896FBB4
:1015D000F1F001FB1060303002F80800A16908F159
:1015E000010808EB050202EB0A00081AA061207846
:1015F000C00602D42046FFF761FA216A08AE01EB6B
:101600000A00206204E0D4E9012116F8010B90479A
:10161000BAF1010AF7D22078C00602D52046FFF7BA
:101620004DFA6E4609E016F8010B3E280FD0D4E9BA
:1016300001219047206A401C2062B8F10108F2D2D3
:101640002046FFF751FA09B00320BDE8F08F206A69
:101650002844206203E0D4E90121302090476D1E28
:10166000EBD3F8E7B995000002FCFFFF2DE9F0414C
:101670001F46044603260168072A01F4006004DBC4
:1016800008B116A505E016A503E008B115A500E010
:1016900015A521F010002060A069C01EA0610FB147
:1016A000401EA0612046FFF709FA4FB1D4E901219D
:1016B00038469047206A401C2062C01C206206E029
:1016C000206AFAE7D4E9012115F8010B9047761E4C
:1016D000F8D22046FFF708FABDE8F0814E414E00EF
:1016E0006E616E00494E4600696E660010B5436932
:1016F00013B1AFF3008001E0FFF7D2FC012010BD71
:10170000128800F1240182840022C2840122EDE7C4
:1017100011684FF0FF32E9E72DE9F04781461646A0
:101720008AB0354878440DC88DE80D0032487844B9
:10173000801C03AC0DC884E80D0041F69B300844C2
:10174000372190FBF1F290FBF1F5A5F1800501FB4B
:1017500012041B3C02D56442012000E00020DFF8A7
:1017600098A080460027FA44AAF1BE0A0EE0E007DE
:101770000AD03246684607EB470101230AEB810194
:1017800000F070FB8DE8070064107F1C002CEED188
:10179000194F7F44AE3F19E0E80715D007EB04105E
:1017A0000DF1180A90E80E008AE80E00C068F042B9
:1017B00001D1981908903246012306A903A800F028
:1017C00051FB03AB83E807006D10641C002DE3D1CF
:1017D0004FF0010332466946B8F1000F03A802D06A
:1017E00000F02BFB01E000F03DFBC9E90001C9F866
:1017F00008200AB0BDE8F0879C93000070B516463B
:101800000C46054600F044F8036893F801010128EE
:1018100006D0FF2C0FD8185D68B101202C7070BD68
:10182000D3F807013246214603F207130344284642
:10183000BDE8704018474FF0FF3070BD004870475A
:10184000AC5700207546FFF7F9FFAE460500694624
:10185000534620F00700854618B020B5FEF794FDEA
:10186000BDE820404FF000064FF000074FF00008A1
:101870004FF0000B21F00701AC46ACE8C009ACE822
:10188000C009ACE8C009ACE8C0098D46704700004B
:1018900010B5FFF723FD001D10BD00BF41870000FC
:1018A00010B50446AFF300802046BDE81040FEF7B7
:1018B0000ABD00004FF0013C50F8042B51F8043BE6
:1018C0009A4221D1A2EB0C03934313EACC1317D114
:1018D00050F8042B51F8043B9A4215D1A2EB0C03AB
:1018E000934313EACC130BD150F8042B51F8043B6B
:1018F0009A4209D1A2EB0C03934313EACC13DBD039
:101900004FF00000704700BFD01A01BAB1FA81F160
:1019100001F0180122FA01F0CB40C1F12001DBB245
:10192000C0B2C01A2CFA01F3D11A914311EAC311C3
:10193000E6D1704701491820ABBEFEE72600020041
:1019400070475FEA400C08BF91F0000F4FEA8C230C
:101950004FEAC12243EA51514FEA1C5018BF00F52B
:10196000F0404FEA300018BF41F000415FEA6C5C84
:1019700000F02980BCF1FF3F08BF40F08040704775
:10198000130C06BF12044FF0100C4FF0000C130E96
:1019900004BF12020CF1080C130F04BF12010CF16A
:1019A000040C930F04BF92000CF1020CD30F04BF80
:1019B00052000CF1010C11464FF00002A0F11F0083
:1019C000A0EB0C00704711F0004F08BF704731F0DA
:1019D00000413FF4D5AF0B0C06BF09044FF0100CCB
:1019E0004FF0000C0B0E04BF09020CF1080C0B0F9A
:1019F00004BF09010CF1040C8B0F04BF89000CF12A
:101A0000020CCB0F04BF49000CF1010CCCF12003F8
:101A1000A0EB0C0022FA03F302FA0CF241EA0301F4
:101A200000F10100704720F07F4C80EA030023F0B2
:101A30007F47ACEB070303F57C5300F0004003F154
:101A4000FF032DE980494FEA154B09B44FEA1443CF
:101A500025EA0B4E24EA03480FF2042606EB13276F
:101A600049083E785FEA320203FB0667C7F50007C4
:101A700007FB06F64FEA54374FEAD64606F1020650
:101A800007FB066CCCF1005C4FEA1C472CEA074CC4
:101A900007FB06F40CFB06F504EB15464FEA961619
:101AA00034BF00204FF000404FEAD13706FB07FC5F
:101AB0004FEA1C4C0CFB0BF7D21B03FB0CF761EB42
:101AC00007010CFB0EF7B0EB074072EB17420CFB63
:101AD00008F734BFA2EB0742B2EB074261EB1741B4
:101AE0004FEA0C444FEA910706FB07FC4FEA1C4CF7
:101AF0000CFB0BF7B0EBC74072EB573203FB0CF754
:101B000034BFA2EBC742B2EBC74261EB57310CFBCB
:101B10000EF7B0EBC70072EB57720CFB08F734BF3F
:101B2000A2EBC702B2EBC70261EB5771039F4FEA0A
:101B3000816141EA921104EBCC044FEAD1374FEABC
:101B4000826206FB07FC42EA90124FEA80604FEA8D
:101B50001C4C0CFB0BF7D21B03FB0CF761EB0701D2
:101B60000CFB0EF7B0EB074072EB17420CFB08F7CB
:101B700034BFA2EB0742B2EB074261EB17414FEAD9
:101B80008C554FEA910704EB9C2406FB07FC4FEAB7
:101B90001C4C0CFB0BF7B0EBC74072EB573203FB4E
:101BA0000CF734BFA2EBC742B2EBC74261EB57312F
:101BB0000CFB0EF7B0EBC70072EB57720CFB08F78B
:101BC00034BFA2EBC702B2EBC70261EB577115EB52
:101BD0004C254FEA816141EA92114FEA82624FEA55
:101BE000D13742EA901206FB07FC44F100044FEAA9
:101BF00080604FEA1C4C0CFB0BF7D21B03FB0CF76D
:101C000061EB07010CFB0EF7B0EB074072EB1742DC
:101C10000CFB08F734BFA2EB0742B2EB074261EBC3
:101C2000174115EB1C154FEA813141EA92414FEA09
:101C3000823242EA90424FEA80304FEA0C7644F119
:101C4000000448EA03434EEA0B484FF0000EB2EBA3
:101C5000080C71EB030724BF624639464EEB0E0EAB
:101C60004FF0000B0018524149414BEB0B0BB2EB0C
:101C7000080C71EB03077BF1000B24BF6246394669
:101C80004EEB0E0E4FF0000B0018524149414BEB4A
:101C90000B0BB2EB080C71EB03077BF1000B24BFBD
:101CA000624639464EEB0E0E51EA020718BF46F067
:101CB000010616EB0E7655F1000254F1000103D532
:101CC000BDE88901BDE80088BDE88901BDE800489C
:101CD000B619524141EB0101A3F101037047808025
:101CE0007F7E7D7C7B7A7978777676757473727176
:101CF00071706F6E6E6D6C6C6B6A6A69686867662E
:101D000066656464636362616160605F5F5E5E5DBF
:101D10005D5C5C5B5B5A5A59595858575756565533
:101D200055555454535352525251515050504F4F95
:101D30004F4E4E4D4D4D4C4C4C4B4B4B4A4A4A49E5
:101D40004949484848474747474646464545454428
:101D50004444444343434342424242414141002BB5
:101D60009C4630D477002BD01CB54FEA370703B41C
:101D70004FF010004FF01001BAF1000F06D0BCF187
:101D8000000FDCBF40F0080040F008014FF00000F9
:101D90000FBCBDE810400BF1010BBBF1010F08BFF8
:101DA0005FEA170722BF12F1010211F101014FF0A2
:101DB000004143F1000300F0004043EA0000704797
:101DC000F9D35708D0E746EA064613F1400F4FEA29
:101DD00016461FDD13F1200FDFBF16430A46002110
:101DE00020335B42BED0C3F1200746EA064602FA22
:101DF00007F74FEA164646EA0706C3F1200722FA1C
:101E000003F201FA07F721FA03F14FF0000342EA67
:101E10000702A7E746EA020646EA06464FEA1646E2
:101E200046EA0106BCBF46EA0646360C4FF0000300
:101E30004FF000024FF0000194E72DE9804C9A46E4
:101E4000934670B491E8380007C831EA400C48BFA7
:101E500034EA430C03D5FFF7E6FDFFF780FFF0BC43
:101E6000BDE8008C2DE9804C9A46934670B491E809
:101E7000380007C810F0804F08BF13F0804F03D11F
:101E800000F005F8FFF76BFFF0BCBDE8008C20F018
:101E90007F4780EA030023F07F4C07EB0C03A3F598
:101EA0007C5300F00040A3F1FE0392F0000F00F01D
:101EB000B38095F0000F00F077802DE901494FEADB
:101EC00011404FEA144621EA004800FB06FC24EAD0
:101ED000064708FB06F607FB08F800FB07F718EBB8
:101EE00006484CEB164C4FEA124B18EB07484FEAEA
:101EF00015464CEB174022EA0B4E0BFB06FC25EA7D
:101F000006470EFB06F607FB0EFE0BFB07F71EEB64
:101F1000064E4CEB164C4FF000061EEB074E4CEBFA
:101F2000174B18EB0B0840F1000018EB0E0B58EBA9
:101F3000000840F100008F1A4FF000013CBFC94378
:101F4000661B14BFB5EB040C00213CBFC943F61B54
:101F50004FEA17444EEA8E0E27EA04454FEA1C4723
:101F600004FB07622CEA074C05FB07F70CFB05F6A0
:101F700004FB0CFC16EB074642EB174216EB0C4633
:101F800042EB1C421BEB060658EB0202414146EABB
:101F90009E0601D5BDE80189B619524141EB010108
:101FA000A3F10103BDE801894FEA14454FEA114747
:101FB00024EA054621EA074C05FB07F406FB07F770
:101FC0000CFB06F105FB0CFC11EB074144EB17443D
:101FD0004FEA124711EB0C4144EB1C4422EA074C38
:101FE00005FB07F206FB07F70CFB06F605FB0CFCEE
:101FF00016EB074642EB174216EB0C4642EB1C452C
:102000006A1854F1000148BF7047B619524141EBBC
:102010000101A3F10103704795F0000F37D04FEA9B
:1020200011424FEA144721EA024624EA074C02FB18
:1020300007F106FB07F70CFB06F402FB0CFC14EBA4
:10204000074441EB17414FEA154714EB0C4441EBB1
:102050001C4125EA074C02FB07F506FB07F70CFBC2
:1020600006F602FB0CFC16EB074645EB174516EB94
:102070000C4645EB1C42121951F1000148BF704754
:10208000B619524141EB0101A3F1010370474FEA38
:1020900014454FEA114724EA054621EA074C05FB9F
:1020A00007F106FB07F70CFB06F24FF0000605FBF5
:1020B0000CFC12EB074241EB174112EB0C4251EBC7
:1020C0001C4148BF7047921841EB0101A3F1010385
:1020D00070470000464910B54A6822F440324A6011
:1020E0004A6843681A434A6001684A6822F4807269
:1020F0004A6001684A68036942EA03224A6001684B
:102100004A6822F040724A6001684A6883681A434C
:102110004A6001688A6822F400628A6001688A68FD
:10212000C3681A438A60816A6FF07062D1420168A5
:102130008A6822F070628A6001688A680CD0836ABB
:102140001A438A6001688A6822F040528A600168F6
:102150008A68C36A1A4301E022F040528A6001682B
:102160008A6822F002028A6001688A68037E42EA75
:1021700043028A6090F82010002901684A680FD055
:1021800042F400624A6001684A6822F460424A6090
:1021900001684A68174C436A04EB43331A4301E071
:1021A00022F400624A600168CA6A22F47002CA62BC
:1021B0000168CA6A838B104C04EB03531A43CA624A
:1021C00001688A6822F400728A6001688A6890F85F
:1021D000303042EA43228A6001688A6822F48062D1
:1021E0008A6001688A68406942EA8020886010BD80
:1021F0000023014000E0FFFF0000F0FF1FB50021B9
:10220000009001200291039101906946014800F07D
:102210008BFD1FBDEC03002010EE100A0B49884215
:1022200002DC9FED0B0A704710EE100A0949DFED42
:102230000A0A884202DBB0EE600A7047DFED071A37
:1022400080EE211A21EE200A704700006F12833AB7
:10225000000000003333534000007A4433335340CE
:1022600010EE100A0D49884202DC9FED0D0A7047FE
:1022700010EE100A0B49DFED0C0A884202DBB0EECB
:10228000600A70479FED091ADFED091A30EE411A16
:1022900081EE210A20EE200A704700009A99193F2A
:1022A00000000000333333400000FA439A99193F8D
:1022B000CCCC0C4000EE100ADFED050A9FED051AAC
:1022C000B8EE400A60EE200A80EE810A70470000F6
:1022D0003333534000F07F4508B501226946D020D2
:1022E00000F0CCF9002819D100F01CF8002815D115
:1022F0000121F22000F0D0F900280FD12721F4208D
:1023000000F0CAF9002809D1A021F52000F0C4F995
:10231000002803D1024901200873002008BD0000F5
:10232000C802002010B588B01A226946882000F043
:10233000A5F9002847D1254CBDF8000007222080D0
:10234000BDF802006080BDF80400A080BDF8060062
:10235000E080BDF808002081BDF80A006081BDF86A
:102360000C00A081BDF80E00E081BDF810002082B5
:10237000BDF812006082BDF81400A082BDF81600FE
:10238000E0829DF8190020766946E12000F076F998
:10239000002818D1BDF8000060839DF80200207766
:1023A0009DF804009DF80320014662F31F11E183AC
:1023B0009DF80510090141EA101020849DF80600DF
:1023C00084F82200002008B010BD0000A002002008
:1023D0002DE9F74FA44884B0007B00287ED0082266
:1023E0006946F72000F04AF9002878D19DF80000EE
:1023F0009D4C01039DF80100283C41EA00109DF826
:10240000021040EA111B9DF8030001039DF804002F
:1024100041EA00109DF8051040EA1111BDF80600D0
:1024200040BA03902288C810A0EB4200C2EB2111F1
:10243000B4F902304943B4F9042043430913D812D4
:102440004A4300EBA23000EB800180310912606248
:1024500002918649C2178146411842F1FF30A1FB23
:102460000123B4F9105000FB0133A2FB05C701FBA7
:10247000003A0AFB0573EE1702FB0638B4F90E307A
:10248000A3FB0167DD1705FB017503FB00535B042C
:10249000750443EAD63315EB0C0543EB080315F13D
:1024A000000EB4F90A50B4F90C60A2FB057C43EBB2
:1024B000C6080AFB05C34FEAE57602FB0632B4F90B
:1024C00008304FEA1725A3FB017C4FEAE37606FBB1
:1024D00001C103FB001045EA026501E093E093E0CF
:1024E0004FEA00314FEA073041EA1751281841EB13
:1024F0002222001C42F50043E2880021A0FB026575
:1025000003FB025200FB01204210C31752EA0300F2
:102510007DD04FF480160020DBEB060160EBEB7002
:102520004FEAC07545EA51054FEAC171B1EB0E069D
:1025300040F63541A6FB010C65EB080505FB01C122
:10254000002706FB0711FDF7A8FFB4F91630420B70
:1025500042EAC142A3FB027CDD1705FB02C54E1314
:1025600003FB0653A7FB025C03FB02C207FB062327
:102570006A0E42EAC3124FEA636CB4F91430A3FB4B
:102580000067DD1705FB007503FB0155F30C801890
:1025900043EA453341EB0C01C01841EBE5414FEAFA
:1025A000102040EA0160B4F912104FEA01114018FE
:1025B000039AE38B4FEA8232A2EB0352B4F9203044
:1025C000A9F5963103FB1121A1F580414FEAE131D4
:1025D0004FF4405202EBC131B4F91A2002F5004227
:1025E00001FB02F14FEAA1414FEAE13212FB02F294
:1025F00094F922304FEAE21202FB1311091108D5B7
:1026000000210BE003E0012007B0BDE8F08F0020BF
:10261000CEE74FF0C852914200DD1146029ADFED3D
:10262000140A00EE102A0913049AB8EEC00A80EECC
:10263000201A00EE101ADFED0F0AB8EEC00A20EEE5
:10264000200ADFED0D0A82ED001A059981ED000ADE
:1026500000EE100A0698B8EEC00A80EE201A80ED4F
:10266000001A0020D0E70000C8020020000CFEFF86
:102670000000C8420000803A0000C8460EB54FF086
:10268000FF338DE80E0002460123EC21014801F0E2
:102690009FF90EBD3404002003B583B04FF0FF3323
:1026A000012204A98DE80E0013460246EC210248DF
:1026B00001F090FA05B000BD34040020FEE70000F0
:1026C00038B504464FF41271FEF7A3F901F0B1F8E2
:1026D000C4F8400201F0ADF8054600F027F918B142
:1026E0003DA00023009002E03DA0022300903FA205
:1026F0000021204605F05EF800F0E8F818B13EA091
:102700000023009002E040A00223009040A201219B
:10271000204605F04FF800F025F918B13DA0002340
:10272000009002E03FA00223009041A20221204637
:1027300005F040F800F052F918B13EA000230090D7
:1027400002E03EA0022300903FA20321204605F0B4
:1027500031F800F023F918B13DA00023009002E009
:102760003DA0022300903FA20421204605F022F85C
:1027700000F0C0F818B13DA00023009002E03DA099
:10278000022300903FA20521204605F013F800F037
:102790001AF918B13DA00023009002E03DA00223E9
:1027A00000903FA20621204605F004F800F0AEF8A4
:1027B00018B13DA00023009002E03FA0022300904A
:1027C00040A20721204604F0F5FF01F032F8401B3B
:1027D000C4F8440238BD000069643D3078363000EA
:1027E0006E6F206465766963650000004932435F5F
:1027F000424D453238300000636F6E766572736902
:102800006F6E206F6B00000074696D656F757400EA
:1028100041444300636F6C6F72207465737420646D
:102820006F6E650066736D63206572726F72000073
:102830004C4344007478206F6B000000747820666D
:1028400061696C656400000055415254000000004D
:1028500070776D206F6B000070776D206572726FFE
:10286000720000004D4F544F520000007277206FED
:102870006B000000726561646261636B2066616970
:102880006C00000046534D43000000006461746119
:10289000206F6B0072656164206661696C000000E6
:1028A00053454E534F520000706172616D2061724A
:1028B0006561206F6B000000756E657870656374EC
:1028C00065640000464C41534800000010B50848BC
:1028D00000F084FB3221064800F02AFB044604483D
:1028E00000F0FAFB0CB1002010BD012010BD00006B
:1028F000EC0300204FF0C0414AF6552008800988BB
:10290000814201D1012070470020704705480068CE
:10291000411C02D00449884201D1012070470020A7
:102920007047000000F8070853524E451FB50020BD
:102930008DF80C000121642203A88DE807000B46E6
:10294000D022EC21064801F043F818B99DF80C009C
:10295000602802D0002004B010BD0120FBE7000079
:102960003404002010B502F01FFD4FF4784002F04F
:1029700039FC642000F09CFD4FF4FC6002F032FC56
:10298000642000F095FD1F2002F02CFC642000F074
:102990008FFD002002F026FC012010BD10B503F0D1
:1029A00045FA322003F07AFAC82000F081FD03F0E6
:1029B0000DFB322003F0BEFAC82000F079FD03F0D1
:1029C00008FB012010BD0EB502AA01A96846FFF759
:1029D000FFFC08B100200EBD01200EBD1FB50FA3E6
:1029E0000FCB8DE80F006846FDF708FF82B2642325
:1029F00069460E4802F0FCF804466846FDF7FEFE04
:102A000082B2642369460A4802F0F2F8044302D015
:102A1000002004B010BD0120FBE7000055415254D6
:102A20005F544553545F4F4B0D0A000030050020A2
:102A300078050020014800F0C9BB0000C005002057
:102A4000014800F0C3BB00002006002001681823E5
:102A5000CAB2103AB2FBF3F2054B6FF30901032A35
:102A60009B5CC36500D9091D81650846704700005D
:102A7000BCA9000810B5014600208B698A6A4FF096
:102A8000C07453B1B3F5005F15D072B1012A0CD0F8
:102A9000022A0AD0032A09D104E01AB1012A06D079
:102AA000022A03D1C96AC90100D5012010BDC96A33
:102AB000A142FAD010BD002AF7D0012AF2D0022A92
:102AC000F3D0032AF3D010BD30B50468256825F48F
:102AD00080252560046863608368402B036803D009
:102AE00099600068C26030BD9A600068C16030BD06
:102AF000704772B6FEE70000002229B101291AD002
:102B000002291BD04FF440720E490B6823F4407326
:102B10000B600B6813430B600A6822F078020A60AE
:102B20000A68022303EBC00002430A60086840F40D
:102B30008030086070474FF48072E5E74FF4007210
:102B4000E2E70000103C02401348016889050FD5F8
:102B5000016821F400710160016841F400610160C5
:102B6000016821F400610160016841F400710160B5
:102B7000016849050FD5016821F480610160016891
:102B800041F480510160016821F4805101600168C5
:102B900041F4806101607047003C024008490A68C6
:102BA00022F440720A600A6842F004020A600A686D
:102BB0004FF4803343EA002002430A60704700006C
:102BC000103C0240064A136823F4407313601368F4
:102BD0001360136843F00103136001707047000035
:102BE000103C0240094910B50C6824F440740C6094
:102BF0000C6844F440740C600C6844F001040C60F0
:102C00000260BFF36F8F436010BD0000103C0240B4
:102C1000074A136823F440731360136843F4807306
:102C20001360136843F001031360018070470000D4
:102C3000103C0240074A136823F440731360136882
:102C400043F400731360136843F0010313600160E1
:102C500070470000103C024017490868C206174838
:102C600005D5C26942F01002C26110220A600A68EA
:102C7000920605D5C26942F00802C26120220A60AC
:102C80000A68520605D5C26942F00402C2614022B8
:102C90000A600A68120605D5C26942F00202C261E2
:102CA00080220A600A68920705D5C26942F02002B4
:102CB000C2610220086070470C3C0240780000208E
:102CC00070B5114904460020C86100F0B2FD064607
:102CD0000E4D09E0601C07D024B100F0AAFD801B56
:102CE000A04201D9032070BD2868C003F2D428682F
:102CF000C00701D001202860286810F0F200F2D04F
:102D0000FFF7AAFF012070BD780000200C3C0240B4
:102D100001480078704700005800002001484068D2
:102D2000704700005800002078B50024009490F807
:102D30003C20012A19D0012280F83C200A68072390
:102D40000568092A13D9EE680A3A02EB4202934059
:102D50009E43EE600B788A680A3B03EB43039A407C
:102D60000368DD682A43DA6010E0022078BD2E692E
:102D700002EB420293409E432E610B788A6803EB7C
:102D800043039A4003681D692A431A614A681F2356
:102D9000072A13D205686E6B521E02EB8202934023
:102DA0009E436E630B790A885B1E92B203EB83032A
:102DB0009A4003685D6B2A435A6327E005680D2A31
:102DC00012D22E6BD21F02EB820293409E432E63DF
:102DD0000B790A88DB1F92B203EB83039A400368E6
:102DE0001D6B2A431A6311E0EE6A0D3A02EB820270
:102DF00093409E43EE620B790A880D3B92B203EB3F
:102E000083039A400368DD6A2A43DA62164B056839
:102E1000144A9D4206D10D68122D03D1556845F420
:102E20008005556005689D4218D10B68102B01D0B4
:102E3000112B13D1536843F4000353600968102920
:102E40000CD10A490A4A0968B1FBF2F101EB810190
:102E5000490000E0491E00910029FBD180F83C4068
:102E6000002078BD00230140002001409800002090
:102E700040420F000068C06C704770B504004FF00E
:102E8000000503D0206C002610B107E0012070BDC2
:102E9000204600F01DF8666484F83C60206CC00693
:102EA00010D4206C20F4885040F0020020642046AA
:102EB000FFF710F96664206C20F0020040F001007A
:102EC000206400E0012584F83C60284670BD0000C5
:102ED00010B586B0044614216846FDF79AFD1149E5
:102EE000206888421CD110480021026842F4807298
:102EF0000260006800F4807005900B481438026886
:102F000042F004020260006800F004000590052011
:102F100000900320CDE901016946044800F08CFBD4
:102F200006B010BD002001404438024000080240B5
:102F30002DE9F041044600680D4681684FF0000716
:102F400049050BD58068C00508D5206C40F02000ED
:102F5000206484F83C700120BDE8F08100F069FC39
:102F6000064613E0681C11D025B100F062FC801BFE
:102F7000A8420BD920680068800707D4206C40F075
:102F80000400206484F83C700320E5E720680068B2
:102F90008007E7D521686FF012000860206C40F4CC
:102FA000007020642068816811F0405F13D1217E99
:102FB00089B9C16A11F4700F02D0806840050AD443
:102FC000206C20F480702064206CC00403D4206C3A
:102FD00040F0010020640020BEE7000018B5002189
:102FE000009190F83C20012A07D0012280F83C2073
:102FF00002689368DB0702D011E0022018BD9368D5
:1030000043F0010393602E4A2E4B1268B2FBF3F299
:1030100002EB420200E0521E0092002AFBD102683D
:103020009368DB0742D0036C40F20164A34343F48E
:103030008073036453685B0505D5036C23F4005368
:1030400043F480530364036CDB0404D5436C23F026
:103050000603436400E0416480F83C101A496FF0B5
:103060002203136049680068CA06184906D08842DE
:1030700024D1816811F0405F13D01FE08842F8D05E
:10308000134A904203D1D1F80423D206F1D0114A59
:10309000904213D1D1F8041301F01F011029E8D395
:1030A0000CE0816841F08041816007E0016C41F0F3
:1030B00010010164416C41F001014164002018BD20
:1030C0009800002040420F000023014000200140F2
:1030D000002101400022014090F83C1001290CD051
:1030E000012180F83C1001688A6822F001028A60A0
:1030F00001688968C90702D007E002207047016CA7
:1031000021F4885141F001010164002180F83C1054
:10311000084670472DE9F0410446876D00F089FBB1
:10312000064694F835000025022806D08020606508
:1031300084F834500120BDE8F0812068016821F056
:10314000160101602068416921F080014161206C15
:1031500008B9A06C20B12068016821F00801016065
:103160002068016821F0010101600CE000F061FBC2
:10317000801B052807D920206065032084F83500CE
:1031800084F83450D7E720680068C007EED194F87F
:103190005C103F208840B860012084F8350084F836
:1031A00034500020C7E790F83510022903D0802161
:1031B000416501207047052180F8351000680168DD
:1031C00021F0010101600020704700002DE9F84363
:1031D00004464FF00009CDF8009063484FF41651B3
:1031E000A56D0068B0FBF1F72E6894F85C1008201C
:1031F00000FA01F131420FD021680A6852070BD55D
:103200000A6822F004020A6094F85C108840A86002
:10321000606D40F00100606594F85C104FF00108AB
:1032200008FA01F0304208D021684969090604D53E
:10323000A860606D40F00200606594F85C100420A6
:103240008840304208D021680968890704D5A86001
:10325000606D40F00400606594F85C1010208840B8
:10326000304218D021680968090714D5A860206881
:103270000168490304D50068000308D5A16C07E084
:103280000168C90503D4016821F008010160216CBF
:1032900009B12046884794F85C10202088403042CD
:1032A00031D021680968C9062DD5A86094F8350089
:1032B00005282068016806D0490347D50068000347
:1032C0001DD4616C1CE021F0160101602068416989
:1032D00021F080014161206C08B9A06C20B1206808
:1032E000016821F00801016094F85C103F208840DB
:1032F000A86084F8358084F83490216D1FE0E16B7C
:1033000009B120468847606D00282BD0606DC0074A
:1033100014D0052084F835002068016821F00101EF
:1033200001600098401C0090B84203D820680068F3
:10333000C007F6D184F8358084F83490E16C002918
:1033400010D001B02046BDE8F04308470168C90528
:10335000D5D4016821F01001016084F8358084F82B
:103360003490CCE7BDE8F883980000202DE9F041C7
:10337000044600F05EFA06465CB1022084F835008F
:10338000002584F834502068016821F001010160B3
:103390000DE00120BDE8F08100F04BFA801B05280C
:1033A00005D920206065032084F83500F2E7206805
:1033B0000068C007F0D12268116820480140D4E9B4
:1033C00001031843D4E903363343184363691843B0
:1033D000A3691843E3691843236A18430843616AE1
:1033E000042903D1D4E90B13194308431060206862
:1033F0004069666A20F0070130460E430127042821
:103400000CD1A06A0643E06A40B12046FFF732FBC8
:1034100020B14020606584F83570BAE720684661C5
:103420002046FFF713FB94F85C203F219140816018
:10343000656584F835700020ACE700003F8010F02F
:103440002DE9F0410446866D90F8340000250128EE
:103450000DD0012084F8340094F835700020012F3D
:1034600007D084F8340002252846BDE8F081022008
:10347000FBE7022784F8357060652046FFF724FBE0
:1034800094F85C103F208840B0602068016841F0EB
:1034900016010160206C20B12068016841F008012C
:1034A00001602068016841F001010160DCE7000073
:1034B00070B5044604F0F2FC022809DB04F0FEFCBF
:1034C0004FEA000504F0FAFC401BA042FAD370BD9D
:1034D000002040F271214C4300E0401CB0EB041F7F
:1034E000FBD370BD2DE9F047044622480F46017E0C
:1034F00001290AD00121804601764CF25039484614
:10350000FFF7DEFB020003D02FE00220BDE8F087CA
:103510004FF0FF3038602068174D012801D0A668B1
:103520001CE0207C6168FFF739FB4846FFF7C8FBC9
:103530000246286820F00400286014E0217C304610
:10354000FFF7DAFA4846FFF7BBFB0200286820F0D5
:103550007A00286001D03E6005E0761CD4E90210B4
:103560000844B042EAD8FFF7EFFA002188F81810B3
:103570001046CBE778000020103C02400348016869
:1035800041F000410160002070470000103C024003
:103590002DE9F0471B4E05461446307E1F468946EE
:1035A000012808D0012030764CF250384046FFF711
:1035B00087FB18B114E00220BDE8F0879DB1012D12
:1035C00016D0022D19D022463B464846FFF70AFB8B
:1035D0004046FFF775FB0C490A6822F001020A60B9
:1035E00000213176E8E7E1B24846FFF7EBFAEFE772
:1035F000A1B24846FFF70CFBEAE721464846FFF731
:1036000019FBE5E778000020103C02400749002044
:103610000A68002A09DA054A054B0C3A1360054B83
:1036200013600968002900DA01207047103C02404D
:1036300023016745AB89EFCD2DE9F84FDFF8BCA139
:103640000022012503264FF00F090AF1040BAAF10D
:10365000040E00BF0B6805FA02F42340A34270D1A8
:103660000F7907F00307012F01D0022F16D18768C9
:103670004FEA420806FA08FC27EA0C07D1F80CC00A
:103680000CFA08FC4CEA070CC0F808C04768A743CE
:103690000C79C4F3001494403C4344600C79E44337
:1036A000A4070AD0C4684FEA420C06FA0CF7BC43E0
:1036B0008F6807FA0CF72743C7600C7904F00304FE
:1036C000022C12D1D40800EB840CDCF82040570700
:1036D000FF0E09FA07F824EA0804D1F8108008FA66
:1036E00007F848EA0408CCF8208004684FEA420C46
:1036F00006FA0CF7BC430F7907F0030707FA0CF73B
:10370000274307604C6814F4403F70D03C4C276856
:1037100047F480472760246822F0030704F48044BC
:103720000094384C07EB040CDCF8084897074FEA84
:10373000177809FA08F7BC43334FB84202D1002783
:1037400024E054E0314FB84201D101271EE0304F50
:10375000B84201D1022719E02E4FB84201D1032708
:1037600014E02D4FB84201D104270FE02B4FB8428F
:1037700001D105270AE02A4FB84201D1062705E00A
:10378000284FB84201D1072700E0082707FA08F7B9
:103790002743CCF80878DAF800405746D1F804C03F
:1037A0009C435FEACC2C00D51C433C60DBF8004016
:1037B0005F46D1F804C09C435FEA8C2C00D51C43C3
:1037C0003C60DEF800407746D1F804C09C435FEAD5
:1037D0008C3C00D51C433C60084F083F3C68D1F846
:1037E00004C09C435FEACC3C00D51C433C60521CA7
:1037F000102AFFF42FAFBDE8F88F0000083C01400D
:103800004438024000300140000002400004024001
:1038100000080240000C0240001002400014024068
:1038200000180240001C02400AB18161704709047F
:10383000FBE710B504F032FB022803DBBDE81040C3
:1038400004F03CBB002010BD70B5040025D094F8F6
:103850003D00002520B984F83C50204600F052FA83
:10386000242084F83D002068016821F001010160F6
:103870002068016841F4004101602068016821F47A
:103880000041016000F080FB4D4A6168914201D81F
:103890004C4900E04C49884201D2012070BD4B499F
:1038A0002368B0FBF1F15E6826F03F060E435E60D0
:1038B0006368934206D94FF4967359434FF47A7371
:1038C000B1FBF3F12368491C1E6A26F03F06314321
:1038D00019626168914210D84900401EB0FBF1F2B4
:1038E000521CC2F30B02042A01D2042022E0B0FBD6
:1038F000F1F0401CC0F30B001CE0A268F2B301EB36
:10390000C10303EB0116431EB3FBF6F35B1C43F448
:1039100080431B0549D092B301EBC10202EB0111B8
:10392000401EB0FBF1F0401CC0F30B0040F480409F
:1039300040F400402168CA694CF6FF739A43104373
:10394000C861D4E9071001432068026822F0C00270
:1039500011430160D4E9030101432068826848F201
:10396000FF339A4311438160D4E90501084321687C
:10397000CA6822F0FF021043C86001E00EE016E0C2
:103980002068016841F0010101602564202084F86D
:103990003D00256384F83E50002070BD01EB4106D8
:1039A000431EB3FBF6F35B1CB3E70120C2E701EB58
:1039B0004101401EB0FBF1F0401CC0F30B00B7E723
:1039C000A086010080841E0000093D0040420F00D7
:1039D0002DE9FF4F83B09A46DDE9118793460446EF
:1039E000DDF84090FFF725FF054694F83D002028BC
:1039F00070D11923012274492046009501F0E8FA9C
:103A00000028F5D194F83C00012863D0012084F807
:103A10003C0020680168C90703D1016841F0010139
:103A200001602068016821F400610160222084F8AF
:103A30003D00402084F83E0000262664C4F824900F
:103A4000A4F82A80608D20856048E062CDE9007589
:103A500053465A462046049901F0BCF9002879D112
:103A6000208DD0B1012821D00228206824D04169BE
:103A700080690090208D032866D801282BD05449F6
:103A800002283B464FF00002009557D0884620465A
:103A900001F09EFA00285DD13AE020684169816911
:103AA0000091016841F4007101607DE020680168C7
:103AB00021F480610160F0E7016821F48061016018
:103AC0002068016841F400610160206841698069F3
:103AD000009069E075E02A463946204601F01EFB59
:103AE00088BB54E02068016841F4007101602068DF
:103AF0000069616A0870606A401C6062218D491E1D
:103B00002185618D491E618521680969017042E046
:103B10002068016821F48061016020680069616AA1
:103B20000870606A401C6062208D401E2085608D98
:103B3000401E60853B46002241460095204601F02C
:103B400047FA00B9CEE705E02A463946204601F09B
:103B5000E5FA18B1012007B0BDE8F08F20680069D0
:103B6000616A0870606A401C6062208D401E81B2EC
:103B70002185608D401E608520684269D2435207CE
:103B800012D4032903D1016821F480610160206807
:103B90000069616A0870606A401C6062208D401E86
:103BA0002085608D401E6085208D00287FF462AFE7
:103BB000202084F83D0084F83E6084F83C600020BA
:103BC000C9E70220C7E70000020010000000FFFF65
:103BD000040001002DE9FF4F83B09A46DDE91197FB
:103BE00093460446DDF84080FFF723FE054694F82F
:103BF0003D0020287FD1192301224049204600950D
:103C000001F0E6F9002876D194F83C00012872D042
:103C1000012084F83C0020680168C90703D10168CD
:103C200041F0010101602068016821F40061016038
:103C3000212084F83D00402084F83E0000262664C0
:103C4000C4F82480A4F82A90608D20852C48E06276
:103C5000CDE9007553465A462046049901F038F9DB
:103C600070B930E02A463946204601F08FFA58B143
:103C7000206C042804D12068016841F400710160BF
:103C8000012007B0BDE8F08F606A21680078086104
:103C9000606A401C6062218D491E89B22185628D57
:103CA000521E628522685369DB435B070BD469B1FE
:103CB00000781061606A401C6062208D401E208583
:103CC000608D401E6085208D0028CBD12A46394664
:103CD000204601F051F90028CAD154F83D0B016883
:103CE00041F400710160202004F81E09E677667730
:103CF0000020C6E7FFE70220C3E700000200100033
:103D00000000FFFF10B586B0044614216846FCF79A
:103D100080FE13492068884220D1124800210268A1
:103D200042F002020260006800F0020005900D48B7
:103D30001030026842F400120260006800F40010C3
:103D40000590C02000901220CDE9010102200390CF
:103D50000420049069460448FFF76EFC06B010BDCD
:103D60000054004030380240000402400B4810B5B7
:103D7000016841F400710160016841F480610160F3
:103D8000016841F480710160032000F051F80F20B8
:103D900000F006F800F006F8002010BD003C0240DC
:103DA000002070470A4808B5016841F4804101606D
:103DB000006800F4804000900548001F016841F051
:103DC00080510160006800F08050009008BD000044
:103DD00044380240002809DB00F01F020121914015
:103DE0004009800000F1E020C0F800117047000099
:103DF000F0B40E4B1B680C46C3F30223C3F1070556
:103E0000042D00D90425191D072901D2002300E043
:103E1000DB1E012606FA05F1491E214099409E400D
:103E2000761E16403143F0BC03F04EBC0CED00E0B2
:103E3000064900F0070208684FF6FF03184040EA01
:103E40000220034A10430860704700000CED00E0B8
:103E50000000FA052DE9F0470E46050065D0DFF8B1
:103E60001481D8F80000F7B200F00700B04207D282
:103E700088F80070D8F8000000F00700B04254D174
:103E800028683D4C810712D5400703D5206840F4CF
:103E9000E05020602878000703D5206840F4604097
:103EA00020602068A96820F0F0000843206028788E
:103EB000C0072DD0304968680839012812D002287F
:103EC00013D0032811D00968890700292DDA216849
:103ED00021F0030101432160FFF7ABFC814641F271
:103EE000883A0EE009688903EFE709688901ECE781
:103EF000FFF79FFCA0EB0901514502D90320BDE863
:103F0000F0872068696800F00C00B0EB810FEFD1FA
:103F1000D8F80010404601F00701B14207D90770F8
:103F2000006800F00700B04201D00120E7E72878E0
:103F3000400705D52068E96820F4E0500843206078
:103F40002878000706D52068296920F4604040EAF7
:103F5000C100206000F038F82168084AC1F303115D
:103F6000515CC8400649086006480068FFF718FF22
:103F70000020C4E7003C024008380240C4A9000801
:103F80009800002070000020044805490068096876
:103F9000044AC1F38221515CC84070479800002058
:103FA00008380240D4A90008044805490068096897
:103FB000044AC1F34231515CC84070479800002068
:103FC00008380240D4A90008154810B5006810F060
:103FD0000C02144813D04110042A0FD0082A0ED125
:103FE0000F4C241F2268236802F03F025B0207D5B2
:103FF0002068C0F38810A0FB010106E0084610BD50
:104000002168C1F38811A1FB00010023FCF7CEF960
:104010002168C1F30141491C4900B0FBF1F010BD1A
:10402000083802400024F4002DE9F84F04006ED057
:104030002078DFF84C93C007A9F104054AD009F1B4
:1040400004000168C1F38101012908D00068C0F3B0
:10405000810002280AD1D9F80000400206D528685C
:10406000800337D560680028E1D033E06068B0F5A0
:10407000803F10D0B0F5A02F286810D020F48030F9
:104080002860286820F4802028606068A8B1FFF7C5
:10409000D0FB06460DE0286840F48030F4E740F499
:1040A00080202860F7E700BFFFF7C3FB801B642870
:1040B00073D828688003F7D50CE0FFF7BAFB0646F3
:1040C00005E000BFFFF7B5FB801B6428F0D8286827
:1040D0008003F7D42078DFF8AC8280074FF0000A25
:1040E0003ED5A748001D016811F00C0F08D00068EC
:1040F000C0F3810002280BD1D9F80000400207D498
:104100002868800716D5E068012800D112E033E165
:10411000E068B8B10120C8F80000FFF78AFB064646
:1041200005E000BFFFF785FB801B0228C0D8286888
:104130008007F7D52868216920F0F80040EAC1001F
:1041400028600DE0C8F800A0FFF773FB064604E006
:10415000FFF76FFB801B02281FD828688007F7D461
:104160002078000722D5864F87486169703771B182
:1041700001210160FFF75DFB064604E0FFF759FBF4
:10418000801B022809D838688007F7D50EE0C0F8F0
:1041900000A0FFF74EFB064605E082E0FFF749FB73
:1041A000801B02287DD838688007F7D42078400724
:1041B00068D5DFF8CCB100270BF13C0BDBF8000031
:1041C000C0000BD4DBF8001041F08051CBF8001098
:1041D000DBF80000012700F0805000906B4E306843
:1041E000C00510D4306840F480703060FFF721FBC8
:1041F000009005E0FFF71DFB0099401A022850D8F7
:104200003068C005F6D55E4EA0686C3601280FD028
:104210000528306810D020F001003060306820F0B0
:1042200004003060A068B8B1FFF703FB00900FE016
:10423000306840F00100F4E740F004003060F7E738
:10424000FFF7F7FA0099411A41F28830814266D8A7
:1042500030688007F4D50EE0FFF7EBFA009007E036
:10426000FFF7E7FA0099411A41F28830814256D8A7
:1042700030688007F4D42FB1DBF8001021F08051B2
:10428000CBF80010A069C8B33D49091D0968C1F306
:10429000810102294AD00228504607D0C8F86000A0
:1042A00000E03CE0FFF7C5FA04463BE04746C8F8AB
:1042B0006000FFF7BEFA064605E000BFFFF7B9FA57
:1042C000801B02282BD828688001F7D4D4E9070185
:1042D0000843A16A2E4A490802EB0141626A41EA99
:1042E0008211084394F82C1040EA0161C9F80010CB
:1042F00001203866FFF79DFA044606E03EE000BF65
:10430000FFF797FA001B022809D828688001F7D523
:1043100034E000BFFFF78DFA001B022802D903200A
:10432000BDE8F88F28688001F4D427E00128F7D091
:10433000D9F80000E26900F4800191421CD1226AA0
:1043400000F03F01914217D147F6C071626A014007
:10435000B1EB821F10D1A26A4FF0FF3300F440315D
:1043600003EB5202B1EB024F06D194F82C1000F08F
:104370007060B0EB016F01D00120D1E70020CFE7E2
:104380000438024000004742800E4742007000405F
:104390000000FFFF70B590F83C20012A32D00124C4
:1043A00080F83C40022280F83D2003685A689D68EE
:1043B00022F070060A6832435A60134B02689A4230
:1043C00014D0B2F1804F11D0104B9A420ED0104B46
:1043D0009A420BD00F4B9A4208D00F4B9A4205D00D
:1043E0000E4B9A4202D00E4B9A4204D1496825F0F6
:1043F00080031943916080F83D40002180F83C1013
:10440000084670BD022070BD00000140000400405D
:1044100000080040000C0040000401400040014042
:1044200000180040704770B5044690F83C00002624
:104430000D4601280FD0012084F83C006AB1042AFF
:104440001DD0082A2FD00C2A3FD00126002084F846
:104450003C00304670BD022070BD206802F066FD51
:104460002068816941F0080181612068816921F03B
:1044700004018161206881692A69114311E0206883
:1044800002F084FD2068816941F400618161206847
:10449000816921F480618161206881692A6941EA2A
:1044A00002218161D2E7206802F0A6FD2068C1697F
:1044B00041F00801C1612068C16921F00401C161B6
:1044C0002068C1692A69114311E0206802F0C8FD23
:1044D0002068C16941F40061C1612068C16921F4AB
:1044E0008061C1612068C1692A6941EA0221C16114
:1044F000ACE710B5040003D094F83D0010B107E01C
:10450000012010BD002084F83C00204600F01EF879
:10451000022084F83D00211D206802F091FC01205A
:1045200084F8460084F83E0084F83F0084F8400098
:1045300084F8410084F8420084F8430084F8440081
:1045400084F8450084F83D00002010BD10B586B009
:10455000044614216846FCF75CFA2068B0F1804FED
:1045600020D111480021026842F001020260006877
:1045700000F0010005900C481038026842F0020279
:104580000260006800F0020005904FF44060009067
:104590000220CDE9010103900120049069460348FF
:1045A000FFF74AF806B010BD403802400004024050
:1045B00010B50446022249B104290ED0082913D0AF
:1045C00094F84100012816D0012010BD94F83E0057
:1045D0000128F9D184F83E200FE094F83F0001282B
:1045E000F2D184F83F2008E094F840000128EBD194
:1045F00084F8402001E084F841200122206802F084
:1046000087FC16492068164A884201D0904203D19F
:10461000436C43F4004343642068884213D0B0F1F4
:10462000804F10D00F4988420DD00F4988420AD0E0
:104630000E49884207D0904205D00D49884202D0E9
:104640000C49884204D1816801F00701062903D092
:10465000016841F001010160002010BD000001402F
:10466000000401400004004000080040000C00402D
:10467000004001400018004038B5044690F8420060
:10468000202801D0022038BD51B14AB10120206359
:1046900000206063204602F0B5FE216B012901D0A5
:1046A000012038BD21680A684968009121680C31F1
:1046B00051E8002F42F0100241E80023002BF5D111
:1046C00038BD000070B50D460B49884212D1002458
:1046D00001F5847604E0305D01F050F8641CA4B26A
:1046E000AC42F8D3BDE870404FF48C7203490248E5
:1046F000FFF7C2BF70BD00007805002080060020D3
:1047000070470000F8B5016804460868CA684B693C
:1047100010F00F0F4FF0000559D003F0010602F41E
:104720009077374365D0C10705D0D10503D5616CBB
:1047300041F001016164410705D5D90703D0616CDF
:1047400041F002016164810705D5D90703D0616C8E
:1047500041F004016164010707D502F020013143F3
:1047600003D0616C41F008016164616C00293AD0AA
:10477000800604D5900602D5204602F05CFD206834
:104780004069616CC0F38010090700D460B3204613
:1047900002F01CFD20684069400621D520681430D5
:1047A00050E8001F21F0400140E80012002AF5D136
:1047B000E06BA8B172490165E06BFEF7F4FC0028DC
:1047C00011D0E06B016D01B0BDE8F04008478306F1
:1047D0000FD593060DD52046BDE8F84002F02BBD5D
:1047E0002046FFF78DFFF8BD2046FFF789FF65647F
:1047F000F8BD266B2023012E7ED1C6067CD5D606B9
:104800007AD508684868009048694FF0020640066B
:104810004DD5E26B106840684FF480770004000CBF
:104820003AD0A18D814237D9E085D069B8422DD0E8
:1048300020680C3050E8001F21F4807140E800121D
:10484000002AF5D12068143050E8001F21F0010142
:1048500040E80012002AF5D12068143050E8001F0B
:1048600021F0400140E80012002AF5D184F84230DE
:10487000256320680C3050E8001F21F0100140E84B
:104880000012002AF5D1E06BFEF744FC6663A08DB0
:10489000E18D401A81B206E0A18D8142A8D1D06994
:1048A000B842A5D166632046FFF70CFFF8BDA08D86
:1048B000E18D401A81B2E08D0028F7D00029F5D0B3
:1048C00020680C3050E8002F22F4907240E8002756
:1048D000002FF5D12068143050E8002F22F001029B
:1048E00040E80027002FF5D184F842302563206886
:1048F0000C3050E8002F00E006E022F0100240E803
:104900000023002BF3D1CDE705062BD5150629D5BD
:1049100094F841002128C9D1A068B0F5805F01D189
:104920002069B0B1206A411C21622168007848608A
:10493000E08C401E0004000CE084B7D12068C16800
:1049400021F08001C1602068C16841F04001C16070
:10495000F8BD206A0088C0F308004860206A801C07
:104960002062E5E74006F3D55006F1D5CA68204637
:1049700022F04002CA6084F8413000F089F9F8BDA5
:10498000D170000870B5040004D094F841000025EF
:1049900010B106E0012070BD84F84050204600F0C0
:1049A00023F8242084F841002068C16821F40051D4
:1049B000C160204602F0A0FC2068016921F490410A
:1049C00001612068416921F02A0141612068C168C4
:1049D00041F40051C1606564202084F8410084F8EE
:1049E00042006563002070BD2DE9F04387B00646A4
:1049F00014216846FCF70DF84A4A31684A480225F6
:104A00000727DFF8288100244FF48069914228D1DC
:104A1000454914310A6842F010020A60096801F041
:104A200010010591016841F001010160006802AACE
:104A300000F0010005902802CDE9000582E8B000F1
:104A400069464046FEF7F8FDCDF80090CDE90154E7
:104A5000CDE9035769464046FEF7EEFD07B0BDE8D5
:104A6000F083334A9142F9D12F4910310A6842F458
:104A700000320A60096801F400310591016841F0D3
:104A800001010160006802AA00F001000590042005
:104A9000CDE9000582E8B00069464046FEF7CCFD4E
:104AA0000820CDE9000502AA694682E8B000404628
:104AB000FEF7C2FD204D1F484FF000682860C5E991
:104AC0000184C5E903496C61AC61EC612C624F461D
:104AD00028466C62FEF74AFC08B1FEF70AF8F56357
:104AE000AE63154D134860351830E5E802084020E4
:104AF00091C5114845F814496030AC61EC612C62F5
:104B00006C62FEF733FC08B1FDF7F3FFB5630022DA
:104B100005212620AE63FFF76BF92620FFF75AF92F
:104B20009CE70000001001403038024000000240C5
:104B30000044004088600240C00500202DE9F84F85
:104B4000044690F842009A4616460D46202802D0A8
:104B50000220BDE8F88FB5B1AEB10020606422211B
:104B600084F842102063FEF764FEA6858146E68540
:104B7000A0684FF480582027404501D1206920B11A
:104B80002E46002529E00120E3E7002625E04B46DC
:104B9000002220212046CDF800A002F083FC18B1AD
:104BA00084F842700320D4E726B1A06840451AD0AB
:104BB00038B108E020684068C0F3080025F8020B0F
:104BC00008E0206978B12068406800F07F0000BFED
:104BD00006F8010BE08D401EE085E08D0028D6D15F
:104BE00084F84270B5E720684068F1E77047704785
:104BF0002DE9F843044690F84100984616460D46C4
:104C0000202802D00220BDE8F88385B17EB10020C3
:104C10006064212084F84100FEF70BFEA6848146E3
:104C2000E684A0682027B0F5805F02D003E0012071
:104C3000E9E7206910B12E4600250EE000260CE0C1
:104C40008021204602F02EFCA8B9C6B116F8010B4F
:104C500021684860E08C401EE084E08C4B464FF0B9
:104C60000002CDF800800028EAD14FF04001204634
:104C700002F018FC40B184F841700320C3E735F816
:104C8000020BC0F30800E3E784F841700020BAE7A4
:104C90007047000010B590B040F2DC5003F07EF891
:104CA0002EA220216846FBF737FCC2B26423694676
:104CB0002C48FFF79DFF642003F070F84FF4FA745E
:104CC0002346042208A92748FFF738FF28B9022203
:104CD00025A108A8FBF7B1FD10B1002010B010BD50
:104CE00022A220216846FBF717FCC2B26423694662
:104CF0001C48FFF77DFF642003F050F82346042290
:104D000008A91848FFF71AFF1DA220216846FBF7E3
:104D100003FCC2B2642369461248FFF769FF6420AE
:104D200003F03CF82346042208A90E48FFF706FFCB
:104D300019A220216846FBF7EFFBC2B26423694643
:104D40000848FFF755FF642003F028F823460422A3
:104D500008A90448FFF7F2FE0120BFE741540D0AFD
:104D600000000000780500204F4B000041542B4EFE
:104D7000414D453D53544D33322D454E520D0A00A1
:104D800041542B554152543D3131353230302C3065
:104D90002C300D0A0000000041542B4D4F44453D7E
:104DA000320D0A00FEE701684A69D24352050FD46A
:104DB0006FF480624A61002140F8301F2022427364
:104DC0008173026942F0040202610173012070479D
:104DD000002070472DE9F84F0446006889460B9D76
:104DE00001689846174641F48061016020680168B7
:104DF00041F48071016000954FF0011B002259467B
:104E000020460A9B00F0E4F84FF4007A40B1206895
:104E10000068C00501D5C4F840A00320BDE8F88FA4
:104E2000216809F0FE0008612B46284920460A9AAD
:104E300000F016F9F0BB20684169806900902A46AD
:104E400020460A9900F0A2F940B1206C04283AD11A
:104E50002068016841F40071016034E0FEB2B8F1ED
:104E6000010F09D02168380A08612A4620460A99AC
:104E700000F08CF90028E8D1206806612A46204617
:104E80000A9900F083F90028DFD12068016841F415
:104E90008071016000950022594620460A9B00F06F
:104EA00097F80028B3D1216809F0FF0040F0010015
:104EB000086100E007E02B46044920460A9A00F00A
:104EC000CFF80028AAD00120A8E7000002000100C6
:104ED0002DE9F843044600680D46DDE908970168AE
:104EE0009846164641F4807101604B4600224FF00F
:104EF00001112046009700F06BF848B12068006867
:104F0000C00502D54FF4007020640320BDE8F8838B
:104F1000216805F0FE0008613B464A4615492046D7
:104F200000F09EF888B920684169806900903A468F
:104F30004946204600F02AF948B1206C042804D1E3
:104F40002068016841F4007101600120DEE7F5B2DC
:104F5000B8F1010F09D02168300A08613A46494684
:104F6000204600F013F90028E7D1206805610020F1
:104F7000CCE700000200010070B516460D4604465D
:104F80001EE02046FFF70FFF08B1012070BD681C2E
:104F900016D0FEF74EFC801BA84200D885B92068C9
:104FA0004069C04340070BD5002044F8300F202152
:104FB0006173A073216941F0200121612073E4E74E
:104FC00020684069C0434007DBD4002070BD00006A
:104FD0002DE9F047984617460D460446C1F30746AB
:104FE000DDF820902AE000BFB8F1FF3F26D0FEF7A1
:104FF00020FCA0EB0901414502D8B8F1000F1DD1FA
:105000002068012E16D0806925EA00000004000CFB
:1050100012D00020B84211D1002044F8300F2021D6
:105020006173A073216941F0200121612073012087
:10503000BDE8F0874069E7E70120EBE72068012E33
:105040000AD0806925EA00000004000C06D0002088
:10505000B842C9D00020EBE74069F3E70120F7E749
:105060002DE9F047984616460D4604464FF00009D4
:105070004FF0200AC1F3074723E020684069C0438E
:10508000400515D42068016841F400710160216871
:105090006FF480604861C4F8309084F83DA084F8D3
:1050A0003E90216C41F00401216484F83C9021E0A1
:1050B000701C06D0FEF7BDFBA0EB0800B04203D881
:1050C00016B1012F1FD021E02068012F15D0806973
:1050D00025EA00000004000C18D000BF44F8309FFF
:1050E00084F80DA084F80E90216941F0200121611F
:1050F00084F80C900120BDE8F087406925EA0000A3
:105100000004000CEAD12068406901E02068806951
:1051100025EA00000004000CAFD1ECE72DE9F041D6
:10512000002590460E460446202728E04069C043EB
:10513000C0060CD454F8301B6FF01000486144F8DE
:1051400010596777A577206A2062257714E0FEF76B
:1051500070FBA0EB0800B04200D886B92068406917
:10516000C04340060BD544F8305F6773A5732069D0
:1051700040F02000206125730120BDE8F081206807
:105180004169C9434906D1D40020F6E770B51646F7
:105190000D4604461EE02046FFF705FE08B101203B
:1051A00070BD681C16D0FEF744FB801BA84200D8D7
:1051B00085B920684069C04300060BD5002044F83B
:1051C000300F20216173A073216941F0200121611A
:1051D0002073E4E720684069C0430006DBD4002068
:1051E00070BD00002DE9F04104460021F0234FF48A
:1051F000A072084600F0D2F9104E4FEA1428E5B22A
:10520000002280213046FEF70FFB0122102130469C
:10521000FEF70AFB00244FF49637404601F03AF8B7
:10522000284601F037F8641CBC42F6D33046BDE88E
:10523000F04101228021FEF7F7BA0000000C024085
:105240002DE9F04F8DB0203ADDE916571C465F2A54
:1052500003D300200DB0BDE8F08FD6B2FA003B01B9
:10526000019200F09BF9200A0690E0B20590280A0E
:105270000490E8B2254C0390002280212046FEF7DE
:10528000D3FA012210212046FEF7CEFA20484FF033
:10529000000800EB0610029010F80890002622E0AB
:1052A00000248020E04000EA0900002801D0069890
:1052B00000E00498834601D0059800E003984FF081
:1052C0000005824607E0584600F0E4FF504600F033
:1052D000E1FF6D1CEDB2BD42F5D3641CE4B2082CB5
:1052E000DFD3761CF6B2BE42DAD308F1010000F03B
:1052F000FF08B8F1100F01D20298CDE701228021FA
:105300000248FEF791FA0198A4E70000000C024061
:1053100064A200082DE9FC5F0446984616460D4637
:10532000A24201D9301B00E0A01B0FFA80F9A8456A
:1053300002D9A8EB050001E0A5EB08000FFA80FAFE
:105340004FF0FF30A64201D3012100E00146019158
:10535000A84500D301200090A9EB0A0007B2294616
:1053600020460C9A00F0FAF8CAF1000B16E078001B
:1053700000B2584505DDA7EB0A010FB2019921449F
:105380008CB2484505DA07EB090007B200982844BB
:1053900085B2294620460C9A00F0E0F8B442E6D1E6
:1053A0004545E4D1BDE8FC9F10B588B000F018FF7A
:1053B000614C002220212046FEF736FA0A20FEF733
:1053C00077F8012220212046FEF72EFA7820FEF7FA
:1053D0006FF8CB2000F072F9392000F089F92C2009
:1053E00000F086F9002000F083F9342000F080F905
:1053F000022000F07DF9CF2000F060F9002000F0DD
:1054000077F9C12000F074F9302000F071F9E8203C
:1054100000F054F9852000F06BF9002000F068F9E5
:10542000782000F065F9EA2000F048F9002000F04B
:105430005FF9002000F05CF9ED2000F03FF96420F6
:1054400000F056F9032000F053F9122000F050F953
:10545000812000F04DF9F72000F030F9202000F015
:1054600047F9C02000F02AF9232000F041F9C120BB
:1054700000F024F9102000F03BF9C52000F01EF9DF
:105480003E2000F035F9282000F032F9C72000F066
:1054900015F9862000F02CF9362000F00FF948208D
:1054A00000F026F93A2000F009F9552000F020F923
:1054B000B12000F003F9002000F01AF9182000F0E4
:1054C00017F9B62000F0FAF8082000F011F9822050
:1054D00000F00EF9272000F00BF9F22000F0EEF8B2
:1054E000002000F005F9262000F0E8F8012000F087
:1054F000FFF8E02000F0E2F810A00FC88DE80F00E0
:105500000F21684600F00EF9E12000F0D7F80FA354
:1055100004AC0FCB84E80F000F2104A800F002F9BF
:10552000112000F0CBF87820FDF7C2FF292000F011
:10553000C5F808B010BD0000000C02400F312B0C64
:105540000E084EF1370710030E090000000E140379
:10555000110731C148080F0C31360F0070B51446E1
:1055600001231A4600F01AF80B4D0022802128462C
:10557000FEF75AF9012210212846FEF755F9200AB4
:1055800000F088FEE0B200F085FE2846BDE87040DD
:1055900001228021FEF748B9000C02402DE9F041BC
:1055A00005461044401E87B2C818401E86B20C46FD
:1055B0002A2000F083F8280A00F09AF8E8B200F0F8
:1055C00097F8380A00F094F8F8B200F091F82B2020
:1055D00000F074F8200A00F08BF8E0B200F088F8D0
:1055E000300A00F085F8F0B200F082F8BDE8F04132
:1055F0002C2000F063B800002DE9F04387B081460D
:10560000DDE90E561F461446884610EE100A04F0D7
:1056100001FDCDE90001234607A2142102A8FAF7F3
:105620007BFFCDE900563B4602AA4146484600F0C2
:1056300023F807B0BDE8F083252E2A66000000009D
:105640002DE9F04186B01E46DDE90C450F46804647
:10565000134608A2102102A8FAF75EFF334602AAF9
:1056600039464046CDE9004500F006F806B0BDE8F1
:10567000F0810000256C64002DE9FC479A46DDE9C5
:105680000A9615460F4604464FF4A07811E0CDE97E
:1056900000965346394620466D1CFFF7D1FD204445
:1056A00084B204EBC600404503D307EB0610002488
:1056B00087B22A78002AEAD1BDE8FC8770B50B4C86
:1056C0000546002280212046FEF7AEF80022102178
:1056D0002046FEF7A9F8284600F0DCFD2046BDE88C
:1056E000704001228021FEF79FB80000000C0240AC
:1056F00070B50B4C0546002280212046FEF794F839
:10570000012210212046FEF78FF8284600F0C2FD46
:105710002046BDE8704001228021FEF785B80000D8
:10572000000C02402DE9F0410D4E0D4607460022C7
:1057300080213046FEF778F8012210213046FEF72E
:1057400073F8002403E0385D00F0A4FD641CAC4253
:10575000F9D33046BDE8F04101228021FEF764B85C
:10576000000C0240034800210122C270024801607F
:1057700070470000980700206000002000B587B047
:1057800001466B46064A002002F0D2F8012805D1F6
:1057900004480168002901D00148884707B000BDCE
:1057A000B00D002060000020014908607047000033
:1057B0006000002010B5D0B0044600200B460190D8
:1057C0000290039004900121009006AA084602F07E
:1057D000F1F906A9044802F017FA024602492046E8
:1057E00003F064F950B010BD980C00202DE9F0438F
:1057F000CDB0814601270D4606A83E4602AC2021C9
:105800008046FBF706F9202229464046FBF760F860
:1058100004984CF2543161F31F2004902020B221EF
:10582000CDE90001034632463946204601F0F6FF35
:1058300002A9054802F0E8F902460349484603F088
:1058400035F94DB0BDE8F083980C0020F0B5CFB02D
:10585000074600204D908DF834018DF835018DF804
:105860003601042101264E904C908DF837113546B3
:1058700002AC09224CA906A8FBF76FF80498322164
:10588000C0B204900920CDE9000103462A46314602
:10589000204601F0C3FF02A9044802F0B5F9024610
:1058A0000249384603F002F94FB0F0BD980C0020D1
:1058B00070B5CCB001258DF80010CDF8012000990D
:1058C00006919DF804108DF81C1004994CF25C327E
:1058D00062F31F21049105218F22CDE900120446B5
:1058E0000B4602A82A46294601F098FF02A905485E
:1058F00002F08AF902460349204603F0D7F84CB07B
:1059000070BD0000980C0020F0B5D3B00746589C3D
:10591000002002B101200BB140F002000CB140F0B8
:1059200004004CAA012682EC050A354602AC5191CE
:105930008DF8480119224CA906A8FBF70EF8049827
:105940004CF2503161F31F2004901920BB21CDE9A6
:10595000000103462A463146204601F05FFF02A9B6
:10596000044802F051F902460249384603F09EF815
:1059700053B0F0BD980C002070B5D0B00DF5A87CE8
:1059800004469CE861000092CDE901300B46CDE968
:105990000356012106AA084602F00CF906A905489B
:1059A00002F032F902460349204603F07FF850B076
:1059B00070BD0000980C00202DE9F043CDB0814669
:1059C00001270D4606A83E4602AC20218046FBF783
:1059D00020F81F2229464046FBF742F804984CF273
:1059E000583161F31F20049020201D21CDE90001D2
:1059F000034632463946204601F010FF02A9054809
:105A000002F002F902460349484603F04FF84DB050
:105A1000BDE8F083980C00207FB500241448009462
:105A2000019402941149039401604FF48031C0E95C
:105A3000011401250461057680F82040C462C56127
:105A4000C46080F830404561FDF717FA08B1FDF7F2
:105A500050F80A20CDE90005694602940448FDF794
:105A600063F9002801D0FDF744F87FBD0020014014
:105A7000EC0300200D4808B5016841F400110160F5
:105A80000068002200F40010009005211020FEF7AD
:105A9000AFF91020FEF79EF9002205211120FEF734
:105AA000A7F9BDE808401120FEF794B9303802404C
:105AB00070B501F095FD40F2DC540123224649A166
:105AC000002001F0C3FD4FF4FA6500232A4647A1E8
:105AD000012001F0BBFD00232A4646A1022001F06F
