:020000040800F2
:10000000685400201103000843600008875200086C
:10001000195E000829260008CD71000800000000C4
:10002000000000000000000000000000790200084D
:10003000E72A000800000000BD020008E96A000885
:100040002B0300082B0300082B0300082B030008D8
:100050002B0300082B0300082B0300082B030008C8
:100060002B0300082B0300082B0300082B030008B8
:100070002B0300082B0300082B0300082B030008A8
:10008000A52A0008B12A00082B0300082B0300084A
:100090002B0300082B0300082B0300082B03000888
:1000A0002B0300082B0300082B0300082B03000878
:1000B0002B0300082B0300082B0300082B03000868
:1000C0002B0300082B0300082B0300082B03000858
:1000D0002B0300082B030008C17100082B03000844
:1000E0002B0300082B0300082B0300082B03000838
:1000F0002B0300082B0300082B0300082B03000828
:100100002B0300082B0300082B0300082B03000817
:100110002B0300082B030008816B00082B03000849
:100120002B0300082B0300082B0300082B030008F7
:1001300000F002F800F090F80AA090E8000C824469
:100140008344AAF10107DA4501D100F085F8AFF246
:10015000090EBAE80F0013F0010F18BFFB1A43F0A5
:10016000010318472C9A00004C9A0000103A24BF53
:1001700078C878C1FAD8520724BF30C830C144BF0C
:1001800004680C607047000000230024002500264E
:10019000103A28BF78C1FBD8520728BF30C148BFEA
:1001A0000B6070476E2900F0B084702901F01F8049
:1001B000662909F05080652909F04D80672909F00A
:1001C0004A80612909F0498003681B0A28BF41F071
:1001D0008001692900F06A81642900F0678175292E
:1001E00000F064816F2900F0AC87782900F0EB877C
:1001F000E92900F04787E42900F04487F52900F059
:100200004187EF2900F0A987F82900F0EA87036801
:10021000DB0928BF41F08001632900F0C8867329FB
:1002200000F0CD86E32901F07582F32901F07A828E
:10023000002070471FB501F05BF80400002000218A
:1002400008F0ACFD401C60600020002108F090FD2B
:10025000E0601FBD10B510BD01F04AFB1146FFF76D
:10026000E9FF07F09FF801F076FB03B4FFF7F2FF18
:1002700003BC01F0B9FB0000224B19680868B0E824
:10028000F00F80F30988BFF36F8F4FF0000080F309
:1002900011884EF00D0E70470000000006480068FF
:1002A000006880F3088862B661B6BFF34F8FBFF372
:1002B0006F8F00DF00BF00BF08ED00E0EFF30980A3
:1002C000BFF36F8F0F4B1A6820E9F00F106008B56D
:1002D0004FF0500080F31188BFF34F8FBFF36F8F43
:1002E00007F0C8FF4FF0000080F31188BDE8084018
:1002F00019680868B0E8F00F80F30988BFF36F8FC2
:10030000704700BF5C000020EFF3058070470000DD
:100310000948804709480047FEE7FEE7FEE7FEE799
:10032000FEE7FEE7FEE7FEE7FEE7FEE704480549D5
:10033000054A064B704700007D6B0008310100083C
:10034000684E00206854002068500020685000204B
:10035000B2F120030AD5C2F1200320FA02F001FA1B
:1003600003F321FA02F140EA0300704721FA03F097
:100370004FF00001704710B54C1084EA530404D5C7
:100380004042C1F1000138BF491E1B4204D5524210
:10039000C3F1000338BF5B1E00F0AEFA14F0804FCB
:1003A00004D04042C1F1000138BF491E14F0004F93
:1003B00004D05242C3F1000338BF5B1E10BD0000E1
:1003C0007CB51D4616460C00009001D02044401E0E
:1003D000074B7B442A4669460190304600F0BDFD3C
:1003E00005461CB10020694600F0CAFD28467CBDC8
:1003F000B50B00000FB41CB5084B06AA7B44694638
:100400000090059800F0A9FD04460020694600F020
:10041000B7FD20461CBC5DF814FB0000810B0000FA
:100420000FB47CB50C0009AA009001D02044401EF6
:10043000084B7B4469460190089800F08EFD054604
:100440001CB10020694600F09BFD28467CBC5DF88D
:1004500014FB0000550B000070B50C460546012A40
:1004600005D02878800600D5EA69002302E0012340
:1004700005E05B1C934202D2E05C0028F9D1A86938
:10048000E618C01AA861286A18442862284600F0B5
:10049000AAFA04E0D5E9012114F8010B9047B4420F
:1004A000F8D3284600F0B5FA70BD00002DE9F04100
:1004B0000646002410687529314616A510D000F0B4
:1004C000B9FA002802DA404213A507E031688A072A
:1004D00001D512A502E0490704D511A5012401E0C8
:1004E00000F0B1FA00210A2206F1240709E0B0FB6E
:1004F000F2FCB0FBF2F302FB1C00303078541846DB
:10050000491C0028F3D123462A463046BDE8F04175
:1005100000F0A2BA000000002D0000002B00000037
:10052000200000002DE9F05F894604464FF0000AE4
:10053000DFF874B1FB44C0F820A02046E16888478A
:10054000002874D0252806D0D4E901219047206ADC
:10055000401C2062F1E700265F462046E16888479C
:100560002028054607DB312D05D2781910F8200C1C
:1005700008B10643F1E7B00701D526F00406C4F838
:100580001CA00027C4F818A02A2D09D0284606F080
:10059000F5FE38B304EB8708303DC8F8185019E071
:1005A00059F8041B204604EB87029161E1688847F3
:1005B000012F054618D1E069002820DA26F0200630
:1005C0001DE0D8F8180000EB800005EB4000303843
:1005D000C8F818002046E1688847054606F0CEFEB8
:1005E0000028EED1012F0AD02E2D08D12046E16837
:1005F00088477F1C0546022F46F02006C4DBA06911
:10060000002803DA404246F00106A061F00701D05D
:1006100026F010066C2D0BD0682D09D04C2D39D04A
:100620006A2D35D0742D35D07A2D33D016E038E0D0
:10063000E1682F4620468847B842054609D16C2F0D
:1006400026D04FF48060E16806432046884705467F
:1006500004E06C2F1AD04FF4807006430DB3A5F15F
:100660004100192802D8203546F400664A4629463A
:10067000204626604E46FFF795FD80B101280BD03D
:10068000F61D26F0070000F1080956E74020E4E7D0
:100690008020D8E70020D6E706F104094DE7284678
:1006A00052E7206ABDE8F09F1C95000070B5064631
:1006B00000F01EF90468054630460A22002100F0C9
:1006C000A1FD2C6070BD30B505460B462A4613F8D7
:1006D000014B12F8010B08B1A042F8D01CB1002860
:1006E00002D06D1CF1E7284630BD10B5431C02E076
:1006F00010F8011B71B18107FAD14FF0013202C825
:100700008C1A8C4314EAC211F9D0C01A0A0603D01D
:10071000C01E10BDC01A10BD0A0401D0801E10BD3D
:100720000902FCD0401E10BD40EA010370B59B07D2
:100730002ED14FF00136042A2AD308C810C99D1BB8
:100740009D43121F15EAC61517D0D8B2E1B2401A60
:1007500050EA056110D198B2A1B2401A50EA0541A1
:100760000AD123F07F4024F07F41401A50EA05214E
:1007700002D1180EA0EB146070BDA342DBD018BAF2
:1007800021BA884201D9012070BD4FF0FF3070BD01
:100790000AB9002070BD10F8013B11F8014B63B19C
:1007A000A3420AD1521E08D010F8013B11F8014BA8
:1007B0001BB1A34201D1521EEDD1181B70BD032AFB
:1007C00040F2308010F0030C00F0158011F8013B6E
:1007D000BCF1020F624498BF11F801CB00F8013B55
:1007E00038BF11F8013BA2F1040298BF00F801CB19
:1007F00038BF00F8013B11F0030300F03B85083AD5
:10080000C0F0088051F8043B083A51F804CBA0E846
:100810000810F5E7121D5CBF51F8043B40F8043B9B
:10082000AFF30080D20724BF11F8013B11F801CBD0
:1008300048BF11F8012B24BF00F8013B00F801CBA1
:1008400048BF00F8012B704702F0FF0343EA032280
:1008500042EA024200F002B84FF000020429C0F060
:10086000128010F0030C00F01B80CCF1040CBCF1E2
:10087000020F18BF00F8012BA8BF20F8022BA1EB34
:100880000C0100F00DB85FEAC17C24BF00F8012B19
:1008900000F8012B48BF00F8012B70474FF0000211
:1008A00000B5134694469646203922BFA0E80C5066
:1008B000A0E80C50B1F12001BFF4F7AF090728BF41
:1008C000A0E80C5048BF0CC05DF804EB890028BFBD
:1008D00040F8042B08BF704748BF20F8022B11F0E6
:1008E000804F18BF00F8012B704770477047704762
:1008F00000487047044E002053EA020C00F0698063
:100900002DE9F04B4FF00006002B1FBFB3FA83F523
:1009100003FA05F424FA05F65E4012BF1643B2FA54
:1009200082F502FA05F4C5F120051EBF22FA05FC86
:1009300044EA0C04203556EA044C4FEA144418BF2C
:10094000641C4FF000084FF00009904271EB030C5B
:1009500039D3002919BFB1FA81F701FA07F6B0FAC5
:1009600080F700FA07F6C7F120071EBF20FA07FC40
:1009700046EA0C062037B6FBF4FCA7EB0507103F50
:1009800007F01F0BCBF120060CFA0BFB2CFA06F636
:1009900044BFB3460026202FA4BF5E464FF0000B95
:1009A0005BEA060C08BF4FF0010B19EB0B09ABFB20
:1009B000027C48EB0608C01B06FB02CC0BFB03CCF9
:1009C00071EB0C01C1E70B46024641464846BDE8C3
:1009D000F08B13B54FF000004FF00001AFF3008033
:1009E000BDE81C40704770B5044685690068C106C3
:1009F00001D5302600E02026C00707D070BDD4E91D
:100A0000012130469047206A401C20626D1EF6D5B9
:100A100070BD70B5044685690078C00707D170BD08
:100A2000D4E9012120209047206A401C20626D1EDD
:100A3000F6D570BD09684A0501D540B27047C905B1
:100A4000FCD500B2704709684A0501D5C0B27047AD
:100A5000C905FCD580B270472DE9F0470D4699468F
:100A60009246044600F124080168880604D5E0692E
:100A700021F01001216000E00120A84201DD471BA8
:100A800000E00027A1697A1902EB0900081AA061A9
:100A90002078C00602D42046FFF7A5FF002608E014
:100AA000D4E901211AF806009047206A401C761C00
:100AB00020624E45F4DB2078C0060AD52046FFF7B9
:100AC00092FF06E0D4E9012130209047206A401CC3
:100AD0002062381EA7F10107F4DC07E0D4E9012108
:100AE00018F805009047206A401C2062281EA5F1D6
:100AF0000105F3DC2046FFF78CFF2078000602D5C5
:100B00000220BDE8F0870120FBE711680268006A57
:100B1000530501D508700AE0D30501D5088006E029
:100B2000130603D5C217C1E9000200E008600120E6
:100B3000704770472DE9FF4F0C461E464FF0FF37B8
:100B40008BB0D2E90001DDF860800A908A46C1F3DB
:100B50000A5505B93D46002108464FF00000BAF19C
:100B6000000F00F4400005DA00EB80004FF4400174
:100B700001EA50004FEA9059B9F1010F00DDB94682
:100B80000A9850EA4A000ED044F61050A5F2FF35FC
:100B900045432F14B8F1000F1ED07542291E1EDDEB
:100BA000C9F100021CE0B8F1010F4FF0000001D0C4
:100BB000302103E0F24305E02154401CB042FBDB4E
:100BC00030460022002121540B99C1F80880C1E968
:100BD00000200FB0BDE8F08FBD1B6D1CDEE74A465C
:100BE00000DA694206A800F0F1FD06AB93E80700C1
:100BF00003AB83E8070050460A9900F0FCFE8DE83D
:100C00000700A0F500501F3800900398002D0ADD62
:100C100042F21F014A460844002303A90390684694
:100C200001F065F909E0A0F500504A461F3800239D
:100C300003A90390684601F06FF98DE807000004EE
:100C4000000C03D04FF0FF30410800E01046B8F12F
:100C5000000F03D00022009215461EE0751E05D439
:100C600000F04AFB303262556D1EF9D5B3460122C1
:100C7000084302D000227F1C04E02078302801D1F4
:100C800000227F1E002A099784D01DE0112D07DA6B
:100C900000F032FB303262556D1C50EA0102F5D192
:100CA000084302D00098C8B10EE00021681E05E09C
:100CB000235C625C63542254401E491C8142F7DB72
:100CC000AB46A81B401E0990002004F80B000B98AF
:100CD000099AC0F80880C0E9002B7AE711264FF086
:100CE000000857E72DE9F04F88460446D21D22F050
:100CF000070191B0D1E90001CDE90A0106F01AFB24
:100D000002460B98C00F01D02D2007E02068810714
:100D100001D52B2002E0202101EAC000032A09901E
:100D200001D0072A05DB03464146204600F0A8FC17
:100D30000BE12078800601D5E06900E00620B8F1DB
:100D4000650F814606D0B8F1660F18D0B8F1670F6D
:100D500070D131E00020B9F1110F009001DB1123B7
:100D600001E009F101030AAA01A90CA8FFF7E2FEBC
:100D7000DDE90C70002609F10105834647E00120FA
:100D80004B4600904FF000470AAA01A90CA8FFF7B4
:100D9000D1FEDDE90DB00C995D46002610B909F1D0
:100DA00001000D18B9EB050003D4C0F1FF3609F1BD
:100DB0000105A5EB09002BE0B9F1010F01DA4FF0B5
:100DC00001090020B9F1110F0090484601DD1123FF
:100DD00000E003460AAA01A90CA8FFF7ABFEDDE973
:100DE0000C704D4600268346207800070AD4AB4598
:100DF00000DA5D4601A8012D04DD411911F8011C3E
:100E0000302907D04F4502DA17F1040F04DA012028
:100E100082460FE06D1EEEE7002F02DCED1B3E4424
:100E200003E0781CA84200DD7D1CB81B00F1010A1C
:100E30004FF000472078000703D4AA4501DB4FF0AC
:100E4000FF3A0021B7F1004F0DF143088DF8431030
:100E500024D002202B23002F01DA7F422D230A21E8
:100E6000021EA0F1010000DC5FB197FBF1FC97FBD3
:100E7000F1F201FB1C7C17460CF1300C08F801CD97
:100E8000EEE7A8F1010003702188090501D545218D
:100E900000E06521A0F1010800F8011C09980FA9E4
:100EA000A1EB0807FF1D00B10120411901EBEA7019
:100EB000A1693844081A401EA0612078C00602D4F7
:100EC0002046FFF790FD099828B1D4E90121904709
:100ED000206A401C20622078C00622D52046FFF7F9
:100EE00082FD1EE0002E04DBB34502DD01A8805D1B
:100EF00000E03020D4E901219047206A401C2062A4
:100F0000761CAAF101005FEA000A0AD100F0F0F9AC
:100F1000C0680168405CD4E901219047206A401C08
:100F20002062281EA5F10105DCDC07E0D4E90121DF
:100F300018F8010B9047206A401C2062381EA7F168
:100F40000107F3DC2046FFF764FD032011B041E602
:100F500001694A1C02610878704700B58FB0CDE97D
:100F600001310021059105497944CDE9031011466D
:100F70006846FFF7D7FA0FB000BD0000E5FFFFFF9E
:100F80000A6802F8010B0A607047D1E900239A420F
:100F900002D2531C0B601070704710B5436913B137
:100FA000AFF3008001E0FFF757FA012010BD12787F
:100FB00000F124010A7000224A700122EDE7116855
:100FC0004FF0FF32E9E700002DE9FF5F15468A4642
:100FD0000446DFF8AC80F8440027D8E900103E460C
:100FE000CDE9001010E03AF816106A4602A800F0A9
:100FF0005FFC411C07D02178890603D5E2693918C6
:1010000091420DD80744761C2078800602D5E0690D
:10101000B84205DDAE42E6DB3AF816000028E2D120
:10102000A069C01BA0612046FFF7DDFCD8E90010D5
:10103000CDE90010002017E03AF818106A4602A81F
:1010400000F036FCB0F1FF3F81460BD000250DF1DA
:10105000080B05E0D4E901211BF8050090476D1C41
:101060004D45F7D308F10100B0428046E4DB206A29
:10107000384420622046FFF7CCFCBDE8FF9F00000B
:101080008E8A00002DE9F0418046D21D22F0070231
:101090000025D2E90002F52915A614D0011E72F12F
:1010A000000106DA0023D0EB030063EB020211A675
:1010B00008E0D8F800108B0701D50FA602E0490719
:1010C00001D50EA601251146002408F1240704E0ED
:1010D00000F012F930323A55641C50EA0102F7D19F
:1010E0002B46324621464046BDE8F041FFF7B4BCEE
:1010F000000000002D0000002B0000002000000078
:1011000030B4002100F1240408E002F00705D20801
:10111000303542EA4372DB086554491C52EA030544
:10112000F3D10468002310A2250707D5A40600D434
:1011300021B1C46901230DA2641EC46130BCFFF754
:101140008BBC10B5044621461068FFF77CFC0246B4
:101150002046BDE810400023D2E7D21D22F007014F
:10116000D1E90023CCE700000000000030000000BF
:10117000F0B40D460188090502D5214C7C4402E0FB
:101180001F4C7C440E34002100F1240608E002F0DC
:101190000F071209E75D42EA03721B097754491CE5
:1011A00052EA0307F3D102780023120704D5702D09
:1011B00006D009B1022311342246F0BCFFF74CBC23
:1011C00001231034F8E770B504460D462146106837
:1011D000FFF739FC024629462046BDE8704000234F
:1011E000C6E7D21D22F00703D3E90023C0E7036856
:1011F000126843F0200303600823C3610023B7E7AC
:10120000F08800002DE9F04791460F4680460446DD
:10121000002614F8015B2DB100F062F80068405D13
:10122000C007F6D12B2D02D02D2D18D0641E4A46B2
:101230003946204600F07AFA27B13968A14201D137
:10124000C7F800804FF0020471050BD5404200281A
:1012500003DDFFF74DFB0460A007BDE8F08746F40F
:101260008066E4E70028F8DAFFF742FB04606FF0DD
:101270000040F2E710B5203AC0F00B80B1E81850FA
:10128000203AA0E81850B1E81850A0E81850BFF470
:10129000F5AF5FEA027C24BFB1E81850A0E818500F
:1012A00044BF18C918C0BDE810405FEA827C24BF63
:1012B00051F8043B40F8043B08BF7047D20728BFF1
:1012C00031F8023B48BF11F8012B28BF20F8023B40
:1012D00048BF00F8012B704700487047044E0020BB
:1012E00010B500F005F8001D10BD00BFB17A000078
:1012F00000487047244E002030B5B0F10A024FEA92
:10130000900E71F100034EEA817EB0EB0E0061EBAE
:1013100091014FEA101E4EEA017E10EB0E0041EBE8
:1013200011114FEA102E4EEA016E10EB0E0041EB48
:1013300011214FEA104E4EEA014E10EB0E0041EB28
:101340001141401841F100014FEAD00040EA4170DC
:101350004FEAD10110EB80054FEA810444EA907412
:1013600044EB01046D1944EB0404521BA3414FF0FC
:10137000000348BF0A3200D530BD401C41F10001D6
:1013800030BD00002DE9F04F04460D46D21D22F07D
:10139000070089B0D0E900974846394605F0CAFFF2
:1013A0000246F80F01D02D2307E02068810701D500
:1013B0002B2302E0202101EAC0038DF820300BB17D
:1013C000012000E00020032A824601D0072A04DB26
:1013D0002946204600F054F93FE12078800601D4E8
:1013E0000D2500E0E569C7F30A560D2D49DA002105
:1013F0004FEA175B08464FF00000002F00F4400052
:1014000007DA00EB80004FF4400100EBD07001EAF6
:1014100060008115012901DD4FF0FF3100224FEA04
:10142000850CBCF1180F06D31346ACF118004FF031
:101430008052C24003E04FF4801323FA0CF30CF106
:101440000C0CBCF1200F04D3ACF1200C09FA0CF009
:1014500001E007FA0CF000294FF0004801DD18B94F
:101460000FE00ED140450CD319EB02095F4121B9C1
:10147000404502D19F4329EA0209BBEB175F00D028
:10148000761C2088000502D57B48784402E07A4823
:101490007844193808AA302302F80A30037C0AF18C
:1014A0000101002E0AF1020A53546A4602DC4FF091
:1014B000300101E04FF031014FF001088DF80010CC
:1014C00002D0A6F2FF3603E059EA470100D06B4E86
:1014D000002D02DC2178090704D54FF002082E21E7
:1014E0008DF80110C44600210BE0C7F303433F0110
:1014F000C35C491C6D1E02F80830052908F101087B
:1015000001DA002DF1DC00210CE000EB1973491C1D
:101510001B786D1E082902F808304FEA091908F1F6
:10152000010801DA002DF0DC21688B0602D516E0F7
:10153000A8F10108E04505DD02EB080313F8013CC2
:10154000302BF5D0B8F1000F09DD02EB080313F8DA
:10155000013C2E2B03D1090701D4A8F10108002D6D
:1015600005DD3E2102F808106D1E08F10108407CDF
:10157000002E02F8080008F1010804DA2D20764256
:1015800002F8080002E02B2002F808000A214FF4BC
:101590007A70864208F101080BDB96FBF0F33033DA
:1015A00002F8083096FBF0F308F1010800FB13661F
:1015B00001E0642E0CDB642096FBF0F3303302F87C
:1015C000083096FBF0F308F1010800FB136601E018
:1015D0000A2E06DB96FBF1F0303002F8080008F125
:1015E000010896FBF1F001FB1060303002F80800B2
:1015F000A16908F1010808EB050202EB0A00081ACC
:10160000A0612078C00602D42046FFF7ECF9216AD9
:1016100008AE01EB0A00206204E0D4E9012116F8CB
:10162000010B9047BAF1010AF7D22078C00602D523
:101630002046FFF7D8F96E4609E016F8010B3E2860
:101640000FD0D4E901219047206A401C2062B8F1F4
:101650000108F2D22046FFF7DCF909B00320BDE80B
:10166000F08F206A2844206203E0D4E90121302071
:1016700090476D1EEBD3F8E71D86000002FCFFFFCC
:101680002DE9F0411F46044603260168072A01F4AC
:10169000006004DB08B116A505E016A503E008B15B
:1016A00015A500E015A521F010002060A069C01E5E
:1016B000A0610FB1401EA0612046FFF794F94FB121
:1016C000D4E9012138469047206A401C2062C01CA2
:1016D000206206E0206AFAE7D4E9012115F8010B3F
:1016E0009047761EF8D22046FFF793F9BDE8F081C7
:1016F0004E414E006E616E00494E4600696E6600B6
:1017000010B5436913B1AFF3008001E0FFF75CFC53
:10171000012010BD128800F1240182840022C284BD
:101720000122EDE711684FF0FF32E9E72DE9F05FA4
:10173000824615468B4600270AF10104B946007817
:10174000302801D09DB113E014F8010B012778284F
:1017500003D0582801D045B10AE00DB1102D07D1B2
:10176000002714F8010B102502E0082500E00A25E7
:101770000026B0460EE005FB080005FB06F1012738
:101780001FFA80F801EB1046B6F5803F00D3B9464A
:1017900014F8010B294600F0D0F80028EBDABBF171
:1017A000000F05D00FB1641E00E05446CBF8004096
:1017B000B9F1000F06D0FFF79BF802210160C81EA7
:1017C000BDE8F09F48EA0640FAE700002DE9F0473F
:1017D000814616468AB0354878440DC88DE80D001C
:1017E00032487844801C03AC0DC884E80D0041F6F3
:1017F0009B300844372190FBF1F290FBF1F5A5F105
:10180000800501FB12041B3C02D56442012000E06C
:101810000020DFF898A080460027FA44AAF1BE0A0B
:101820000EE0E0070AD03246684607EB4701012385
:101830000AEB810100F070FB8DE8070064107F1C4B
:10184000002CEED1194F7F44AE3F19E0E80715D0C8
:1018500007EB04100DF1180A90E80E008AE80E005C
:10186000C068F04201D1981908903246012306A9B8
:1018700003A800F051FB03AB83E807006D10641C64
:10188000002DE3D14FF0010332466946B8F1000F55
:1018900003A802D000F02BFB01E000F03DFBC9E9FA
:1018A0000001C9F808200AB0BDE8F0876083000095
:1018B00070B516460C460546FFF712FD036893F80F
:1018C0000101012806D0FF2C0FD8185D68B1012056
:1018D0002C7070BDD3F807013246214603F207137E
:1018E00003442846BDE8704018474FF0FF3070BDF4
:1018F0007546FFF7F1FCAE4605006946534620F0F9
:101900000700854618B020B5FEF710FDBDE8204061
:101910004FF000064FF000074FF000084FF0000BAB
:1019200021F00701AC46ACE8C009ACE8C009ACE85E
:10193000C009ACE8C0098D4670473A2800D230385B
:1019400020F02002412A01D3A2F13700884201D3BE
:101950004FF0FF30704710B50446AFF300802046CB
:10196000BDE81040FEF781BC4FF0013C50F8042B5D
:1019700051F8043B9A4221D1A2EB0C03934313EAA2
:10198000CC1317D150F8042B51F8043B9A4215D1CF
:10199000A2EB0C03934313EACC130BD150F8042BA6
:1019A00051F8043B9A4209D1A2EB0C03934313EA8A
:1019B000CC13DBD04FF00000704700BFD01A01BA43
:1019C000B1FA81F101F0180122FA01F0CB40C1F126
:1019D0002001DBB2C0B2C01A2CFA01F3D11A914334
:1019E00011EAC311E6D1704701491820ABBEFEE7EA
:1019F0002600020070475FEA400C08BF91F0000F1C
:101A00004FEA8C234FEAC12243EA51514FEA1C505E
:101A100018BF00F5F0404FEA300018BF41F0004118
:101A20005FEA6C5C00F02980BCF1FF3F08BF40F02A
:101A300080407047130C06BF12044FF0100C4FF09B
:101A4000000C130E04BF12020CF1080C130F04BF9C
:101A500012010CF1040C930F04BF92000CF1020C64
:101A6000D30F04BF52000CF1010C11464FF00002DD
:101A7000A0F11F00A0EB0C00704711F0004F08BF51
:101A8000704731F000413FF4D5AF0B0C06BF09049D
:101A90004FF0100C4FF0000C0B0E04BF09020CF1BC
:101AA000080C0B0F04BF09010CF1040C8B0F04BFD1
:101AB00089000CF1020CCB0F04BF49000CF1010CA2
:101AC000CCF12003A0EB0C0022FA03F302FA0CF293
:101AD00041EA030100F10100704720F07F4C80EAE9
:101AE000030023F07F47ACEB070303F57C5300F0C2
:101AF000004003F1FF032DE980494FEA154B09B47B
:101B00004FEA144325EA0B4E24EA03480FF2042659
:101B100006EB132749083E785FEA320203FB0667AB
:101B2000C7F5000707FB06F64FEA54374FEAD646DB
:101B300006F1020607FB066CCCF1005C4FEA1C477D
:101B40002CEA074C07FB06F40CFB06F504EB1546E4
:101B50004FEA961634BF00204FF000404FEAD137CD
:101B600006FB07FC4FEA1C4C0CFB0BF7D21B03FBDC
:101B70000CF761EB07010CFB0EF7B0EB074072EBC3
:101B800017420CFB08F734BFA2EB0742B2EB074247
:101B900061EB17414FEA0C444FEA910706FB07FC43
:101BA0004FEA1C4C0CFB0BF7B0EBC74072EB573203
:101BB00003FB0CF734BFA2EBC742B2EBC74261EBA9
:101BC00057310CFB0EF7B0EBC70072EB57720CFBF2
:101BD00008F734BFA2EBC702B2EBC70261EB577143
:101BE000039F4FEA816141EA921104EBCC044FEA72
:101BF000D1374FEA826206FB07FC42EA90124FEAB5
:101C000080604FEA1C4C0CFB0BF7D21B03FB0CF75C
:101C100061EB07010CFB0EF7B0EB074072EB1742CC
:101C20000CFB08F734BFA2EB0742B2EB074261EBB3
:101C300017414FEA8C554FEA910704EB9C2406FBB1
:101C400007FC4FEA1C4C0CFB0BF7B0EBC74072EBE8
:101C5000573203FB0CF734BFA2EBC742B2EBC742CB
:101C600061EB57310CFB0EF7B0EBC70072EB57720C
:101C70000CFB08F734BFA2EBC702B2EBC70261EB63
:101C8000577115EB4C254FEA816141EA92114FEAF9
:101C900082624FEAD13742EA901206FB07FC44F118
:101CA00000044FEA80604FEA1C4C0CFB0BF7D21B80
:101CB00003FB0CF761EB07010CFB0EF7B0EB0740E1
:101CC00072EB17420CFB08F734BFA2EB0742B2EBF2
:101CD000074261EB174115EB1C154FEA813141EAD0
:101CE00092414FEA823242EA90424FEA80304FEA14
:101CF0000C7644F1000448EA03434EEA0B484FF0E7
:101D0000000EB2EB080C71EB030724BF62463946A4
:101D10004EEB0E0E4FF0000B0018524149414BEBB9
:101D20000B0BB2EB080C71EB03077BF1000B24BF2C
:101D3000624639464EEB0E0E4FF0000B0018524132
:101D400049414BEB0B0BB2EB080C71EB03077BF13A
:101D5000000B24BF624639464EEB0E0E51EA0207D5
:101D600018BF46F0010616EB0E7655F1000254F14D
:101D7000000103D5BDE88901BDE80088BDE88901FF
:101D8000BDE80048B619524141EB0101A3F101033E
:101D9000704780807F7E7D7C7B7A797877767675D8
:101DA0007473727171706F6E6E6D6C6C6B6A6A6950
:101DB0006868676666656464636362616160605FEA
:101DC0005F5E5E5D5D5C5C5B5B5A5A595958585763
:101DD00057565655555554545353525252515150CB
:101DE00050504F4F4F4E4E4D4D4D4C4C4C4B4B4B1E
:101DF0004A4A4A4949494848484747474746464664
:101E0000454545444444444343434342424242419E
:101E10004141002B9C4630D477002BD01CB54FEAB3
:101E2000370703B44FF010004FF01001BAF1000F64
:101E300006D0BCF1000FDCBF40F0080040F0080104
:101E40004FF000000FBCBDE810400BF1010BBBF1DF
:101E5000010F08BF5FEA170722BF12F1010211F15B
:101E600001014FF0004143F1000300F0004043EA5C
:101E700000007047F9D35708D0E746EA064613F149
:101E8000400F4FEA16461FDD13F1200FDFBF164348
:101E90000A46002120335B42BED0C3F1200746EA48
:101EA000064602FA07F74FEA164646EA0706C3F166
:101EB000200722FA03F201FA07F721FA03F14FF0A3
:101EC000000342EA0702A7E746EA020646EA064698
:101ED0004FEA164646EA0106BCBF46EA0646360CFD
:101EE0004FF000034FF000024FF0000194E72DE99E
:101EF000804C9A46934670B491E8380007C831EA9E
:101F0000400C48BF34EA430C03D5FFF7E6FDFFF76A
:101F100080FFF0BCBDE8008C2DE9804C9A469346CA
:101F200070B491E8380007C810F0804F08BF13F074
:101F3000804F03D100F005F8FFF76BFFF0BCBDE860
:101F4000008C20F07F4780EA030023F07F4C07EBF2
:101F50000C03A3F57C5300F00040A3F1FE0392F0C4
:101F6000000F00F0B38095F0000F00F077802DE9AE
:101F700001494FEA11404FEA144621EA004800FBAC
:101F800006FC24EA064708FB06F607FB08F800FBF8
:101F900007F718EB06484CEB164C4FEA124B18EBC0
:101FA00007484FEA15464CEB174022EA0B4E0BFB55
:101FB00006FC25EA06470EFB06F607FB0EFE0BFBAA
:101FC00007F71EEB064E4CEB164C4FF000061EEBCF
:101FD000074E4CEB174B18EB0B0840F1000018EBC9
:101FE0000E0B58EB000840F100008F1A4FF0000173
:101FF0003CBFC943661B14BFB5EB040C00213CBFBA
:10200000C943F61B4FEA17444EEA8E0E27EA0445F1
:102010004FEA1C4704FB07622CEA074C05FB07F755
:102020000CFB05F604FB0CFC16EB074642EB1742D3
:1020300016EB0C4642EB1C421BEB060658EB020269
:10204000414146EA9E0601D5BDE80189B6195241D3
:1020500041EB0101A3F10103BDE801894FEA1445F9
:102060004FEA114724EA054621EA074C05FB07F42D
:1020700006FB07F70CFB06F105FB0CFC11EB074117
:1020800044EB17444FEA124711EB0C4144EB1C445C
:1020900022EA074C05FB07F206FB07F70CFB06F6E6
:1020A00005FB0CFC16EB074642EB174216EB0C4601
:1020B00042EB1C456A1854F1000148BF7047B6193D
:1020C000524141EB0101A3F10103704795F0000F6C
:1020D00037D04FEA11424FEA144721EA024624EA78
:1020E000074C02FB07F106FB07F70CFB06F402FBAB
:1020F0000CFC14EB074441EB17414FEA154714EB76
:102100000C4441EB1C4125EA074C02FB07F506FB9A
:1021100007F70CFB06F602FB0CFC16EB074645EB3B
:10212000174516EB0C4645EB1C42121951F1000104
:1021300048BF7047B619524141EB0101A3F10103B9
:1021400070474FEA14454FEA114724EA054621EA51
:10215000074C05FB07F106FB07F70CFB06F24FF0F7
:10216000000605FB0CFC12EB074241EB174112EB9A
:102170000C4251EB1C4148BF7047921841EB0101E2
:10218000A3F101037047000070B504460068816840
:10219000C943C90717D1816821F00101816001F0AD
:1021A00051FC05460AE000BF01F04CFC401B022830
:1021B00004D920688068C043C00706D020688068C2
:1021C000C043C007F0D0002070BDA06A40F01000EE
:1021D000A062E06A40F00100E062012070BD0000F2
:1021E000F8B500260446009600688168C943C9070F
:1021F0002DD0816841F001018160164816490068C0
:10220000B0FBF1F000E0401E00900028FBD101F08F
:1022100019FC054616E000BF01F014FC401B022823
:1022200010D920688068C043C0070BD0A06A40F076
:102230001000A062E06A40F00100E06284F82460CF
:102240000120F8BD20688068C043C007E4D10020A9
:10225000F8BD00005800002040420F0008B50122E0
:102260006946D02000F0C0F9002819D100F01CF810
:10227000002815D10121F22000F0C4F900280FD167
:102280002721F42000F0BEF9002809D1A021F52073
:1022900000F0B8F9002803D102490120087300209A
:1022A00008BD00007C01002010B588B01A226946E4
:1022B000882000F099F9002847D1254CBDF800008E
:1022C00007222080BDF802006080BDF80400A080D5
:1022D000BDF80600E080BDF808002081BDF80A00C6
:1022E0006081BDF80C00A081BDF80E00E081BDF852
:1022F00010002082BDF812006082BDF81400A08298
:10230000BDF81600E0829DF8190020766946E120AC
:1023100000F06AF9002818D1BDF8000060839DF82C
:10232000020020779DF804009DF80320014662F327
:102330001F11E1839DF80510090141EA1010208466
:102340009DF8060084F82200002008B010BD0000AF
:10235000540100202DE9F74F9F4884B0007B0028EE
:102360007ED008226946F72000F03EF9002878D197
:102370009DF800009DF80110000340EA01109DF84F
:102380000210954C40EA111B9DF803009DF80410C3
:10239000000340EA01109DF80510283C40EA1111A5
:1023A000BDF8060040BA03902288C810A0EB420096
:1023B000C2EB2111B4F902304943B4F9042043437C
:1023C0000913D8124A4300EBA23000EB80018031A0
:1023D0000912606202918149C2178146411842F197
:1023E000FF30A1FB0123B4F9105000FB0133A2FB25
:1023F00005C701FB003A0AFB0573EE1702FB06381E
:10240000B4F90E30A3FB0167DD1705FB017503FB73
:1024100000535B04750443EAD63315EB0C0543EB1C
:10242000080315F1000EB4F90A50B4F90C60A2FBD0
:10243000057C43EBC6080AFB05C34FEAE57602FBC1
:102440000632B4F908504FEA1723A5FB017C4FEA86
:10245000E57606FB01C105FB001043EA026301E0DB
:1024600093E093E04FEA00314FEA073041EA175119
:10247000181841EB2222001CE18842F50043A0FB22
:10248000016503FB0151002200FB02104210C3173B
:1024900052EA03007DD04FF48016DBEB06010020EA
:1024A00060EBEB704FEAC07545EA51054FEAC17128
:1024B000B1EB0E0140F63547A1FB070C65EB0805B3
:1024C00005FB07C5002601FB0651FDF754FFB4F9D3
:1024D0001650420B42EAC142A5FB027CEE1706FBF6
:1024E00002C64B1305FB0365A7FB026C05FB02C28A
:1024F00007FB0323720E42EAC3124FEA636CB4F97E
:102500001430A3FB0067DD1705FB007503FB0155C5
:10251000F30C801843EA453341EB0C01C01841EB42
:10252000E5414FEA016242EA1021B4F912004FEA94
:1025300000100D180399E28B4FEA8131A1EB025193
:10254000B4F92020A9F5963002FB1010A0F58040C8
:102550004FEAE0304FF4405101EBC030B4F91A10AB
:1025600094F9222001F5004100FB01F04FEAA04060
:102570004FEAE03101FB01F14FEAE11101FB1200EA
:10258000011108D500210BE003E0012007B0BDE8F0
:10259000F08F0025CEE74FF0C850814200DD0146A4
:1025A0000C13029806F06CFD0D4906F0A7FC049987
:1025B0000860204606F064FD6FF0090106F081FE18
:1025C00005990860284606F05BFD064906F096FC72
:1025D000069908600020D9E77C010020000CFEFF6E
:1025E0000000C8420000C8460EB54FF0FF338DE82A
:1025F0000E0002460123EC21014801F0EDFA0EBD68
:102600009402002003B583B04FF0FF33012204A9E8
:102610008DE80E0013460246EC21024801F00AFC48
:1026200005B000BD94020020FEE700002DE9FC414A
:102630008846074615461146D0F84432404618A24F
:10264000FDF7EEFE84B2002606EBC60157F8310016
:10265000E8B107EBC1021AA31179022904D00129BC
:1026600004D0032904D004E017A302E018A300E07B
:1026700019A3521DCDE90002291B08EB040018A282
:10268000FDF7CEFE2044761C84B2082EDCDB02B0BF
:10269000291B08EB0400BDE8F04115A2FDF7C0BE00
:1026A0003D3D3D2044494147205245504F52542022
:1026B0005B256C75206D735D203D3D3D0D0A00006E
:1026C00050415353000000004641494C00000000B7
:1026D0005741524E00000000534B4950000000008B
:1026E00020205B25735D2025733A2025730D0A0099
:1026F0003D3D3D20454E44203D3D3D0D0A0000003E
:10270000F8B504464FF41271FEF7C8F801F09AF9D3
:10271000C4F8400201F096F9054600F03FF908B10F
:1027200049A600E04AA600F039F908B1002300E00C
:1027300002234AA200212046009604F026FE00F063
:10274000FDF808B148A600E04BA600F0F7F808B184
:10275000002300E002234AA201212046009604F053
:1027600014FE00F037F908B146A600E049A600F0D3
:1027700031F908B1002300E0022349A202212046DA
:10278000009604F002FE00F061F908B145A600E0F1
:1027900046A600F05BF908B1002300E0022346A240
:1027A00003212046009604F0F0FD00F02FF908B157
:1027B00043A600E044A600F029F908B1002300E098
:1027C000022344A204212046009604F0DEFD00F01E
:1027D000C9F808B141A200E042A200F0C3F808B174
:1027E000002300E00223009242A20521204604F0CB
:1027F000CCFD00F020F908B140A600E041A600F0B1
:102800001AF908B1002300E0022341A20621204664
:10281000009604F0BAFD00F0B1F808B13EA200E065
:1028200041A200F0ABF808B1002300E002230092BF
:1028300040A20721204604F0A8FD01F003F9401B47
:10284000C4F84402F8BD000069643D3078363000B9
:102850006E6F206465766963650000004932435FEE
:10286000424D453238300000636F6E766572736991
:102870006F6E206F6B00000074696D656F7574007A
:1028800041444300636F6C6F7220746573742064FD
:102890006F6E650066736D63206572726F72000003
:1028A0004C4344007478206F6B00000074782066FD
:1028B00061696C65640000005541525400000000DD
:1028C00070776D206F6B000070776D206572726F8E
:1028D000720000004D4F544F520000007277206F7D
:1028E0006B000000726561646261636B2066616900
:1028F0006C00000046534D430000000064617461A9
:10290000206F6B0072656164206661696C00000075
:1029100053454E534F520000706172616D206172D9
:102920006561206F6B000000756E6578706563747B
:1029300065640000464C41534800000010B508484B
:1029400000F0B6FB3221064800F014FB04460448B0
:1029500000F00EFC0CB1002010BD012010BD0000E5
:102960001C0200204FF0C0414AF65520088009881B
:10297000814201D10120704700207047054800685E
:10298000411C02D00449884201D101207047002037
:102990007047000000F8070853524E451FB500204D
:1029A0008DF80C000121642203A88DE807000B4676
:1029B000D022EC21064801F00FF918B99DF80C005F
:1029C000602802D0002004B010BD0120FBE7000009
:1029D0009402002010B502F0FDFE4FF4784002F0A2
:1029E00073FE642000F034FE4FF4FC6002F06CFED5
:1029F000642000F02DFE1F2002F066FE642000F02F
:102A000027FE002002F060FE012010BD10B503F08B
:102A100005FA322003F036FAC82000F019FE03F060
:102A2000CBFA322003F07AFAC82000F011FE03F04E
:102A3000C6FA012010BD0EB502AA01A96846FFF72B
:102A400089FC08B100200EBD01200EBD1FB50FA3EB
:102A50000FCB8DE80F006846FDF747FE82B2642376
:102A600069460E4802F0BEFB04466846FDF73DFE8F
:102A700082B2642369460A4802F0B4FB044302D0E0
:102A8000002004B010BD0120FBE700005541525466
:102A90005F544553545F4F4B0D0A00003003002034
:102AA00078030020014800F039BC0000C00300207A
:102AB000014800F033BC00000404002030B590F859
:102AC00040500124AC40C56B6C600468636043688F
:102AD000102B036803D099600068C26030BD9A6013
:102AE0000068C16030BD704772B6FEE7064900203D
:102AF000C8610648016941F004010161016941F0C2
:102B000040010161704700001005002000200240D4
:102B1000064A0021D16106490A6942F002020A61AF
:102B20004861086940F040000861704710050020C6
:102B300000200240044B0022DA61044A136943F08A
:102B4000010313610180704710050020002002403E
:102B500014480022C168CB06134904D5CA6942F063
:102B60000202CA611022C3685B0705D5CB6943F036
:102B70000103CB6142F00402C369DB0707D0CB69D4
:102B800043F00403CB61C16921F00101C161A2F5E9
:102B90008071013901D0C2607047C16921F0010123
:102BA000C1617047002002401005002070B5054645
:102BB00000F048FF0646114C09E0681C07D025B11B
:102BC00000F040FF801BA84201D9032070BDE068DF
:102BD000C007F2D1E068800601D52020E060E068FF
:102BE000C00605D4E069C00702D1E068400703D5FC
:102BF000FFF7AEFF012070BD002070BD0020024035
:102C000030B5B3F5804F05D06FF0704140F8221019
:102C1000002030BD8C690B688D6823434C6889891E
:102C2000240144EA0524234343EA014150F82230B9
:102C3000014C23401943E9E70000F0CF10B50A68C2
:102C400050F8223023F0010340F822308C68082C21
:102C500023D000234A682243CC681C430B692243DB
:102C60001A434B690E4C1A43CB691A430B6A1A4339
:102C70004B6A1A438B6A1A43CB6A1A430B6B1A438B
:102C80008B6913434A6B09681A4350F82130A343F8
:102C9000134340F82130002010BD4023DAE7000044
:102CA0007FFF0F0030B5D1E9003443EA04138C688C
:102CB0008D89240244EA054423430C8A074D00EB26
:102CC000820005EB045423430C7D6D0105EB046485
:102CD000896923430B434360002030BD0000F0FFAF
:102CE0000148007870470000440000200148406817
:102CF0007047000044000020F8B50024009490F8CC
:102D000024202546012A12D0012280F824204A6876
:102D10001F23072A0DD20668776B521E02EB820230
:102D200093409F430B6893401F43776319E0022051
:102D3000F8BD06680D2A0AD2376BD21F02EB820259
:102D400093409F430B6893401F43376309E0F76A42
:102D50000D3A02EB820293409F430B6893401F435E
:102D6000F7620A68072306680A2A0AD3F7680A3A4C
:102D700002EB420293409F438B6893401F43F760EE
:102D800008E0376902EB420293409F438B6893400F
:102D90001F4337610A68102A01D0112A20D1124B33
:102DA00002689A4217D193681B0219D4936843F4BE
:102DB000000393600968102912D10C490C4A096874
:102DC000B1FBF2F101EB8101490000E0491E0091E5
:102DD0000029FBD104E0816A41F0200181620124D5
:102DE00080F824502046F8BD0024014058000020FF
:102DF00040420F000068C06C704700002DE9F041B0
:102E000004004FF000057FD0A06A002628B9E662D2
:102E100084F82460204600F081F82046FFF7B4F9DA
:102E2000A16AC90600D420B1A06A40F01000A062D7
:102E30006AE0A16A21F4885141F00201A16233499C
:102E400023688B42E16904D1B1F5402F01D14FF4E1
:102E50000021277B4FF4807C41EA470261680A43E6
:102E6000A168614508D0012906D0002194F814E03A
:102E7000BEF1010F02D00AE06146F7E7C7B1A76AC9
:102E800047F02007A762E76A47F00107E7625F683B
:102E900027F469470F435F60236899681C4F3940E6
:102EA00011439960A16861450BD0012909D00CE05C
:102EB000DFF860E0A7690EEB47370F4347F4006186
:102EC000E5E7218A0D05A5F580152168CB6A23F475
:102ED00070032B43CB62216889680F4B19409142E4
:102EE00008D1E662A16A21F0020141F00101A1626C
:102EF000BDE8F081A06A20F0020040F01000A0625E
:102F0000E06A40F00100E0620120F1E7003C01408E
:102F1000FDF7E1FF00E0FFFFFE0E1FFF00B585B0EB
:102F20000021009101910291039100680E498842AD
:102F300018D10E48816941F400718161816901F401
:102F400000710491816941F01001816180696946D5
:102F500000F0100004900520009003200190044828
:102F600000F06EFC05B000BD0024014000100240DE
:102F7000001001402DE9F84300270D460446009754
:102F800000F060FD804620688168C90508D5A06A08
:102F900040F02000A06284F824700120BDE8F8838E
:102FA0004168C90503D4C06A10F4700F2AD002200A
:102FB00001F0D0F83B490968B1FBF0F620680369DD
:102FC00039490B424FEA61014FEAA1121FD1C36890
:102FD0004FEA611C13EA0C0F19D103690B4225D18A
:102FE000C068104222D1142023E0681C0AD02DB101
:102FF00000F028FDA0EB0800A84203D92068006873
:10300000800725D5206800688007EED52DE003698C
:103010000B4202D1C168114206D0026923490A421B
:1030200006D1C068084203D1542002E0292000E004
:10303000FC204643009816E0681C11D02DB100F02A
:1030400001FDA0EB0800A8420AD90098B04207D2BF
:10305000A06A40F00400A06284F8247003209DE779
:103060000098401C0090B042E6D321686FF0120037
:103070000860A06A40F40070A06220688068C0F315
:10308000424007280CD1207B50B9A06A20F4807000
:10309000A062A06AC00403D4A06A40F00100A0624C
:1030A00000207BE758000020244992244992240004
:1030B00070B5044690F8240001280DD0012084F852
:1030C00024002046FFF78CF802004FF0000005D0E6
:1030D00084F82400104670BD022070BDA16A40F241
:1030E0000123994341F48071A1621F4D23681F4958
:1030F000AB4218D10E6816F4702F14D0A66A46F4AD
:103100008016A6620E68760505D5A66A26F40056D6
:1031100046F48056A662A66AF6040AD5E66A26F048
:103120000606E66206E0A66A26F48016A6625E68D7
:10313000E9E7E06284F824006FF00200186020687C
:103140008368C3F34243072B05D1A84208D109681D
:1031500011F4702F04D0816841F480118160B9E7C7
:10316000816841F4A001F9E70028014004240140EE
:1031700010B5044690F82400012807D0012084F8F7
:1031800024002046FFF700F810B107E0022010BD30
:10319000A16A21F4885141F00101A162002184F863
:1031A000241010BD10B590F821100022022905D07E
:1031B0000421816380F82020012010BD01680B6884
:1031C00023F00E030B6001680B6823F001030B6012
:1031D00090F84030C46B012101FA03F3636080F87A
:1031E000211080F82020104610BD00002DE9F05F6E
:1031F00090F821100024022903D0042181630124C6
:1032000085E001680A6822F00E020A6001680A6817
:1032100022F001020A603F4E3E4FB215DFF8F4C0C3
:10322000DFF8F090DFF8ECA0DFF8E8B0DFF8E4E0DA
:103230000168783F13011502ACF1640CA9F1500943
:10324000AAF13C0AABF1280BAEF1140E4FF4801832
:10325000B14227D9B9420ED0614512D049451DD09F
:10326000514518D0594518D0714501D1424615E055
:10327000294EB14201D1012210E0274E1436B1424D
:1032800001D110220AE0244E2836B14206D0224A4B
:103290003C32914201D11A4600E02A461E49091FDC
:1032A0000A602BE0B94213D0614517D0494522D0BE
:1032B00051451DD059451DD0714501D142461AE0F6
:1032C000B14202D14FF0807215E0134EB14201D1EC
:1032D000012210E0104E1436B14201D110220AE052
:1032E0000D4E2836B14206D00B4A3C32914201D1F4
:1032F0001A4600E02A46074980394A60012180F8D1
:103300002110002180F82010416B01B18847204630
:10331000BDE8F09F80000240080402402DE9F05F04
:10332000C16B0A6801680B68046C4FF0040808FA66
:1033300004F8844D844E854FDFF814C2DFF81492F0
:10334000DFF814A2DFF814B2DFF814E218EA020F73
:1033500065D05FEA437862D50A68920603D40A68AA
:1033600022F004020A60DFF8F0814FF48062016805
:1033700008F1140813011402414524D9A9420DD0C3
:10338000B1420FD0B9421AD0614515D0494515D088
:10339000514501D1120312E0594501D104220EE03A
:1033A000714501D140220AE06D4D1435A94206D085
:1033B0006B4A2832914201D11A4600E02246674901
:1033C000091F0A6029E0A94213D0B14215D0B942C1
:1033D00020D061451BD049451BD0514502D14FF447
:1033E000800217E0414502D14FF0806212E059455A
:1033F00001D104220EE0714501D140220AE0584D6E
:103400001435A94206D0564A2832914201D11A46B3
:1034100000E022464B4908394A60C16A71E04FF02A
:10342000020808FA04F818EA020F70D05FEA8378FD
:103430006DD50A68920606D40A6822F00A020A606C
:10344000012180F82110DFF810814FF4007201682B
:1034500008F1140813011402414524D9A9420DD0E2
:10346000B1420FD0B9421AD0614515D0494515D0A7
:10347000514501D1120312E0594501D102220EE05B
:10348000714501D120220AE0354D1435A94206D0FC
:10349000334A2832914201D11A4600E022462F4990
:1034A000091F0A6029E0A94213D0B14215D0B942E0
:1034B00020D061451BD049451BD0514502D14FF466
:1034C000001217E0414502D14FF0007212E0594559
:1034D00001D102220EE0714501D120220AE0204DE7
:1034E0001435A94206D01E4A2832914201D11A460B
:1034F00000E02246134908394A60002180F8201074
:10350000816A00291CD0BDE8F05F0847FFE7082565
:10351000A540154214D01A0712D50A6822F00E02EF
:103520000A6090F84020C36B012101FA02F25A6050
:10353000816380F82110002180F82010016BE0E702
:10354000BDE8F09F080002401C000240300002402D
:1035500044000240580002406C000240080402404F
:103560001C04024030B560B11A4B026814219A4223
:1035700009D2194B1344B3FBF1F1890001641749D7
:103580000AE0012030BD134B5B421344B3FBF1F161
:10359000890001640F490839C163022180F82110B4
:1035A000136843F6F0718B43F0E901142143D0E92D
:1035B00002452C4321430469214344692143846922
:1035C00021431943116000214163012242770177B1
:1035D000084630BD08040240F8FFFDBF000002406D
:1035E00070B5044690F82000002501280CD0012079
:1035F00084F8200094F821600020012E06D084F881
:1036000020000225284670BD022070BD022684F8E5
:103610002160A0632068066826F001060660204647
:10362000FFF74CFAE06A00282068016802D041F0F8
:103630000E0106E021F0040101602068016841F0FC
:103640000A0101602068016841F001010160D9E7C9
:1036500070B5044600F0F6F90546601C02D0044837
:103660000078044400F0EEF9401BA042FAD370BD8C
:103670004C0000202DE9F047054626480F4601265C
:10368000017E01290FD00121814601762868DFF8EB
:1036900088804CF25034022808D0A2462046FFF71A
:1036A00085FAA8B131E00220BDE8F0872046FFF797
:1036B0007DFA08BB0120FFF719FA2046FFF776FADA
:1036C000D8F81010064621F00401C8F810101CE0CC
:1036D0004FF0FF303860AC6811E02046FFF718FA71
:1036E0005046FFF763FAD8F81010060021F00201E7
:1036F000C8F8101001D03C6007E004F50064D5E97B
:10370000020100EBC120A042E7D8002189F818107F
:103710003046C9E710050020002002400348016937
:1037200041F080010161002070470000002002404C
:103730002DE9F05F07461C4888460024017E1546A7
:103740001E46012909D00121814601764CF2503AEA
:103750005046FFF72BFA18B122E00220BDE8F09F97
:10376000012F02D0022F00D00427D346DFF83CA05F
:10377000220128463146FCF7EBFD81B208EB4400FC
:10378000FFF7D8F95846FFF711FADAF8102022F0BF
:103790000102CAF8102018B9641CE4B2BC42E7D395
:1037A000002289F81820D9E71005002000200240E7
:1037B000064900200A69120607D5054A4A60054AEB
:1037C0004A600969090600D50120704700200240BF
:1037D00023016745AB89EFCD30B585B0002000905F
:1037E0000190029003901248016800291ED1012126
:1037F00001601048416941F48071416140690224CF
:1038000000F4807004904FF68070CDE90004032529
:1038100069460395084800F013F84CF6B370CDE9FB
:10382000000469460395054800F00AF805B030BD6C
:103830003C0000200010024000180140001401402C
:103840002DE9F84FDFF8C8910024A9F1040B2346B5
:103850000F2709F1040AABF1040ED1E00125A540C0
:1038600006EA0502AA4276D1DFF8A8C14E68A6EBA7
:103870000C0866452BD00DDC032E34D005DC36B3A6
:10388000012E19D0022E2FD11BE0112E16D0122E90
:103890002AD119E0B8F5881F19D006DCB8F5803FA9
:1038A00015D0B8F5801F1FD111E0B8F5001F0ED05C
:1038B000B8F5041F18D10AE0CB6815E0CB681B1DD2
:1038C00012E0CB6808330FE0CB680C330CE08B6858
:1038D0002BB1012B4FF0080303D0456104E0042312
:1038E00002E0056100E00023FF2A01D8064601E05E
:1038F00000F104064FEA840501D9A5F12005D6F8A8
:10390000008007FA05FC28EA0C0803FA05F548EAE6
:103910000508C6F800804D68ED0070D53E4DAE69D3
:1039200046F00106AE61AD6924F0030605F001051D
:1039300000953A4D06EB050CDCF80850A607360F4B
:1039400007FA06F825EA0805DFF8D480404503D1D8
:103950004FF0000825E052E0DFF8C880404502D172
:103960004FF001081DE0DFF8C080404502D14FF064
:10397000020816E0DFF8B480404502D14FF003089A
:103980000FE0DFF8AC80404502D14FF0040808E0BA
:10399000DFF8A080404502D14FF0050801E04FF06C
:1039A000060808FA06F848EA0508CCF808804D68C9
:1039B000D9F80060ED024D4601D5164300E096436C
:1039C0002E604D68DAF80060AD02554601D5164309
:1039D00000E096432E604D68DBF80060AD035D4665
:1039E00001D5164300E096432E604D68DEF8006076
:1039F000ED03754601D5164300E096432E60641C26
:103A00000A681646E2407FF429AFBDE8F88F00004F
:103A100008040140000011100010024000000140A5
:103A200000080140000C014000100140001401405A
:103A300000180140001C01400AB1016170470904EF
:103A4000FBE7000001488068704700004C00002040
:103A500070B5040025D094F83D00002520B984F805
:103A60003C50204600F07EFA242084F83D00206877
:103A7000016821F0010101602068016841F4004102
:103A800001602068016821F40041016000F0EAFC57
:103A90004D4A6168914201D84C4900E04C49884246
:103AA00001D2012070BD4B492368B0FBF1F15E6883
:103AB00026F03F060E435E606368934206D94FF4DA
:103AC000967359434FF47A73B1FBF3F12368491CA1
:103AD0001E6A26F03F06314319626168914210D890
:103AE0004900401EB0FBF1F2521CC2F30B02042A43
:103AF00001D2042022E0B0FBF1F0401CC0F30B0027
:103B00001CE0A268F2B301EBC10303EB0116431EF4
:103B1000B3FBF6F35B1C43F480431B0549D092B31F
:103B200001EBC10202EB0111401EB0FBF1F0401CA1
:103B3000C0F30B0040F4804040F400402168CA69A3
:103B40004CF6FF739A431043C861D4E90710014350
:103B50002068026822F0C00211430160D4E9030129
:103B600001432068826848F2FF339A431143816021
:103B7000D4E9050108432168CA6822F0FF02104316
:103B8000C86001E00EE016E02068016841F0010124
:103B900001602564202084F83D00256384F83E50B0
:103BA000002070BD01EB4106431EB3FBF6F35B1C26
:103BB000B3E70120C2E701EB4101401EB0FBF1F089
:103BC000401CC0F30B00B7E7A086010080841E00F4
:103BD00000093D0040420F002DE9FF4F83B0002552
:103BE000DDE910799A4693460446DDF84880009551
:103BF000FFF728FF064694F83D0020287CD11923C2
:103C0000012288492046009601F054FC0028F5D195
:103C100094F83C0001286FD0012084F83C00206813
:103C20000168C90703D1016841F001010160206802
:103C3000016821F400610160222084F83D004020E9
:103C400084F83E0025646762A4F82A90608D208580
:103C50007548E062CDE9008653465A4620460499ED
:103C600001F02AFB00287CD1208DDFF8C0912027AD
:103C700068B1012814D00228206801681ED041F4E0
:103C8000806101602068416980690090BCE0206823
:103C9000416981690091016841F400710160B3E0FC
:103CA0002068016821F48061016072B62068416972
:103CB00081690091016841F400710AE041F40061FA
:103CC000016072B62068416981690091016821F440
:103CD0008061016062B697E0032865D801280CD0A6
:103CE000022843464FF000024946204600960BD07A
:103CF00001F0E0FBA8BB0CE091E0324641462046D3
:103D000001F07EFC68BB72E001F0D4FB48BB72B6E8
:103D100033E02068016821F48061016072B6206898
:103D20000069616A0870606A401C6062208D401EF4
:103D30002085608D401E60853D4846F2A8110068D0
:103D4000B0FBF1F0C0EBC00000EB80000090401E23
:103D5000009007D020684069C04340070DD5009807
:103D6000F5E727E044F8305F6773A573206940F0FA
:103D70002000206162B625731CE02068016841F4D0
:103D80000071016020680069616A0870606A401C07
:103D90006062218D491E2185618D491E618562B653
:103DA00021680969017026E032464146204601F04B
:103DB00027FC18B1012007B0BDE8F08F206800692A
:103DC000616A0870606A401C6062208D401E81B28A
:103DD0002185608D401E608520684269D24352076C
:103DE00012D4032903D1016821F4806101602068A5
:103DF0000069616A0870606A401C6062208D401E24
:103E00002085608D401E6085208D00287FF464AF82
:103E100084F83D7084F83E5084F83C50CBE7022093
:103E2000C9E70000020010000000FFFF04000100CD
:103E3000580000202DE9FF4F83B09A46DDE9119725
:103E400093460446DDF84080FFF7FCFD054694F8F4
:103E50003D0020287FD119230122404920460095AA
:103E600001F028FB002876D194F83C00012872D09C
:103E7000012084F83C0020680168C90703D101686B
:103E800041F0010101602068016821F400610160D6
:103E9000212084F83D00402084F83E00002626645E
:103EA000C4F82480A4F82A90608D20852C48E06214
:103EB000CDE9007553465A462046049901F07AFA36
:103EC00070B930E02A463946204601F0D1FB58B19E
:103ED000206C042804D12068016841F4007101605D
:103EE000012007B0BDE8F08F606A216800780861A2
:103EF000606A401C6062218D491E89B22185628DF5
:103F0000521E628522685369DB435B070BD469B19B
:103F100000781061606A401C6062208D401E208520
:103F2000608D401E6085208D0028CBD12A46394601
:103F3000204601F093FA0028CAD154F83D0B0168DD
:103F400041F400710160202004F81E09E6776677CD
:103F50000020C6E7FFE70220C3E7000002001000D0
:103F60000000FFFF10B586B0002100910191029181
:103F7000039100680F4988421AD10F4CA06940F0A4
:103F80000800A061A069694600F008000490C02004
:103F9000009012200190032003900848FFF750FC86
:103FA000E06940F40010E061E06900F40010049062
:103FB00006B010BD0054004000100240000C01404B
:103FC0000248816802781144816070474C000020EB
:103FD000074810B5016841F010010160032000F0AE
:103FE000A7F80F2000F006F800F050F8002010BDF0
:103FF0000020024030B505461F4887B0C16941F036
:104000001001C161C06906A900F01000009001A86C
:1040100000F008FA0498B0B100F024FA4000174903
:10402000174AB0FBF1F11748491E0260416040F2A7
:10403000E7320021C0E903218160816100F05CFC6E
:10404000040003D015E000F00DFAE8E70D4800F099
:1040500081FC04000DD1362000F03CF8102D07D271
:1040600000222946362000F043F80748056000E0AA
:10407000012407B0204630BD0010024040420F002E
:1040800000100040C8040020500000200F4808B570
:10409000816941F001018161816901F001010091B3
:1040A000C16941F08051C161C069002200F08050B7
:1040B00000900F21901E00F01BF80548416821F088
:1040C000E06141F00071416008BD00000010024055
:1040D00000000140002809DB00F01F02012191408F
:1040E0004009800000F1E020C0F800117047000096
:1040F000F0B40E4B1B680C46C3F30223C3F1070553
:10410000042D00D90425191D072901D2002300E040
:10411000DB1E012606FA05F1491E214099409E400A
:10412000761E16403143F0BC03F018B90CED00E0E8
:10413000064900F0070208684FF6FF03184040EAFE
:104140000220034A10430860704700000CED00E0B5
:104150000000FA0510B501460020284C04292FD094
:104160000BDC012930D0022929D100F08BF96168DC
:10417000C1F38131491C49001FE0082920D01029D2
:104180001DD161682268D20119D51D48C1F383424F
:10419000C903805C0AD56168194AC1F34041921E87
:1041A000515C184AB2FBF1F1484301E0164948431B
:1041B0006168490203D440000321B0FBF1F010BD57
:1041C000BDE8104000F06EB9226AC2F30121012956
:1041D00003D1920701D5C80310BD022905D1626A37
:1041E000920702D549F6404010BD0329FCD1216851
:1041F0008903F9D54FF2244010BD000000100240A1
:104200002C9A000800127A0000093D002DE9F843BD
:1042100005460078354CC00754D0E0690026C00040
:1042200008D4E06940F08050E061E069012600F0C8
:10423000805000902E480168C90512D4016880465C
:1042400041F480710160FFF7FDFB074605E000BF08
:10425000FFF7F8FBC01B642823D8D8F80000C0057E
:10426000F6D5206A10F4407021D0A98801F440717D
:1042700081421CD0206A1F49012220F440700A604C
:1042800000220A602062C00711D0FFF7DBFB07465F
:1042900041F2883808E000BFFFF7D4FBC11B41455D
:1042A00002D90320BDE8F883206A8007F4D5206A8C
:1042B000696820F44070084320621EB1E06920F074
:1042C0008050E0612878800705D56068A96820F4EF
:1042D0004040084360602878C00605D56068696979
:1042E00020F48000084360600020DBE700100240FB
:1042F00000700040400442422DE9F0470F4605009F
:1043000061D0434E306800F00700B84209D23068EF
:1043100020F0070038433060306800F00700B842F2
:1043200051D128683B4C810712D5400703D56068FE
:1043300040F4E06060602878000703D5606840F4CE
:10434000605060606068A96820F0F0000843606019
:104350002878C00728D06868012810D02168022872
:1043600010D0890700292EDA616821F0030101438A
:104370006160FFF767FB804641F288390DE02168F4
:104380008903EFE78901EDE7FFF75CFBA0EB08018C
:10439000494502D90320BDE8F0876068696800F0EC
:1043A0000C00B0EB810FEFD1306800F00700B8428D
:1043B0000BD9306820F0070038433060306800F0D7
:1043C0000700B84201D00120E5E72878400705D56D
:1043D0006068E96820F4E0600843606028780007BE
:1043E00006D56068296920F4605040EAC100606029
:1043F00000F058F86168084AC1F30311515CC840E5
:104400000649086006480068FFF7F4FD0020C2E78F
:1044100000200240001002403C9A00085800002092
:10442000500000200F2202600C4A536803F003037F
:104430004360536803F0F0038360536803F4E06360
:10444000C36052684FF4E06303EAD2020261044899
:10445000006800F00700086070470000001002408C
:10446000002002400448054900684968044AC1F335
:104470000221515CC84070475800002000100240E3
:104480004C9A00080448054900684968044AC1F389
:10449000C221515CC8407047580000200010024003
:1044A0004C9A00080E4A51680E4801F00C03042B88
:1044B00011D0082B0FD10C48C1F38343C903C05C52
:1044C0000AD55168084AC1F34041921E515C054A21
:1044D0005043B0FBF1F07047044948437047000077
:1044E0000010024000127A001A9A000800093D00EC
:1044F0002DE9F84F040070D02078C04DC00749D096
:104500006868C0F38100012807D06868C0F38100A3
:10451000022809D16868C00306D52868800339D508
:1045200060680028E7D035E06068B0F5803F0BD0C8
:1045300010B1B0F5A02F11D0286820F48030286089
:10454000286820F4802002E0286840F48030286049
:10455000606890B1FFF776FA06460AE0286840F4F2
:1045600080202860F0E700BFFFF76CFA801B64280A
:1045700073D828688003F7D50CE0FFF763FA064686
:1045800005E000BFFFF75EFA801B6428F0D82868BA
:104590008003F7D420789A4E80074FF001094FF03E
:1045A000000839D5686810F00C0F07D06868C0F3B0
:1045B0008100022809D16868C00306D428688007F2
:1045C00014D52069012808D110E02069B0B1C6F8DF
:1045D0000090FFF737FA074605E00AE1FFF732FAE5
:1045E000C01B0228C4D828688007F7D528686169ED
:1045F00020F0F80040EAC10028600DE0C6F8008015
:10460000FFF720FA074604E0FFF71CFAC01B022858
:1046100023D828688007F7D4207800072CD579485C
:10462000A169D9B1C0F80090FFF70CFA074604E081
:10463000FFF708FAC01B02280FD8686A8007F7D571
:1046400071484FF4FA510068B0FBF1F0009000BFE0
:104650000098411E0091FAD20EE080E0C0F8008080
:10466000FFF7F0F9074604E0FFF7ECF9C01B02285A
:1046700075D8686A8007F7D42078400760D5E86964
:104680000027C00008D4E86940F08050E861E8697C
:10469000012700F0805000905C480168C90513D4E0
:1046A0000168834641F480710160FFF7CBF98246CF
:1046B00006E000BFFFF7C6F9A0EB0A0064284ED859
:1046C000DBF80000C005F5D5E06801280AD008B184
:1046D000052813D0286A20F001002862286A20F0FB
:1046E000040002E0286A40F001002862E06841F21C
:1046F000883B98B1FFF7A6F982460BE0286A40F0A4
:1047000004002862EEE700BFFFF79CF9A0EB0A0166
:1047100059455AD8286A8007F6D50CE0FFF792F978
:10472000824605E0FFF78EF9A0EB0A0159454CD807
:10473000286A8007F6D41FB1E86920F08050E8614C
:10474000E06988B36968C1F38101022944D0022875
:10475000C6F8608004D0FFF775F9044638E034E00D
:10476000FFF770F9074604E0FFF76CF9C01B022859
:104770002BD828688001F7D4206AB0F5803F05D196
:104780006868A16820F4003008436860D4E9080133
:104790000843696821F4741108436860C6F86090A2
:1047A000FFF750F9044606E025E000BFFFF74AF99D
:1047B000001B022809D828688001F7D51BE000BF3C
:1047C000FFF740F9001B022802D90320BDE8F88F4B
:1047D00028688001F4D40EE00128F7D06868226AC6
:1047E00000F48031914204D1616A00F47010884273
:1047F00001D00120EAE70020E8E7000000100240B5
:1048000000004242800442425800002000700040F4
:1048100070B515460E46040007D0A069B0F5807F3C
:1048200003D094F8410010B107E0012070BD0020D2
:1048300084F84000204600F01DF804F108012068CB
:10484000FEF7FCF93146A2682068FEF72BFAD4E99E
:1048500001022946236BFEF7D3F9A168206850F8BE
:10486000212042F0010240F82120012084F841007B
:10487000002070BDFEF7B0BF7047704770B590F86C
:104880003C20012A2CD0012480F83C40022280F8F0
:104890003D2003685A689D6822F070060A6832431A
:1048A0005A60104B02689A420ED00F4B9A420BD0BE
:1048B000B2F1804F08D00D4B9A4205D00C4B9A4272
:1048C00002D00C4B9A4204D1496825F08003194369
:1048D000916080F83D40002180F83C10084670BD92
:1048E000022070BD002C0140003401400004004053
:1048F00000080040000C004010B5040003D094F8FC
:104900003D0010B107E0012010BD002084F83C00FC
:10491000204600F01EF8022084F83D00211D20688A
:1049200002F034F9012084F8460084F83E0084F84F
:104930003F0084F8400084F8410084F8420084F885
:10494000430084F8440084F8450084F83D000020CA
:1049500010BD704790F83D10012901D0012070472B
:10496000022180F83D100168CA6842F00102CA6065
:1049700000680E4988420ED00D4988420BD0B0F134
:10498000804F08D00B49884205D00B49884202D09D
:104990000A49884204D1816801F00701062903D041
:1049A000016841F00101016000207047002C0140C6
:1049B000003401400004004000080040000C0040AA
:1049C00070472DE9F04104460068C66805694FF05C
:1049D0000007A90713D5B10711D5F91E0161012000
:1049E0002077206880698007204602D0FFF7E8FF23
:1049F00004E000F0AFF8204600F052F9277768078E
:104A000016D5700714D521686FF0040008610220E4
:104A100020772068806910F4407F204602D0FFF79D
:104A2000CFFF04E000F096F8204600F039F9277730
:104A3000280715D5300713D521686FF008000861E5
:104A4000042020772068C0698007204602D0FFF745
:104A5000B7FF04E000F07EF8204600F021F9277748
:104A6000E80616D5F00614D521686FF0100008612D
:104A7000082020772068C06910F4407F204602D0CB
:104A8000FFF79EFF04E000F065F8204600F008F90B
:104A90002777E80708D0F00706D021686FF00100FB
:104AA0000861204600F058F9280608D5300606D5DA
:104AB00021686FF0800008612046FFF7DDFE680680
:104AC00008D5700606D521686FF0400008612046C1
:104AD00000F04CF9A8060AD5B00608D521686FF099
:104AE000200008612046BDE8F041FFF7C6BEBDE8E2
:104AF000F081000000B585B0002100910191029184
:104B000003910068B0F1804F1BD10F48816941F0DB
:104B1000080181618069694600F0080004904FF443
:104B2000806000900220019003900848FEF788FE04
:104B30000748416821F4407141F0E06141F400719F
:104B4000416005B000BD000000100240000C0140B3
:104B500000000140704770B5044690F83C00002604
:104B60000D4601280FD0012084F83C006AB1042AC8
:104B70001DD0082A2FD00C2A3FD00126002084F80F
:104B80003C00304670BD022070BD206802F05AF82B
:104B90002068816941F0080181612068816921F004
:104BA00004018161206881692A69114311E020684C
:104BB00002F078F82068816941F400618161206821
:104BC000816921F480618161206881692A6941EAF3
:104BD00002218161D2E7206802F09AF82068C16959
:104BE00041F00801C1612068C16921F00401C1617F
:104BF0002068C1692A69114311E0206802F0BCF8FD
:104C00002068C16941F40061C1612068C16921F473
:104C10008061C1612068C1692A6941EA0221C161DC
:104C2000ACE710B5040003D094F83D0010B107E0E4
:104C3000012010BD002084F83C00204600F01EF842
:104C4000022084F83D00211D206801F09FFF012013
:104C500084F8460084F83E0084F83F0084F8400061
:104C600084F8410084F8420084F8430084F844004A
:104C700084F8450084F83D00002010BD08B50068A8
:104C8000B0F1804F08D10548C16941F00101C1610F
:104C9000C06900F00100009008BD00000010024053
:104CA0007047000010B50446022249B104290ED015
:104CB000082913D094F84100012816D0012010BD16
:104CC00094F83E000128F9D184F83E200FE094F8D2
:104CD0003F000128F2D184F83F2008E094F840001A
:104CE0000128EBD184F8402001E084F84120012222
:104CF000206801F099FF13492068134A884201D0C7
:104D0000904203D1436C43F40043436420688842DB
:104D10000DD090420BD0B0F1804F08D00B498842A3
:104D200005D00B49884202D00A49884204D18168E3
:104D300001F00701062903D0016841F0010101607B
:104D4000002010BD002C0140003401400004004050
:104D500000080040000C004000680349884201D16F
:104D6000FFF72EB97047000000100040704738B5BB
:104D7000044690F84200202801D0022038BD51B1ED
:104D80004AB10120206300206063204602F096F9BA
:104D9000216B012901D0012038BD21680A684968CA
:104DA000009121680C3151E8002F42F0100241E8D7
:104DB0000023002BF5D138BD094A10B590420DD122
:104DC0000848418002F1D00001F03CF904498022FA
:104DD000BDE81040D0310248FFF7C9BF10BD000048
:104DE000780300204400002070470000F8B50168F7
:104DF00004460868CA684B6910F00F0F4FF00005B1
:104E000059D003F0010602F49077374365D0C1070B
:104E100005D0D10503D5616C41F001016164410702
:104E200005D5D90703D0616C41F0020161648107A7
:104E300005D5D90703D0616C41F004016164010715
:104E400007D502F02001314303D0616C41F0080125
:104E50006164616C00293AD0800604D5900602D5C1
:104E6000204602F06DF820684069616CC0F3801044
:104E7000090700D460B3204602F02DF8206840698D
:104E8000400621D52068143050E8001F21F0400171
:104E900040E80012002AF5D1E06BA8B16D494163EA
:104EA000E06BFEF7A3F9002811D0E06B416B01B075
:104EB000BDE8F040084783060FD593060DD5204680
:104EC000BDE8F84002F03CB82046FFF78DFFF8BD82
:104ED0002046FFF789FF6564F8BD266B2023012E6D
:104EE0007CD1C6067AD5D60678D508684868009081
:104EF00048694FF00206400640D5E16B08684068FB
:104F00000004000CE8D0A28D8242E5D9E0858869D2
:104F100020282DD020680C3050E8001F21F480712B
:104F200040E80012002AF5D12068143050E8001F34
:104F300021F0010140E80012002AF5D12068143068
:104F400050E8001F21F0400140E80012002AF5D18E
:104F500084F84230256320680C3050E8001F21F0AF
:104F6000100140E80012002AF5D1E06BFEF71AF9B3
:104F70006663A08DE18D401A81B22AE0A08DE18D9B
:104F8000401A81B2E08D0028A6D00029A4D0226862
:104F90000C3252E8000F20F4907042E80007002F16
:104FA000F5D12068143050E8002F22F0010240E8CB
:104FB0000027002FF5D184F84230256320680C309B
:104FC00050E8002F22F0100240E80023002BF5D11A
:104FD00066632046FFF7F0FEF8BDFFE705062BD518
:104FE000150629D594F841002128F5D1A068B0F51F
:104FF000805F01D12069B0B1206A411C2162216823
:1050000000784860E08C401E0004000CE084E3D18E
:105010002068C16821F08001C1602068C16841F04A
:105020004001C160D8E7206A0088C0F308004860EA
:10503000206A801C2062E5E74006CDD55006CBD51E
:10504000CA68204622F04002CA6084F8413000F06D
:1050500019F9C1E7D96D000870B5040004D094F8BF
:105060004100002510B106E0012070BD84F84050D9
:10507000204600F023F8242084F841002068C1680D
:1050800021F40051C160204601F0BCFF2068016995
:1050900021F4904101612068416921F02A014161B8
:1050A0002068C16841F40051C1606564202084F823
:1050B000410084F842006563002070BDF0B585B002
:1050C0000024009401940294039406463E4F036822
:1050D0003E48022103223E4DBB4221D1836943F465
:1050E00080438361836903F480430493836943F0BD
:1050F000040383618069039200F0040004900802B5
:10510000CDE9000169462846FEF79AFB2815CDE94E
:105110000004694628460294FEF792FB05B0F0BDF4
:105120002C4FBB42FAD1C36943F40033C361C36956
:1051300003F400330493836943F0040383618069BB
:10514000039200F0040004900420CDE900016946B8
:105150002846FEF775FB0820CDE90004694628467D
:105160000294FEF76DFB1D4D1B488027C5E9000426
:10517000C5E902472C616C61AC612846EC61FEF721
:10518000F1F908B1FDF7B0FCF5636E62134D1248FA
:105190004435143001C5102091C5104845F8104918
:1051A00044306C61AC61EC61FEF7DCF908B1FDF7ED
:1051B0009BFCB5630022052126206E62FEF798FF56
:1051C0002620FEF787FFA9E70038014000100240C3
:1051D00000080140004400406C000240C003002071
:1051E000704770472DE9F843044690F8410098460F
:1051F00016460D46202802D00220BDE8F88385B16E
:105200007EB100206064212084F84100FEF71AFC82
:10521000A6848146E684A0682027B0F5805F02D08E
:1052200003E00120E9E7206910B12E4600250EE0D9
:1052300000260CE08021204601F088FFA8B9C6B105
:1052400016F8010B21684860E08C401EE084E08C79
:105250004B464FF00002CDF800800028EAD14FF015
:105260004001204601F072FF40B184F841700320F4
:10527000C3E735F8020BC0F30800E3E784F8417098
:105280000020BAE77047FEE701684A69D243520539
:105290000FD46FF480624A61002140F8301F202251
:1052A00042738173026942F00402026101730120BA
:1052B00070470020704700002DE9F84F0446006851
:1052C00089460B9D01689846174641F4806101604C
:1052D0002068016841F48071016000954FF0011B66
:1052E0000022594620460A9B00F0E4F84FF4007A69
:1052F00040B120680068C00501D5C4F840A0032073
:10530000BDE8F88F216809F0FE0008612B462849A6
:1053100020460A9A00F016F9F0BB206841698069BE
:1053200000902A4620460A9900F0A2F940B1206C6C
:1053300004283AD12068016841F40071016034E02A
:10534000FEB2B8F1010F09D02168380A08612A4677
:1053500020460A9900F08CF90028E8D120680661FF
:105360002A4620460A9900F083F90028DFD12068F8
:10537000016841F480710160009500225946204681
:105380000A9B00F097F80028B3D1216809F0FF00CC
:1053900040F00100086100E007E02B460449204688
:1053A0000A9A00F0CFF80028AAD00120A8E7000050
:1053B000020001002DE9F843044600680D46DDE9CE
:1053C000089701689846164641F4807101604B4683
:1053D00000224FF001112046009700F06BF848B111
:1053E00020680068C00502D54FF4007020640320D7
:1053F000BDE8F883216805F0FE0008613B464A4697
:105400001549204600F09EF888B9206841698069F6
:1054100000903A464946204600F02AF948B1206CEF
:10542000042804D12068016841F400710160012062
:10543000DEE7F5B2B8F1010F09D02168300A086142
:105440003A464946204600F013F90028E7D1206883
:1054500005610020CCE700000200010070B516468F
:105460000D4604461EE02046FFF70EFF08B101205E
:1054700070BD681C16D0FEF7E5FA801BA84200D864
:1054800085B920684069C04340070BD5002044F827
:10549000300F20216173A073216941F02001216147
:1054A0002073E4E720684069C0434007DBD4002054
:1054B00070BD00002DE9F047984617460D4604469A
:1054C000C1F30746DDF820902AE000BFB8F1FF3FA6
:1054D00026D0FEF7B7FAA0EB0901414502D8B8F192
:1054E000000F1DD12068012E16D0806925EA00002A
:1054F0000004000C12D00020B84211D1002044F862
:10550000300F20216173A073216941F020012161D6
:1055100020730120BDE8F0874069E7E70120EBE751
:105520002068012E0AD0806925EA00000004000CE2
:1055300006D00020B842C9D00020EBE74069F3E76D
:105540000120F7E72DE9F047984616460D46044638
:105550004FF000094FF0200AC1F3074723E020680D
:105560004069C043400515D42068016841F40071CA
:10557000016021686FF480604861C4F8309084F85D
:105580003DA084F83E90216C41F00401216484F830
:105590003C9021E0701C06D0FEF754FAA0EB080006
:1055A000B04203D816B1012F1FD021E02068012F8F
:1055B00015D0806925EA00000004000C18D000BF57
:1055C00044F8309F84F80DA084F80E90216941F0D2
:1055D0002001216184F80C900120BDE8F08740692A
:1055E00025EA00000004000CEAD12068406901E0CF
:1055F0002068806925EA00000004000CAFD1ECE7C8
:105600002DE9F041002590460E460446202728E06B
:105610004069C043C0060CD454F8301B6FF0100032
:10562000486144F810596777A577206A206225778A
:1056300014E0FEF707FAA0EB0800B04200D886B9E4
:1056400020684069C04340060BD544F8305F67735B
:10565000A573206940F02000206125730120BDE87A
:10566000F08120684169C9434906D1D40020F6E79A
:1056700070B516460D4604461EE02046FFF704FEB0
:1056800008B1012070BD681C16D0FEF7DBF9801B45
:10569000A84200D885B920684069C04300060BD5F0
:1056A000002044F8300F20216173A073216941F07C
:1056B000200121612073E4E720684069C0430006AF
:1056C000DBD4002070BD000010B504460021F0239B
:1056D0004FF4A072084600F039F9044900204FF455
:1056E00096320C80401C9042FBD310BD000002603B
:1056F0002DE9F05F9B460C46804689467F2A00D9FB
:105700003F22203A1249D0B2002501EB001A00BF17
:105710001AF805700026380601D55A4600E00A9AA4
:105720002146404600F006F97806641C761C070EF8
:10573000F6B2A4B2082EEED36D1C08F10100EDB252
:105740004C461FFA80F8102DE2D3BDE8F09F000010
:10575000189400082DE9FC5F07469A4691460E46CC
:10576000D51B00D56D42BAEB060000D540428046FD
:105770004FF0FF304F4501D2012100E00146019179
:10578000564500D201208346454501DD284601E00B
:10579000C8F1000000EBD070441068420090314620
:1057A00038460C9A00F0C6F84F4501D156450FD047
:1057B000009920468C4204DD0199A0EB080439448D
:1057C0008FB24045EBDA06EB0B002C4486B2E6E7DD
:1057D000BDE8FC9F10B53220FDF73AFFCB2044070F
:1057E00020805348392101802C2101800021018033
:1057F0003421018002210180CF21218000210180FC
:10580000C121018030210180E82121808521018092
:105810000021018078210180EA212180002101807E
:105820000180ED212180642101800321018012216A
:10583000018081210180F721218020210180C02168
:10584000218023210180C121218010210180C521D7
:1058500021803E21018028210180C72121808621CD
:10586000018036212180482101803A212180552163
:105870000180B12121800021018018210180B62101
:105880002180082101808221018027210180F221CD
:105890002180002101802621218001210180E02139
:1058A00021800F210180312101802B2101800C21D9
:1058B00001800E210180082101804E210180F1210B
:1058C00001803721018007210180102101800321FF
:1058D00001800E2101800921018000210180E12148
:1058E0002180002101800E210180142101800321EB
:1058F0000180112101800721018031210180C12116
:10590000018048210180082101800F2101800C21A4
:10591000018031210180362101800F210180112079
:1059200020807820FDF794FE2920208010BD000003
:105930000000026010B5144601231A4600F006F874
:105940000148048010BD00000000026070B50244F0
:10595000521E95B2CA18521E94B24FF0C0432A226A
:105960001A800B4A060A1680C0B21080280A1080DE
:10597000E8B210802B201880080A1080C8B210806E
:10598000200A1080E0B210802C20188070BD00002A
:10599000000002602DE9F0438BB0804612A89946C2
:1059A00090E870000F46104603F014FACDE90001AC
:1059B0004A4607A102A8FAF71DFDCDE90056234685
:1059C00002AA3946404600F043F80BB0BDE8F08328
:1059D000252E2A66000000002DE9F04F87B09A4678
:1059E000DDE9109715008B4606464FF0000408D5F8
:1059F000CDE900972D223046FFF77AFE0836B6B281
:105A00006D420DF108086DB10A20002D0FDD95FBE8
:105A1000F0F100FB115195FBF0F5303108F804105E
:105A2000641CF2E730208DF80800002401E0641EB9
:105A30000BD4CDE9009718F8042053465946304658
:105A4000FFF756FE0836B6B2F1E707B0BDE8F08FB3
:105A50002DE9FC479A46DDE90A9815460E460446AC
:105A60004FF49C770EE0CDE900985346314620462E
:105A7000FFF73EFE0834A4B2BC4202D9002410361F
:105A8000B6B26D1C2A78002AEDD1BDE8FC87000073
:105A90003EB5002411480094019402940E4984609C
:105AA000016004730475012505614FF460214460B1
:105AB000C161FDF7A3F908B1FDF716F80A20CDE999
:105AC0000005694602940548FDF716F9002801D043
:105AD000FDF70AF83EBD0000002401401C02002032
